:020000040800F2
:1030000008120020E1300008A541000849410008ED
:1030100000000000000000000000000000000000B0
:1030200000000000000000000000000057420008FF
:10303000000000000000000055420008594200084E
:10304000F3300008F3300008F3300008F3300008D4
:10305000F3300008F93F0008F3300008F3300008AF
:1030600000000000F3300008F3300008F3300008DF
:10307000F3300008F3300008F330000800000000CF
:10308000F3300008F330000800000000F3300008BF
:10309000F3300008F3300008F3300008F330000884
:1030A000F3300008F3300008F330000861440008F2
:1030B000F3300008000000000000000000000000E5
:1030C000F330000800000000F33000080348854694
:1030D00000F070FB0048004729510008081200204A
:1030E0000448804704480047FEE7FEE7FEE7FEE7A6
:1030F000FEE7FEE75D420008CD30000803460B43C3
:103100009B0703D009E008C9121F08C0042AFAD29D
:1031100003E00B780370401C491C521EF9D2704723
:10312000D2B201E00270401C491EFBD2704700225F
:10313000F6E710B513460A4604461946FFF7F0FFB6
:10314000204610BDCAB2401E4178401C8A4202D0BF
:103150000029F9D100207047421C0178401C002949
:10316000FBD1801A704770B5064602F031FD046845
:1031700005460A220021304600F0DCF82C6070BDC4
:10318000F8B502464A40D40F42004B0052085B0893
:103190009A4202D20246084611464A0023D0C30D85
:1031A0004A00DDB2120EAD1A202D35DA4902012691
:1031B000490AF6058A19002C00D0524220214F1BE3
:1031C0001146B9402A411018C20D9A4221D0002C54
:1031D00017D0012D08DCDA05801AD20F8019D2072A
:1031E000DBB200F0E7F8F8BDDA05801A01234000F1
:1031F0001B06C01880185A428018CA0F1043490095
:1032000007E04908C2071143DA05801A801940080F
:10321000801800F0C7F8F8BD61000122511A001BA8
:10322000F7E70122D2075140AAE70122D207504016
:10323000A6E70122D207002800DB101A002900DBD4
:10324000511A814201D801207047002070470122A5
:10325000D207002800DB101A002900DB511A814236
:1032600001D3012070470020704710B5002296233B
:10327000114600F09FF810BDC20F4100400201232B
:10328000400ADB05D207090EC0187F2901DA0020A9
:103290007047962903DC9623591AC84001E09639F5
:1032A0008840002AF4D040427047C20FD207400045
:1032B00040080BD0C10D0723DB01C91840020905E6
:1032C000400A1143C20840071143704700200146DD
:1032D0007047F0B51FB40646002082B00546402472
:1032E000019100901BE0019922460F46304600F004
:1032F000A2FA049A059B801A994110D310461946E8
:10330000224600F088FA361A8F41019722460120A2
:103310000021009F00F07FFA38184D4100902046B0
:10332000641E0028DFDC019B00982946324607B066
:10333000F0BD0000F7B5009C0F4600262578641C00
:10334000002D05D000F09CFA0068405DC007F5D163
:103350002B2D02D02D2D18D0641E39462046029AFE
:1033600000F092FA002F04D03968A14201D10099EF
:1033700039607105022400290BDA4042002803DD80
:1033800002F026FC0460A007FEBD01208002064377
:10339000E3E70028F8DA02F01BFC04600048FEBDF9
:1033A000FFFFFF7F002904DA401C490001D14008DB
:1033B0004000704770B40024050C05D110240004AF
:1033C00002D1002921D01124050E01D100020834B8
:1033D000050F01D10001241D850F01D18000A41C1F
:1033E000002801DB4000641C002908D020252E1B8A
:1033F0000D46F540A14000D00121294308430106B4
:103400001B1B000ADB1D02D5002070BC7047DB05CA
:10341000181880180029F8DA401C4900F5D170BC52
:103420004008400070470000F0B507460846584085
:1034300087B0C00F049048000E4659004008490864
:10344000BC1A884105D2384631461E4617460B46FF
:1034500002465800400810434CD0300D0390400500
:103460005900400D490D0590401A0290402872DA2B
:1034700018030121000B09050843019004980092EC
:10348000002805D001995242002088410092019005
:10349000029840210A1A0199009800F0BCF90546EB
:1034A0000C466B4607CB00F0D7F9C0197141039A5F
:1034B0000E0D0023D71756401A467A40164344D0C3
:1034C000049A002A2DD0029A012A039A15DC1205CB
:1034D000C01A914101263605001C7141D20F059E8C
:1034E000D2070093019202962A46234600F02CFA56
:1034F00007B0F0BD38463146FAE71605224A0F46B6
:10350000B218C01AB74101210905001C4F4100182B
:103510007F41114618187941E20F10436D1964413B
:1035200013E0E2076D0815436408C2071443039AC9
:1035300001261205C01A91413605001C7141CE07C3
:10354000400830434908C01851412A46234600F03C
:10355000EEF9CDE7FFE7049801224000C117121AE7
:1035600000238B4104983146C417381AA141EEE775
:1035700030B40124E407634030BC55E730B4012483
:10358000E407614030BC4FE70000E0FFF0B51FB436
:1035900088B00B990998002448400999C00F490048
:1035A00049080991C0070B990090490049080B91FF
:1035B00009990898A64608431CD00B990A98084315
:1035C00018D0099801244000420D4800410D099887
:1035D00024050003000B204309900B980003000B07
:1035E00020430B9050181C494018002201901446AB
:1035F000104605E0002001460DB0F0BD032801DAB9
:10360000034600E003239C46C11A0AAE0AE05F00AD
:1036100008ADED5B4F00F75B7D430027AA187C41A6
:10362000491C5B1E6145F2DD410004AB5A52210486
:10363000120C0A43240C401C0828DFDB019802907E
:103640000099704601910090059B049A079906988D
:1036500000F07AF9D0E700000DFCFFFFF0B50C4652
:103660005C4085B0E40FE40703944C000026640836
:1036700059009446490802460296224321D06246E8
:103680000A431ED06200570D4A000E032303550D56
:10369000012402462C492405781B1B0B360B4018CD
:1036A00023432643614600901C46501AB44103D37D
:1036B0000098401C009002E0921800985B4100289E
:1036C00003DA0020014605B0F0BD00200121090504
:1036D0000746864611E064461D46141BB54106D3D5
:1036E0006546521BB341744607430C43A646CD07BB
:1036F00040084908284392185B4105460D43EAD12A
:103700001046184313D06046194650407140084394
:1037100006D06046101AB34106D20122002306E00B
:1037200000220123DB0702E00122D243531000985C
:1037300074460105381C6141029C039D00196941D2
:1037400000F0F5F8BFE70000FD0300004A000903A0
:103750000123090B1B0519430A4B10B5520D9A4260
:1037600002DA0020014610BD064B34339A4203DCD6
:103770009A1A00F060F810BD034BD21800F04BF815
:1037800010BD0000FF030000CDFBFFFF10B50029B6
:1037900004DB0124E40740428C412146002B04DB7A
:1037A0001C460123DB075242A341994200D19042BB
:1037B00010BD0000064C0125064E05E0E36807CC6D
:1037C0002B430C3C98471034B442F7D3FFF782FCEC
:1037D000646700088467000870B50446002903D0B8
:1037E00000202022012310E0002801D00020C04347
:1037F000C046C0460DE02546D5408D4205D30D4656
:103800009540641B1D46954040191546521E002DDB
:10381000F1DC214670BD10B5202A04DB0146203AB8
:103820009140002010BD914020239C1A0346E340A4
:103830001943904010BD10B5202A04DB0846203AF9
:10384000D040002110BD0B46D340D0402024A21A06
:1038500091400843194610BD10B5202A06DBCB174E
:103860000846203A1041C1170B4306E00B461341AE
:10387000D0402024A21A91400843194610BD0000F0
:103880000048704754650008F7B582B0029C0027D5
:103890002078641C15460197302802D0002D15D0E1
:1038A00015E020780127641C782804D0582802D01D
:1038B000002D09D00BE0002D01D0102D07D10027DD
:1038C00010252078641C02E0082500E00A25002667
:1038D000009610E00099012769430818020C294658
:1038E00080B2714300908E183804864201D30120C3
:1038F00001902078641C294600F078F80028E9DA65
:103900000398002805D0002F01D0641E00E0029C1F
:1039100004600198002806D002F05AF902210160E3
:10392000C81E05B0F0BD009930040843F9E710B592
:10393000002B08DA0024401C614192185B411A43B5
:1039400001D14008400010BDF0B51FB482B005465B
:103950000C0003D0084602F023F902E002F020F93F
:1039600020300246009021462846FFF754FF049B72
:10397000059A04460F4618431143084314D01846CD
:1039800010431BD0009840210A1A18460599FFF7EA
:1039900052FF05460E46009A05990498FFF73BFF33
:1039A000084305D0012004E02046394607B0F0BDA9
:1039B0000020C11705430E432C43374300990E984E
:1039C0006305401A7905E40A00220C43FD0A0A3017
:1039D00002D500200146E9E70105101969410C9C58
:1039E0000D9D00196941FFF7A2FFDFE73A2800D2D9
:1039F0003038202302469A43412A01D310463738F3
:103A0000884201D30020C043704770B58C180578F8
:103A1000401C6B075B0F01D10378401C2A1106D1B3
:103A20000278401C03E006780E70401C491C5B1EA7
:103A3000F9D12B0705D40023521E0DD40B70491C5D
:103A4000FAE70378401CCB1A921C03E01D780D7036
:103A5000491C5B1C521EF9D5A142D8D3002070BD71
:103A6000B0B5224801F052FD40F2005440F200503F
:103A700001F04CFD1134204601F048FD062001F014
:103A80001DFC0920C0060321002501242A462346E7
:103A900001F006FB40F20010214601F021F9284612
:103AA00001F054F8284601F0FBF82046214601F0C9
:103AB0002DF8284629462A4601F0A6F81021284666
:103AC0002A4601F0A1F807204104204601F078F8C9
:103AD0002046214601F050F801F044F8204601F05C
:103AE00039F9B0BC01BC864601F000B809060000F7
:103AF000F0B593B0A248A34A1018A349515AC8225E
:103B00000180521E801C002AFAD140F29A109D4971
:103B10000818C8218B22D24300238C2416461D4648
:103B200087193F5BED19B61CFAD14626B5FBF6F5B1
:103B30004E00944FBE197581801C491C40F200450F
:103B4000C835A942EAD140F29A108E49081811905E
:103B50000021C8278D4806910D46049003460F9119
:103B60000846059109910E91079108910FE00A9975
:103B70006D181199891C119140F200410B9F8F42E1
:103B8000234610461299099110990E9177D0109002
:103B900078007C4A0A32115A7C1C6000105A401A84
:103BA0000422D24390420D950C930B9402D8079AAD
:103BB0000A9202E001200A90079A6423119C1046A1
:103BC000C826A55B5219258840195B1EA41C002B32
:103BD000F6D16F4B994201D9012306930F9D841AA8
:103BE0006D480078022806D16A480078012802D181
:103BF0006AA001F0B1FF089AA2420ADAA8B23128FD
:103C000007D840F2F410844203DD12970894059718
:103C100009E0A24201DC002000E00120511E8A419F
:103C20000240AD1812970E9F01210022A7420846BC
:103C300000DB104640F2F4139C420B4600DC1346B6
:103C40000F95ADB2312D00D811460B401840129A95
:103C50000D9D00D1109A10940C9928B91097A1428B
:103C600004DDA14283DC08E0A142FADC1046099A97
:103C700012920246A14200DD79E70C4677E717462B
:103C800045490978022915D1424A1278012A11D1F1
:103C9000A9B2129A92B210980E9200AB15C303917A
:103CA000059881B2BBB23F48089A01F055FF3A48E7
:103CB000017802E0129880B20E908800314908180D
:103CC000394940180C90A8B240F22C11884251D8C2
:103CD0000898001B354988424CDB0698000449D0FF
:103CE000129880B2B9B28142059A00D8174691B2B3
:103CF000814200D317460E98C8300D90B8B211908B
:103D000040F29A101F490B180020109064200F9069
:103D1000374606E0129B9B1C7F1C40F20040874206
:103D200026D00F9A1293109908469C5B09191C889B
:103D30000019521E9B1C002AF7D1119A9742E9D212
:103D40000E9A9742E6D90D9ABA42E3D9441AE0177F
:103D5000251845400498A8420ADD15480780B8B2E6
:103D6000FFF783FA129B0C990860002C0495D2DDB2
:103D700013B0F0BD00200C99086013B0F0BDC04630
:103D80009A090000EC00002092090000FFFFFF7F6D
:103D9000FC0800007E0D00206E0C002025640D0A3A
:103DA000000000000E6700082C0B0000204E0000F1
:103DB000780C0020F0B585B00920C4060421002647
:103DC00020460291324601F02FF91020049001257F
:103DD00008200390EB4F019630460CE020460299F4
:103DE0002A4601F021F900F085F927490880701C66
:103DF00026498E423FD20646C00710D1204604997C
:103E00002A4601F011F930461D4908401D498842F3
:103E1000E4D00428E7D120460399019AE1E7012E76
:103E200005D1204603992A4601F0FEF87D70102145
:103E30000022204601F0F8F800F05CF90F490880F4
:103E4000FA7877490988CB0A10D1022A0ED17B78FB
:103E500063B14A1CA943C91940F29A13CB5A1818E6
:103E600040F29A13C8526E480280C0E7012ABED1C0
:103E70000220F870BBE705B0F0BDC0466A0C002018
:103E8000FF7F0000681000006C0C00209310000001
:103E9000F0B581B0354D364E70593649FFF770F99F
:103EA0000446705100252946FFF7C3F968BB324923
:103EB0002046FFF7CCF940BBF08870B12046FFF7F1
:103EC000DBF93449C8603081091D3348062200F00F
:103ED000EBF832A002F0ECFAF580344F3878A0B35A
:103EE000BA88798832A001F037FE7888B988081A34
:103EF000952810DC3178632901D8491D31700020E4
:103F0000B87135A001F028FE1CE01C481CA111224C
:103F1000FFF7F4F822E0C9280ADB3078294610B10F
:103F2000401F3070C1B2BD7128A001F015FE09E03C
:103F30000120B871307817490861091D164806221A
:103F400000F0B2F800207880B8802046FFF7ADF985
:103F500002460B46094823A101F00EFE074801B0B6
:103F6000F0BC02BC8E4600F02FBBC046340B0000F4
:103F7000EC000020000048C3000048447A0C0020F8
:103F800044495354414E43452C4552524F522C30D4
:103F900000000000340C002000FC00087365742051
:103FA0006F726967696E206F6B0D0000600C0020F6
:103FB0006C65642073746172743D25642C6C656457
:103FC00020656E643D25640D0A00000070776D2D3C
:103FD0002D3D25640D0A000070776D2B2B3D256467
:103FE0000D0A000044495354414E43452C4F4B2C7D
:103FF000252E32660000000080B5022000F0F8FE99
:1040000040B16048C178022904D0054900220A80E5
:104010000121C170022080BC02BC8E4600F0E4BECB
:10402000700C002080B572B60120C0064168054AB8
:104030001160054A1160006880F3088810688047A5
:10404000002080BD580C00205C0C0020B0B5044658
:1040500000F016FF3C25284600F0D4FE204600F074
:10406000DDFE284600F0CEFEB0BC01BC864600F066
:10407000CDBE096801600020704770B50C4605464A
:1040800000F0FEFE204600F0C9FE3C26304600F05F
:10409000B9FE2046294600F003FF304600F0B2FE8C
:1040A00000F0B4FE002070BDF0B581B014460D469E
:1040B000064600F0E5FE3C27384600F0A3FE0C481B
:1040C00000F0ACFE384600F09DFE5CB13C2702CD0E
:1040D000304600F0E5FE384600F094FE641E361DC2
:1040E000002CF4D100F092FE002001B0F0BDC046DB
:1040F00000FC000810B500200146024600F084FDD7
:10410000012000F0D7FD0224204600F073FD0028B6
:10411000FAD0022000F068FD00F0BCFD10BD10B523
:1041200010210020024600F06FFD012000F0C2FDCA
:104130000224204600F05EFD0028FAD0022000F0A4
:1041400053FD00F0A7FD10BDFEE700000D4800780C
:104150000A2242433C48002101F098BB10B5084CAC
:10416000A07940B10748017807A001F0F5FC0020D4
:10417000A071207010BD03480121817010BDC046A0
:10418000600C0020EC0000206C6173657220696E89
:104190006974206F6B202C2070776D203D20256482
:1041A0000D0A000070470000F0B587B0EB4801F041
:1041B000ADF90920C60602210024402730462246D8
:1041C0003B4600F06DFF0322304621463B4600F09F
:1041D00088FF0125304629463A4600F0A7FE1948D7
:1041E00001F094F9184E304601F056FB69460C7305
:1041F00016480290472000900194304601F08CFB55
:10420000304629462A4601F0DFFB304601F07EFBAE
:10421000059406940E48049004AA3046214601F005
:10422000F3F930462146224601F030FB6022304649
:10423000214601F0FDFA3046294601F0CDFB07B0DA
:10424000F0BDC0460107000000040040E703000085
:10425000010001007047704700F086BDF0B481B0E6
:104260004348021F136801210B43136013689B0727
:10427000FCD5036880241C43046000240094009B48
:104280007F2B05D8009B5B1C0093009B802BF9D3F0
:10429000036890251D4305600094009B7F2B05D883
:1042A000009B5B1C0093009B802BF9D30323DD4311
:1042B00006682E40066015682E4E2E401660056872
:1042C0002D4E2E40066005682C4E2E400660856AF5
:1042D0000F26B5438562C56A40F20316B543C56231
:1042E0000D04C66AAE43C662CD07C66AAE43C66257
:1042F000056B8D430563446014680C431460204DC6
:10430000022416686F1EAF4202D226403D46F8D006
:104310001568AD0700D4FEE71A4D2E682643052721
:10432000BE432E6005680560056805600568056088
:104330000568154E2E4006600568144E2E43066033
:104340000D0616682E4316601568AD01FCD502688F
:104350009A4302600268224302600C220368134001
:10436000082BFBD1C806002101B0F0BC00F09ABFB9
:1043700004100240FFFFF2FE0C00FF08FFFFC277AF
:10438000FF04000000200240FFFFC2F70000040805
:10439000F0B585B02948007800283FD0284800783B
:1043A000029058B300260C200390274D0120009066
:1043B000374603987843234A115C101801904468EB
:1043C000284601B12046FEF7C7FEC0B240B30497AD
:1043D00033460099324603E0521CD3B2984205D9C5
:1043E000E75CEB5CBB42F7D03146F5E7C8B2012889
:1043F000049F15D07F1C02988742DAD100200F4914
:10440000087011488021FEF792FE104810A1332257
:1044100005B0F0BC08BC9E4601F09EBB05B0F0BDE7
:1044200001988168084C204688470020034908709D
:1044300080212046FEF77BFE05B0F0BD680C002011
:10444000300C002008000020FC0C0020066700084B
:10445000434F4D4D414E442C4552524F52000000A7
:10446000B0B5584C1949204601F02FFB90B12046B9
:1044700001F0E6FA16490A88164B98540888185C29
:104480000A2804D1144801220270002001E00888A3
:10449000401C08801149204601F017FBA0B1104DC7
:1044A0002878411C29700F49095C204601F0CCFA9C
:1044B0000D4800782978814206D107212046B0BCFA
:1044C00004BC964601F0EFBAB0BDC0460500050732
:1044D0007C0D0020FC0C0020680C00200700070762
:1044E000040E0020840D0020500C0020F0B581B097
:1044F0001A4801F00BF80920C50601242846214678
:1045000040F2002200F012FD2846214640F200420F
:1045100000F00CFD022628463146224640F20023D8
:1045200000F0BEFD002728463946224640F200230F
:1045300000F0D7FD28463146224640F2004300F005
:10454000AFFD28463946224640F2004301B0049CA4
:10455000A646F0BC01B000F0C4BDC0461105000085
:10456000B0B5174800F0D2FF164C204601F072FAA1
:1045700000252046294601F0E1FA2046294601F0AF
:10458000C8FA2046294601F0AFFA204642F280518F
:1045900001F02EFA0421204601F0B3FA082120464A
:1045A00001F0C4FA0521204601F086FA1B202946B5
:1045B00000F044FE2046B0BC02BC8E4601F066BA54
:1045C0000E06000000380140014640780A7830B1FC
:1045D000012342405B1CD8B2085C0028F9D1C048D6
:1045E00001F0BABA10B5FFF785FD04460CA001F042
:1045F000B3FAA2B20B4C0CA1204601F0BDFA6078D0
:10460000227830B101214240491CC8B2205C002808
:10461000F9D1B348034901F09FFA012010BDC0460B
:10462000616463007A0C00204144433D25642C4FB3
:104630004B00000010B5CF4C20780A224243B2480C
:10464000002101F023F90120A07010BD80B50449BC
:10465000FFF70FFD03A001F07FFA012080BDC046E7
:1046600008FC00084F524947494E3D25640D0A0099
:10467000B0B5084D28780A2242430748002101F0CE
:1046800005F90124AC700548047005A001F010FF85
:104690002046B0BDEC00002000040040600C00206B
:1046A0006C6173657220696E6974207374617274D1
:1046B0000D000000B0B5094C0025204629462A46C9
:1046C00001F0E4F8204629462A4601F0DFF80448C4
:1046D00004A1672201F040FA0120B0BD00040040AF
:1046E000066700084F46462C4F4B000080B5074830
:1046F00000780A2242430648002101F0C7F8054825
:1047000005A1292201F028FA012080BDEC0000203B
:1047100000040040066700084F4E2C4F4B0000007D
:1047200010B5074800242146224601F0AFF805489D
:1047300005A1682201F010FAE1480471012010BDC2
:1047400000040040066700086D656173757265209E
:1047500073746F702C4F4B0010B5084C20780A22F0
:1047600042430748002101F091F8064806A11022B3
:1047700001F0F2F90120207110BDC046EC000020CC
:1047800000040040066700086D656173757265205E
:1047900073746172742C4F4B00000000B0B50C4C68
:1047A000002121606821FEF7CDFC0A4D38B1401C84
:1047B000FEF7D9FC20608000C1B2294300E0294601
:1047C000FFF757FC04A001F0C7F90120B0BDC046B7
:1047D000800D002000FC0008666D633D2578000018
:1047E00080B50449FFF745FC03A001F0B5F90120AD
:1047F00080BDC0460CFC000870776D3D25640D0A35
:1048000000000000B0B50C4D00242C603D21FEF7E7
:1048100099FC30B1401CFEF7A6FC04462860401EFF
:1048200084410920C0060421224600F0FDFB03A0BC
:1048300001F03EFE0120B0BD800D00204F4B0D0069
:1048400010B59F4C20780A2242432F48002101F0E6
:104850001DF80120E080A07010BDC046B0B5174D16
:1048600000242C603D21FEF76DFC38B1401CFEF7A2
:104870007AFC0446642800DB64242C601048047031
:10488000E0B210490861091D0F480622FFF70CFC31
:104890002A680E4C0EA1204601F06EF9607822784D
:1048A00030B101214240491CC8B2205C0028F9D136
:1048B0000B48064901F050F90120B0BD800D0020E1
:1048C000EC000020340C002000FC00087A0C0020D2
:1048D0007365742070776D3D25642C4F4B0000008C
:1048E00006670008B0B5074801240470744D2878A5
:1048F0000A2242430448002100F0C8FFAC70204661
:10490000B0BDC0467E0D00200004004080B5FFF71A
:1049100006FC81B202A001F01FF9012080BDC04653
:1049200074656D70203D2025640D0A0080B51F4818
:10493000FFF78CFBFFF776FB012080BDB0B51A4D69
:1049400000242C603D21FEF7FDFB20B1401CFEF74A
:104950000AFC044628605A480470E0B2064908611F
:10496000091D12480622FFF79FFB114801F0A0FD28
:104970000120B0BDEC000020340C0020B0B50A4D81
:1049800000242C603D21FEF7DDFB20B1401CFEF72A
:10499000EAFB0446286005492046FFF76EFB044801
:1049A00001F086FD0120B0BD800D002000FC000854
:1049B0004466000810B51C4801F07AFD1B4801F060
:1049C00077FD1B4801F074FD1A4801F071FD1A488B
:1049D00001F06EFD194801F06BFD194801F068FD0A
:1049E000184801F065FD184801F062FD174801F014
:1049F0005FFD17A001F05CFD1AA001F059FD1EA09B
:104A000001F056FD21A001F053FD27A001F050FD5B
:104A10002B4C21892BA001F09FF821782EA001F0CA
:104A20009BF8012010BDC0463866000817660008D4
:104A300000660008B1660008C366000872660008D8
:104A40009A660008846600085D66000848660008EB
:104A50007365746F726967696EC9E8D6C3D4ADB502
:104A6000E30D00006765746F726967696EB6C1C84F
:104A7000A1D4ADB5E30D000073686F772077617640
:104A800065B6C1C8A1B2A8D0CE0D00006C61736537
:104A90007220696E6974BCA4B9E270776DD7D4B620
:104AA000AFB5F7BDDA0D00006170702075706461FC
:104AB0007461BDF8C8EBB9CCBCFEC9FDBCB60D0035
:104AC000EC000020666C617368206F726967696E24
:104AD000203D2025640D0A00666C617368207077A4
:104AE0006D203D2025640D0A000000007B48016810
:104AF00008220A43026001680907FCD40168042205
:104B00000A43026001684907FCD4704702280ED0AE
:104B1000012818D10F2000050B4A13688343136046
:104B20000905091801401068084310607047032008
:104B30000005054AD3688343D3600905091801407D
:104B4000D0680843D06070472C240140411E884142
:104B5000C00262490A6840F600039A4310180860D0
:104B60007047C0465D480168C90703D1016801224A
:104B70000A4302607047C04601220346134021B138
:104B8000564983B9800714D4704754491BB11205A4
:104B90000B6893430B608007F6D5086848F2000263
:104BA00090430860704712050B6813430B60800741
:104BB000EAD5086848F2000202430A607047C0461E
:104BC000012803D0022809D1064800E00448434ADE
:104BD0001368034013601068084310607047C046B4
:104BE000FFFFF1FFFF8FFFFF06490A6882430A605B
:104BF0007047C046034909680140481E8141084684
:104C00007047C04600240140B0B5214B05280AD8A2
:104C1000052444430846A0401F25A5409C6AAC4398
:104C200004439C621AE00B280BD8052444431E3C25
:104C30000846A0401F25A5405C6AAC4304435C6263
:104C40000CE010280AD2052444433C3C0846A0400E
:104C50001F25A5401C6AAC4304431C62092909D8DE
:104C6000032048438240072181405868884310430D
:104C70005860B0BD122909D8032048431E3882402D
:104C8000072181401868884310431860B0BDC046B2
:104C90000C2401400148006880B270474C24014058
:104CA000032109062A4A13688B43136011680143E4
:104CB00011607047C107094902D1800707D47047C6
:104CC000012292050B6813430B608007F7D5012082
:104CD00040050A6802430A607047C0460824014044
:104CE00040F200120346134031B119495BB9420545
:104CF0000ED4800713D470471549ABB942051AD4B6
:104D00008007F8D51EE00B6813430B604205F0D511
:104D100040F200420B6813430B608007EBD54868F4
:104D2000022202434A6070470A6840F200139A4325
:104D30000A604205E4D50A6840F200439A430A60DB
:104D40008007D8D548680222904348607047C04623
:104D50000424014038B1084964220A600B68002B22
:104D6000FCD1401EF9D170470348016811B10168B8
:104D7000491E01607047C046740C002070B5194B85
:104D80001C46083C2568854325601D1F2E68864308
:104D90002E601E6886431E605E6886435E60012941
:104DA0000FD011B9216801432160022A0ED0C143FE
:104DB000012A0FD0A2B91A6802431A605A680A4041
:104DC0000DE0296801432960022AF0D119680143E6
:104DD000196002E01A680A401A605A6802435A6071
:104DE00070BDC04608040140054908607047C046D0
:104DF000034909680140481E814108467047C04682
:104E0000140401403D4908607047C04602480168EB
:104E100080220A430260704710200240B0B501466C
:104E2000364A374C052023461568ED0702D05B1C37
:104E3000FAD3B0BD1068C00613D41068400802232E
:104E40001840F6D150681843506091605068402176
:104E50000143516005201168C90704D0641CFAD3CE
:104E600009E00420B0BD1068C00603D410684008F3
:104E7000184000E00420516899435160B0BDC0461D
:104E80000448C168090603D503490160034901606C
:104E90007047C0460420024023016745AB89EFCD2F
:104EA00070B50246154B164C052025461E68F607C0
:104EB00002D06D1CFAD370BD1868C00610D41868F3
:104EC000400802263040F6D1586801252843586032
:104ED000116005201968C90704D0641CFAD309E0E1
:104EE000042070BD1868C00603D41868400830401C
:104EF00000E004205968A943596070BD0C200240AD
:104F00000000F1FF70B50446C1B2064D284600F01E
:104F10009BFD054E2846314600F0BDFD0028F9D026
:104F2000204670BD0038014007070000F0B588B08A
:104F30000F23DD43036AD40701D02B400B430395B5
:104F4000F024E6430F0194070297054601D533404C
:104F50003B432F4F08025407069001D53B400343C3
:104F60002C4F08031407079501D53B4003430F045A
:104F7000D4060196009702D5274C23403B43274E89
:104F80000F05940601D533403B43254D0E065406CC
:104F9000049601D52B4033430597224D0F07140685
:104FA00001D52B40DB19079D6C6A2B62D30502D516
:104FB000039B1C400C43069B154D910503D501999D
:104FC0000C4002990C43134E510501D52C401C4353
:104FD000124B144D110501D534400443D10403D5BF
:104FE0000D480440009804430598910401D51C40E5
:104FF000044304980A4B510401D51C400443110496
:1050000001D52C40E4190798446208B0F0BDC046B1
:10501000FFF0FFFFFF0FFFFFFFFFF0FFFFFF0FFF9E
:10502000FFFFFFF0FFFFFF0F12B118221150704772
:105030002822115070470000F0B581B0174C20466F
:1050400000F064FAEF34204600F060FA0920C6064A
:10505000012400251C27304621462A463B4600F005
:105060001FF80322304629463B4600F03AF8B76263
:105070002846214600F06AFA0226304629462A468A
:10508000FFF77CFE3046FFF7AFFE0520214601B05A
:10509000F0BC04BC964600F0D1B8C0461105000033
:1050A000F0B582B0019305680090C06800263746CD
:1050B00003E0B61C7F1C102F0ED0019BFB40DB07CA
:1050C000F7D01346B3400324B440A04318430B4623
:1050D000B340A5431D43ECE700990D60C86002B0E2
:1050E000F0BDF0B581B0012902D14168194301E05A
:1050F000416899434160009081680024032026465E
:1051000003E0A41C761C102E0AD01F46F740FF07B0
:10511000F7D01746A7400546A540A9433943F0E715
:105120000098816001B0F0BD84B00120C00643F258
:10513000000100F0B7F8002787F3108800F03EFA6E
:1051400064242046FFF706FEFFF776FFFFF7CEF94F
:10515000FFF72AF8FEF784FCFFF702FA2046FFF774
:10516000F9FD2F4D291D2F4C2046FEF782FF2068A8
:10517000A168814211D120460C3029460831FEF742
:1051800078FF204610300C352946FEF772FFE068A4
:105190002169254A1081117004E0211D062228464C
:1051A000FEF782FF204C214E214820180190204616
:1051B0000A30039001200290FFF7EAF8A0782179E5
:1051C000014325D0FEF7C2FFFEF7F4FD3078FEF76D
:1051D0008FFC35463678032E0DD33046FEF758FE49
:1051E00013482750A77013480770019847608760DD
:1051F000C76007613E466770E770039840F620314C
:10520000FDF795FF701C2E4628700298FFF7A2FD4F
:10521000094800780028CFD0FEF7A0FFCCE7C046B1
:1052200000FC0008340C0020EC0000206E0C002074
:105230002C0B00007E0D0020600C002070B540B2E9
:10524000002817D4032302469A43144BD4588507E9
:10525000ED0EFF26AE40B4438901C9B2A9402143F7
:10526000D1501F21014001228A40400980000C4991
:10527000425070BD8207D20EFF2494400F2303409A
:10528000083B0320834304481D58A5438901C9B244
:1052900091402943195070BD1CED00E000E400E08E
:1052A00000E100E0034A0A40024303480260BFF302
:1052B0004F8F704780FFFF1F08ED00E010B53149A8
:1052C0000A462C3A13684CF20004A34313600B689F
:1052D0002D4C1C400C60092852D8830001A4E3180F
:1052E0009F46C04600F012B800F015B800F01DB897
:1052F00000F01EB800F01FB800F021B800F023B88D
:1053000000F025B800F032B800F025B80120000404
:105310000A68824303E0012000040A6802430A602D
:10532000086840F20012904329E01068106022E003
:105330001068106014E0106844F2000319E010686F
:1053400044F200030AE0106848F2000311E010681C
:1053500048F2000302E010684CF2000303431360BC
:105360000120C0070A6802430A6004E010684CF29A
:105370000003034313600A6840F200101043086002
:1053800010BDC04630100240FFFEFE7FF0B581B078
:105390000246544B18680C21014053480829044622
:1053A00018D119688902090F0F2901D08C1C00E05F
:1053B00010241D682D0101D511310C461968C9034F
:1053C00001D44A4905E0996A0F250D40691CB0FBDC
:1053D000F1F14C431D6818681968052A1ED8009021
:1053E0002D062D0F42A77F5D2546FD408904490FFC
:1053F000434F7E5C2946F140960001A08019874604
:1054000000F00AB800F00CB800F00CB800F066B874
:1054100000F00FB800F016B821465FE000215DE013
:1054200029465BE000984005400F385CC54029469E
:1054300054E0D86AC0051CD4D86AC0032ED53248BF
:1054400001B0F0BDD86A800748D0D86A0322104066
:105450000128214642D0D86A104048F200010228B3
:105460003CD0D86A104003281F4800D0002001B06B
:10547000F0BD1A68D86A1204920F930001A4E318D1
:105480009F46C04600F006B800F00BB800F00DB81B
:1054900000F011B8002812D449081FE0194801B0E3
:1054A000F0BD00280FD4890818E000280FD406208A
:1054B000B1FBF0F112E000280DD4C9080EE0032082
:1054C000B5FBF0F10AE00520B5FBF0F106E007209E
:1054D000B5FBF0F102E00920B5FBF0F1084601B0A0
:1054E000F0BDC0460410024000127A0000093D00E1
:1054F0000000000000000000010203040607080984
:1055000058650008809FD500003FAB011F21014076
:1055100001228A4080090C49435813434350704785
:105520001F21014001228A408009074943589343C3
:10553000435070471F21014001228A4080090249DF
:1055400043581343435070470010024010B58A0877
:10555000032A30D88907090F88400F238B40D9438D
:10556000930001A4E3189F4600F006B800F00CB8C1
:1055700000F012B800F018B80F4A13680B4013601F
:1055800011680143116010BD0B4A53680B40536012
:1055900051680143516010BD074A93680B40936006
:1055A00091680143916010BD034AD3680B40D360FA
:1055B000D1680143D16010BD0800014010B50D480D
:1055C00000680D49B0FBF1F0411E080E00D0FEE767
:1055D0000A480B4A51600B490B6803400324A40797
:1055E0001B190B6000239360072313600A680240B5
:1055F0000A6010BD2C0C0020A0860100FFFFFF00F8
:1056000010E000E020ED00E010B5032900D9FDE036
:105610008B0001A4E3189F4600F006B800F08EB896
:1056200000F045B800F0CBB8036A01218B43036258
:1056300083690324A34383611388046A1C430462BF
:10564000036A0224A34303629388046A1C4304622E
:10565000DC4BC3180A24E341072B00D9D6E099405C
:10566000E123194200D1D1E0016A04239943016288
:105670005188036A0B430362016A0823994301625C
:10568000D188036A0B430362416840F200139943D7
:105690004160118943680B434360416840F2002335
:1056A00099434160518942680A43426010BD016AD2
:1056B00040F20013994301620321C943C3690B40BF
:1056C000C36111880902036A0B430362016A40F255
:1056D00000239943016291880902036A0B43036224
:1056E00051490B1F984200D090E0036A40F20044F9
:1056F000A343036253881B02046A1C430462036AC7
:1057000040F60004A3430362D3881B02046A1C43CF
:105710000462086841F200039843086010890001A0
:105720000B6803430B60086842F20003984308606B
:10573000508900010A6802430A6010BD016A102303
:1057400099430162816940F2003399438161118874
:105750000901036A0B430362016A20239943016232
:1057600091880901036A0B430362924988424ED033
:105770008D4988424AD1016A402399430162518888
:105780000901036A0B430362016A802399430162A2
:10579000D1880901036A0B4303622348016840F280
:1057A0000043994301601189890003680B4303603A
:1057B000016840F600039943016051892EE0016AB7
:1057C00041F2000399430162C16940F200339943F9
:1057D000C16111880903036A0B430362016A42F243
:1057E00000039943016291880903036A0B43036232
:1057F0000D490B1F984209D1086844F200039843F1
:105800000860108980010A6802430A6010BD0748D9
:10581000016840F2004399430160118989000268E0
:105820000A43026010BDC046042C01400440014000
:1058300010B5032929D88B0001A4E3189F46C04660
:1058400000F006B800F00AB800F010B800F013B885
:105850008169702399438161183013E0816947F2AF
:10586000000399438161120218300BE0C169702373
:105870009943C16105E0C16947F200039943C161E1
:1058800012021C3001681143016010BD032902D8C7
:10589000890008184263704710B5184C18498842AF
:1058A0000ADD1849884212DC3F4988421DD041492F
:1058B000884218D1641D18E03C4988420FD0124933
:1058C000884211D03E4988420DD1FD340DE03B495C
:1058D000884206D03849884205D1E41D05E0F634F7
:1058E00003E0A41D01E010BDF9342046FFF722FEBD
:1058F000204610BC02BC8E46FFF712BE0B03000010
:10590000FF2B0140FF4301400010004001680122CD
:105910000A4302607047000010B50A888262224A7A
:10592000904202D0214B98420BD103687024A343CC
:1059300003604B8804681C4304608B8804681C4324
:1059400004608B68C3621A4B984208DC174B98427C
:105950000ED01B4B98420BD0904209D01EE0154A46
:10596000904205D0144A904202D0144A904215D178
:10597000026840F200339A430260CA880368134306
:105980000360104A82180A23DA41072A06D8012345
:105990009340E122134201D0097B01634169012256
:1059A0000A43426110BDC046002C01400004004083
:1059B000FF3F0140004001400048014000440140D9
:1059C0000020004000D4FEBF8162012A03D141695A
:1059D00001220A4342617047491E4A424A41D103AB
:1059E000426C48F200039A4351184164704700002A
:1059F000B0B50D4604462248844204D02148844272
:105A000005D1022000E00520FFF7C0FC00E00020E7
:105A10002168090406D469084018B0FBF5F080B28B
:105A2000E060B0BD690840004018B0FBF5F00349E4
:105A300001400007400F4018E060B0BDF0FF0000DB
:105A4000416A034808407047014A0A408262704731
:105A5000FF01000010B50A49884204D00949884274
:105A60000BD1094C00E0054C2046FFF763FD2046B2
:105A700010BC02BC8E46FFF753BD10BD0E030000E4
:105A80000038014000440040110400000168012278
:105A90000A43026070471F220A4089090958D14011
:105AA0000120084070471F220A40012393408909C2
:105AB0000A589A430A5070471F220A400123934014
:105AC00089090A581A430A5070471F220A400B04DA
:105AD0009B0D1B58D3408A0D1258C802C00EC240FD
:105AE0001A40012010407047026801239A43026067
:105AF000026840F200639A43026002680A4302604F
:105B00007047026804239A43026002680A430260F5
:105B10007047026801239A430260426843F200031F
:105B20009A43426042680A43426070470268082311
:105B30009A43026002680A430260704702680123C8
:105B40009A430260026841F200039A4302600268CD
:105B50000A430260704700000FB410B503A9044B5C
:105B6000044A029800F002F910BC08BC04B01847BF
:105B7000054F0008000000200FB410B504A9074B22
:105B800002AA039800F0F2F8044602A9002000F0EF
:105B900089FC204610BC08BC04B01847A564000866
:105BA0002021020C01D010211046020A01D010461B
:105BB0000839020901D01046091F820801D0104699
:105BC000891E420801D0881E7047081A70470000DD
:105BD000004870470400002002E008C8121F08C1F6
:105BE000002AFAD170477047002001E001C1121F5E
:105BF000002AFBD170470000F0B51FB486B00998A9
:105C0000089A030D0021024314D05148514A181834
:105C1000504305141198012810981AD0281A401CD6
:105C200000264D4F4D49009601910490002812DA4C
:105C3000444211E01198012449A3012801D1109890
:105C4000C1430698119A84600360C26041600BB042
:105C5000F0BD4042E4E70446210500203F4A001C15
:105C600051410391029012E0E00707D032463B46D3
:105C700001990098FDF78AFC0191009032463B465D
:105C800010461946FDF782FC06460F466410002CAC
:105C9000EAD10498039B0028029A0999089806DA29
:105CA000FDF774FC019B009AFDF770FC05E0FDF721
:105CB000D5FC019B009AFDF7D1FC04460E4600225C
:105CC000284BFDF763FD03D80020C043014607E0E1
:105CD0000022254B20463146FDF7A6FBFDF736FD99
:105CE000102409E0002C0ADB0A220023FDF7F1FA58
:105CF000079B30321A55641E02460A43F2D1112224
:105D0000641C079B121B1C19119B012B03D0012340
:105D100008430ED10AE0084304D01120109000205F
:105D2000119077E71098151A6D1E0BE010988242BB
:105D300002DD00236D1C03E0824201DA00236D1EA8
:105D4000002BEED0069811998260C16030C07EE7CA
:105D500001FCFFFF104D0000000014400000F03F68
:105D6000300000000000F0430000E03FFFB597B0B6
:105D70000646002518E2252877D100242746FD494C
:105D8000049400E00443761C32780120203A9040CD
:105D90000842F7D130782A280ED002223078014606
:105DA0003039092916D804990A2359433039401843
:105DB0001443761C0490F1E7189802C804911890D7
:105DC000002904DA012040030443484204900220E1
:105DD0000443761C30782E2814D1042004437078B4
:105DE000761C2A2809D11898761C80C8189009E0DA
:105DF0000A214F43303FC719761C307801463039AD
:105E00000929F5D930786C2810D006DC4C281AD036
:105E100068280ED06A2817D104E0742813D07A2895
:105E200012D110E00120400504430CE001210905D6
:105E300001E0032109050C437178814203D101205F
:105E400000052418761C761C3078119066280BD03B
:105E500013DC58287DD009DC00287BD04528F6D0FB
:105E60004628F4D047281AD1A5E118E0632835D098
:105E7000642870D0652812D19DE170286CD008DCB0
:105E80006728F1D069287BD06E280DD06F2806D105
:105E9000BAE073282ED0752871D0782859D01A9A74
:105EA000199990476D1C7EE16002400F022809D0CD
:105EB00003280DD00428189801680DD00D60001D2E
:105EC000189070E11898EA1701680D604A60F6E7CB
:105ED000189801680D80F2E70D70F0E718986A468F
:105EE00001781172001D18900020507202A80090D5
:105EF000012005E0189802C8189000200091C043C6
:105F000061070DD5002101E00199491C0191B942B9
:105F100012DA8142F8DB009A515C0029F4D10BE0DF
:105F2000002101E00199491C01918142FADB019AAB
:105F30000099895C0029F5D1019904981A9B471AA8
:105F400021463846199A00F097FA019940194518E8
:105F50000BE04FE02CE113E04EE000980099007850
:105F6000491C00911A9A199990470198401E019076
:105F7000401CF2D1214638461A9B199A10E137E0AD
:105F80000A200021009001916002410F022907D0F0
:105F9000189A01CA1892C2179446032908D00AE039
:105FA0001898C01DC108C90005C91891944607E09A
:105FB00000B2C2179446042902D140B2C1178C46E0
:105FC00000226146944506DA0A460021404291418A
:105FD0008C462D2102E0210504D52B216A46117340
:105FE000012103E0E10701D02021F7E7029155E00C
:105FF0000A200AE0102008E0102000900021042070
:1060000004430191082703E008200021019100903A
:106010006002410F022907D0189A01CA1892002283
:106020009446032908D008E01898C01DC108C9008B
:1060300005C91891944603E080B2042900D1C0B28A
:1060400000210291210729D51199702906D0009AC3
:106050001021019B4A401A4305D00EE040216A46B8
:106060001173012108E06146014306D030216A46E0
:1060700011731199517302210291009A0821019B19
:106080004A401A430AD16146014301D1610705D54F
:1060900030216A46117301217F1E029111995829FE
:1060A00004D035A10E910DA90D910DE037A1F9E7AE
:1060B0006146019B009AFDF70CF90E9B8C469B5C98
:1060C0000D9A521E0D92137061460143F0D10D9846
:1060D00005A9081A20300190600703D501200004AB
:1060E000844300E001270198874201DD381A00E06F
:1060F0000020019900904118029809180498401A4C
:106100000490E00306D421461A9B199A049800F0E3
:10611000B3F94519002706E003A81A9AC05D19993A
:1061200090476D1C7F1C02988742F5DBE0030CD57D
:1061300021461A9B199A049800F09EF9451904E02B
:106140001A9A3020199990476D1C0099481E0090AA
:106150000029F5DC08E00D980D990078491C0D9197
:106160001A9A199990476D1C0199481E01900029AF
:10617000F1DC63E109280100303132333435363740
:106180003839616263646566000000003031323383
:106190003435363738394142434445460000000023
:1061A00000F05AF94519761C3078002800D0E2E555
:1061B00028461BB0F0BD600700D406271898C01D04
:1061C000C108C90048680A680831C30FDB07189185
:1061D000190001D09CA108E0210501D59BA104E094
:1061E000E10701D09AA100E09AA1430011985B0851
:1061F000109165280CD006DC452809D046281DD012
:10620000472841D141E0662818D067283CD13CE0BE
:106210000021112F01DB112000E0781C019100907A
:1062200008A911A8FFF7E8FC139905910021119A1C
:1062300015927F1C12980197009150E00120C00731
:1062400003900120019008A9009711A8FFF7D4FC42
:10625000139A149905920022119B0092129815939B
:10626000059A0192002901D0104602E0791C4018DD
:106270000190381A01D5019804E04042401E009078
:10628000781C0190C01B029043E0012F00DA012727
:106290000021112F01DD112000E03846019100900E
:1062A00008A911A8FFF7A8FC13990591119A0021DC
:1062B000129815920091019721070CD40599B942C3
:1062C00001DB019900E00191012904DD159A491EC5
:1062D000515C302906D0B84201DA011D05DA0121EE
:1062E000029115E00199491EEDE7002805DC0099AF
:1062F000411800910199091A03E0019A411C914249
:1063000000DD01910099401A401C02900120C00755
:106310000390200706D402990198814202DB0020F5
:10632000C043029000206946C87707AF0121039857
:106330000337C907884224D0022011902B201290E5
:10634000039800280CDA404203902D20129007E0B9
:106350000A210398FDF740FA30317F1E039039700F
:106360001199481E11900029F2DC03980028EFD102
:10637000791E129808703078202108404530BF1EE1
:10638000387006A8C01BC01D039010980078002824
:1063900000D00120019941180298C01709180398EC
:1063A00009180498401A401E0490E00306D42146C0
:1063B0001A9B199A049800F05FF845191098007814
:1063C000002803D01A9A199990476D1CE00324D530
:1063D00021461A9B199A049800F04EF845191CE0C2
:1063E0000098002807DB00990598884203DD15987E
:1063F000405C199901E0199930201A9A9047009849
:106400006D1C401C00900298401E0290002804D190
:106410001A9A2E20199990476D1C0199481E0190D7
:106420000029DDDC05E038781A9A7F1C199990471D
:106430006D1C0399481E03900029F4DC21461A9B29
:10644000199A0498ACE600002D0000002B00000013
:106450002000000000000000F8B5044600251E469C
:106460001746880404D405E039462020B0476D1C47
:10647000641EF9D52846F8BDFFB50446002581B055
:106480001E46C80301D5302700E02027880404D524
:1064900005E038460399B0476D1C641EF9D52846BF
:1064A00005B0F0BD0A68531C0B6010707047000007
:1064B00010B5044601E0FEF725FD2078641C034971
:1064C0000028F8D10A20FEF71DFD10BD00000020B5
:1064D00000404040404040404040414141414140F7
:1064E00040404040404040404040404040404040AC
:1064F000400502020202020202020202020202023B
:10650000022020202020202020202002020202023F
:106510000202909090909090101010101010101097
:1065200010101010101010101010101002020202A3
:1065300002028888888888880808080808080808E7
:1065400008080808080808080808080802020202E3
:1065500040000000D16400080000000001020304B4
:106560004144433F0D0A0074656D703F0D0A0061A0
:106570007070207570646174610D0A0064697374D1
:10658000616E63650D0A0073686F772077617665C9
:106590000D0A006C61736572206F66660D0A0072E9
:1065A0006561642070776D0D0A006765746F7269AC
:1065B00067696E0D0A007365746F726967696E0DA5
:1065C0000A006C61736572206F6E0D0A0068656C5D
:1065D000700D0A006D6561737572652073746F705C
:1065E0000D0A006C6173657220696E69740D0A0092
:1065F0006D6561737572652073746172740D0A0044
:10660000C3BFCCF5D6B8C1EEC7EBD2D45C725C6E1A
:10661000BDE1CEB2210D00D2D4CFC2CAC7BFD8D6F9
:10662000C6D6B8C1EEA3ACC7EBB8F9BEDDD0E8C79B
:10663000F3B7A2CBCD210D00766973696F6E3A5620
:1066400034320D006F6B0D00726561642070776DE0
:10665000B6C1C8A1BCA4B9E270776D0D00736574B2
:106660002070776D3DC9E8D6C3BCA4B9E270776DE0
:106670000D0064697374616E6365BEE0C0EBB2E9DE
:10668000D1AF0D006D6561737572652073746F70A5
:10669000B9D8B1D5B3A4B2E20D006D65617375725E
:1066A00065207374617274BFAAC6F4B3A4B2E20D1C
:1066B000006C61736572206F6EB4F2BFAABCA4B99E
:1066C000E20D006C61736572206F6666B9D8B1D552
:1066D000BCA4B9E20D0045503D0077726974652095
:1066E000666C6173683D0077726974652070776DC0
:1066F0003D007365742070776D3D007265616420A4
:10670000666C617368002425737C25787E00737540
:106710006D5F6D61785F696E6465783D25642A2AD6
:10672000256420202073756D5F6D61785F696E64EC
:1067300065785F323D25642A2A2564202020737500
:106740006D5F6D696E5F696E6465783D25642A2AA8
:106750002564202020206E6F5F7065616B3D25648D
:106760000D0A00008867000800000020580C000097
:106770000A3A000830680008580C0020B0050000F4
:10678000E85B000800000000C113CD651408B5499E
:1067900042081A600C4BE5450C1AC20C4BED460C36
:1067A0002A9324590C1A7C0C5A350C1AF00C4B59AC
:1067B000470C1AD40C1A210C320113F2664C085DF6
:1067C000480C1AFB0C5A9D181ADA0C5A7D6C1AB632
:1067D000301A4124411AAA0C5A4D542A8784591858
:1067E0001A9F0C5AE13C1AE73C5A3D3C1AE3185AEE
:1067F00071301A6F0C5A2D181A670C1A0D0C2930AB
:106800001AD6301A054802FF1E01FF01FF01FF01E1
:10681000FF01FF01FF01FF01FF01FF01FF014B75B8
:10682000A24A04136734123412BC0AB21E728000EA
:04000005080030CDF2
:00000001FF
