:020000040800F2
:10000000300E0020E1000008610D00085F0D0008BF
:1000100000000000000000000000000000000000E0
:10002000000000000000000000000000130E0008A7
:100030000000000000000000110E0008150E00086E
:10004000F3000008F3000008F3000008F3000008C4
:10005000F3000008050D0008F3000008F300000895
:1000600000000000F3000008F3000008F30000089F
:10007000F3000008F3000008F3000008000000008F
:10008000F3000008F300000800000000F30000087F
:10009000F3000008F3000008F3000008F300000874
:1000A000F3000008F3000008F30000081D1000082A
:1000B000F300000800000000000000000000000045
:1000C000F300000800000000F30000080348854624
:1000D00000F056FB0048004735190008300E00209C
:1000E0000448804704480047FEE7FEE7FEE7FEE7D6
:1000F000FEE7FEE7190E0008CD00000803460B439B
:100100009B0703D009E008C9121F08C0042AFAD2CD
:1001100003E00B780370401C491C521EF9D2704753
:10012000D2B201E00270401C491EFBD2704700228F
:10013000F6E710B513460A4604461946FFF7F0FFE6
:10014000204610BDCAB2401E4178401C8A4202D0EF
:100150000029F9D100207047421C0178401C002979
:10016000FBD1801A704770B5064602F00FF904689B
:1001700005460A220021304600F0C2F82C6070BD0E
:10018000F8B502464A40D40F42004B0052085B08C3
:100190009A4202D20246084611464A0023D0C30DB5
:1001A0004A00DDB2120EAD1A202D35DA49020126C1
:1001B000490AF6058A19002C00D0524220214F1B13
:1001C0001146B9402A411018C20D9A4221D0002C84
:1001D00017D0012D08DCDA05801AD20F8019D2075A
:1001E000DBB200F0CDF8F8BDDA05801A012340003B
:1001F0001B06C01880185A428018CA0F10434900C5
:1002000007E04908C2071143DA05801A801940083F
:10021000801800F0ADF8F8BD61000122511A001BF2
:10022000F7E70122D2075140AAE70122D207504046
:10023000A6E70122D207002800DB101A002900DB04
:10024000511A814201D801207047002070470122D5
:10025000D207002800DB101A002900DB511A814266
:1002600001D3012070470020704710B5002296236B
:10027000114600F085F810BDC20FD20740004008BB
:100280000BD0C10D0723DB01C91840020905400A44
:100290001143C208400711437047002001467047D0
:1002A000F0B51FB40646002082B0054640240191F7
:1002B00000901BE0019922460F46304600F0A1FA5B
:1002C000049A059B801A994110D31046194622467C
:1002D00000F087FA361A8F4101972246012000214B
:1002E000009F00F07EFA38184D4100902046641EB1
:1002F0000028DFDC019B00982946324607B0F0BD9C
:10030000F7B5009C0F4600262578641C002D05D00B
:1003100000F09CFA0068405DC007F5D12B2D02D09B
:100320002D2D18D0641E39462046029A00F092FA0C
:10033000002F04D03968A14201D1009939607105BC
:10034000022400290BDA4042002803DD02F01EF8E7
:100350000460A007FEBD012080020643E3E70028F9
:10036000F8DA02F013F804600048FEBDFFFFFF7FDB
:10037000002904DA401C490001D1400840007047C0
:1003800070B40024050C05D11024000402D100290A
:1003900021D01124050E01D100020834050F01D12E
:1003A0000001241D850F01D18000A41C002801DB61
:1003B0004000641C002908D020252E1B0D46F54066
:1003C000A14000D001212943084301061B1B000A5C
:1003D000DB1D02D5002070BC7047DB0518188018A3
:1003E0000029F8DA401C4900F5D170BC40084000F3
:1003F00070470000F0B507460846584087B0C00F68
:10040000049048000E46590040084908BC1A88412B
:1004100005D2384631461E4617460B46024658005E
:10042000400810434CD0300D039040055900400D5A
:10043000490D0590401A0290402872DA18030121F4
:10044000000B09050843019004980092002805D08C
:100450000199524200208841009201900298402167
:100460000A1A0199009800F0BCF905460C466B4643
:1004700007CB00F0D7F9C0197141039A0E0D002384
:10048000D71756401A467A40164344D0049A002A99
:100490002DD0029A012A039A15DC1205C01A914147
:1004A00001263605001C7141D20F059ED20700932C
:1004B000019202962A46234600F02CFA07B0F0BDBE
:1004C00038463146FAE71605224A0F46B218C01AD6
:1004D000B74101210905001C4F4100187F41114619
:1004E00018187941E20F10436D19644113E0E207D7
:1004F0006D0815436408C2071443039A01261205C8
:10050000C01A91413605001C7141CE0740083043A6
:100510004908C01851412A46234600F0EEF9CDE7BC
:10052000FFE7049801224000C117121A00238B41F3
:1005300004983146C417381AA141EEE730B40124BB
:10054000E407634030BC55E730B40124E407614060
:1005500030BC4FE70000E0FFF0B51FB488B00B9946
:100560000998002448400999C00F49004908099199
:10057000C0070B990090490049080B910999089808
:10058000A64608431CD00B990A98084318D009982E
:1005900001244000420D4800410D09982405000344
:1005A000000B204309900B980003000B20430B9095
:1005B00050181C494018002201901446104605E0CE
:1005C000002001460DB0F0BD032801DA034600E02B
:1005D00003239C46C11A0AAE0AE05F0008ADED5B3A
:1005E0004F00F75B7D430027AA187C41491C5B1E26
:1005F0006145F2DD410004AB5A522104120C0A435A
:10060000240C401C0828DFDB0198029000997046FA
:1006100001910090059B049A0799069800F07AF9D9
:10062000D0E700000DFCFFFFF0B50C465C4085B044
:10063000E40FE40703944C00002664085900944634
:10064000490802460296224321D062460A431ED040
:100650006200570D4A000E032303550D0124024684
:100660002C492405781B1B0B360B401823432643CB
:10067000614600901C46501AB44103D30098401CB8
:10068000009002E0921800985B41002803DA0020F5
:10069000014605B0F0BD0020012109050746864648
:1006A00011E064461D46141BB54106D36546521B36
:1006B000B341744607430C43A646CD07400849089A
:1006C000284392185B4105460D43EAD11046184372
:1006D00013D06046194650407140084306D060462A
:1006E000101AB34106D20122002306E000220123A2
:1006F000DB0702E00122D243531000987446010543
:10070000381C6141029C039D0019694100F0F5F815
:10071000BFE70000FD0300004A0009030123090BA5
:100720001B0519430A4B10B5520D9A4202DA0020FC
:10073000014610BD064B34339A4203DC9A1A00F08E
:1007400060F810BD034BD21800F04BF810BD00004C
:10075000FF030000CDFBFFFF10B5002904DB0124DF
:10076000E40740428C412146002B04DB1C46012358
:10077000DB075242A341994200D1904210BD0000D4
:10078000064C0125064E05E0E36807CC2B430C3CE4
:1007900098471034B442F7D3FFF79CFCB42D0008FF
:1007A000D42D000870B50446002903D00020202273
:1007B000012310E0002801D00020C043C046C046FD
:1007C0000DE02546D5408D4205D30D469540641B6E
:1007D0001D46954040191546521E002DF1DC21465C
:1007E00070BD10B5202A04DB0146203A914000205C
:1007F00010BD914020239C1A0346E34019439040CA
:1008000010BD10B5202A04DB0846203AD040002154
:1008100010BD0B46D340D0402024A21A914008437B
:10082000194610BD10B5202A06DBCB170846203A22
:100830001041C1170B4306E00B461341D040202462
:10084000A21A91400843194610BD000000487047A5
:10085000102D0008F7B582B0029C00272078641C98
:1008600015460197302802D0002D15D015E02078CC
:100870000127641C782804D0582802D0002D09D004
:100880000BE0002D01D0102D07D100271025207876
:10089000641C02E0082500E00A250026009610E00E
:1008A0000099012769430818020C294680B2714358
:1008B00000908E183804864201D3012001902078E0
:1008C000641C294600F078F80028E9DA039800282B
:1008D00005D0002F01D0641E00E0029C0460019846
:1008E000002806D001F052FD02210160C81E05B0AB
:1008F000F0BD009930040843F9E710B5002B08DA81
:100900000024401C614192185B411A4301D1400808
:10091000400010BDF0B51FB482B005460C0003D0F6
:10092000084601F01BFD02E001F018FD20300246F0
:10093000009021462846FFF754FF049B059A044681
:100940000F4618431143084314D0184610431BD0D8
:10095000009840210A1A18460599FFF752FF0546EC
:100960000E46009A05990498FFF73BFF084305D00F
:10097000012004E02046394607B0F0BD0020C11731
:1009800005430E432C43374300990E986305401AE4
:100990007905E40A00220C43FD0A0A3002D5002042
:1009A0000146E9E70105101969410C9C0D9D0019EC
:1009B0006941FFF7A2FFDFE73A2800D23038202351
:1009C00002469A43412A01D310463738884201D360
:1009D0000020C04370470000B0B5204801F074F912
:1009E00040F2005440F2005001F06EF911342046FC
:1009F00001F06AF9062001F03FF80920C006032142
:100A0000002501242A46234600F050FF40F2001042
:100A1000214600F0EBFD284600F01EFD284600F0C0
:100A2000C5FD2046214600F0F7FC284629462A4607
:100A300000F070FD07204104204600F047FD2046ED
:100A4000214600F01FFD00F013FD204600F008FED7
:100A5000B0BC01BC864600F0CFBCC0460906000011
:100A6000F0B585B0B14802462632878C448C058C9F
:100A7000C38B808B0521C9434F4E490004910499D3
:100A80000293009501943C46575A3818C0184019F3
:100A9000019D401900191788C01980B207230393DC
:100AA000B0FBF3F0009B5052761E921C002E029871
:100AB000E6D19E4802462632878C448C038CC58B37
:100AC000818B3D4E0498029500940197175A79182E
:100AD00049191D46C9180919019C09191788C9190E
:100AE00089B2039BB1FBF3F1009B1152761E921C5D
:100AF000002E0299E7D18D4802462632878C448C1D
:100B0000038CC58B818B2C4E049802950094019721
:100B1000175A791849191D46C9180919019C09194C
:100B20001788C91989B2039BB1FBF3F1009B1152DD
:100B3000761E921C002E0299E7D120480078800092
:100B40007A4C20181E494018029000261D480A239E
:100B5000374606E0049BA41C5B1C174946398B42B0
:100B600028D004931A21625ABF1862186423D25AFB
:100B7000B618891C7E29F6D1F119CA178D1855406F
:100B8000A842E7DD049B5900684A511868228A5A36
:100B9000039040F2F41012180398C9888A42DAD2FE
:100BA0000948038098B2FFF760FB049B0299086034
:100BB0002846D0E705B0F0BDE20300009A08002007
:100BC00008080000FFFFFF7FA4080020F0B583B0F5
:100BD0000920C40600201026012708210191029057
:100BE0000CE04A1C524B1A80B943504A5118CA882B
:100BF0001018C880681C20498D4237D20546C007AE
:100C000010D1204631463A4600F014FE00F092F82A
:100C100018490880042DEDD120460199029A00F070
:100C200009FEE7E7012D06D1204601993A4600F07A
:100C300001FE3E48077020463146029A00F0FAFD58
:100C400000F078F80A49088038498A7838490988D4
:100C5000CB0A05D1022A03D1344B1B78002BC0D11B
:100C6000012AC7D1022031498870C3E703B0F0BD23
:100C700096080020980800209310000010B540F658
:100C80001000124908581249FFF77AFA0446002169
:100C9000FFF7CFFA70B90F492046FFF7D8FA48B9E5
:100CA0002046FFF7E9FA02460B460B4810A101F077
:100CB00041FB04E0084809A11122FFF71FFA06488A
:100CC00010BC02BC8E4600F05DBAC0467800002021
:100CD000000020C100006144A6080020444953548C
:100CE000414E43452C4552524F522C3000000000DB
:100CF00044495354414E43452C4F4B2C252E3266CC
:100D00000000000080B5022000F0F8FC40B1074868
:100D10008178022904D0064900220A8001218170CD
:100D2000022080BC02BC8E4600F0E4BC78000020AB
:100D30009C08002010B500200146024600F0EAFBA6
:100D4000012000F03DFC0224204600F0D9FB0028E1
:100D5000FAD0022000F0CEFB00F022FC10BDFEE72E
:100D600070470000F0B587B0EB4800F0ADFF0920F8
:100D7000C606022100244027304622463B4600F0AA
:100D800095FD0322304621463B4600F0B0FD01258B
:100D9000304629463A4600F0CFFC194800F094FF4F
:100DA000184E304601F056F969460C731648029009
:100DB000472000900194304601F08CF930462946D6
:100DC0002A4601F0DFF9304601F07EF905940694D9
:100DD0000E48049004AA3046214600F0F3FF304646
:100DE0002146224601F030F960223046214601F0CA
:100DF000FDF83046294601F0CDF907B0F0BDC046F8
:100E00000107000000040040E703000001000100AA
:100E10007047704700F02EBCF0B481B04348021F09
:100E2000136801210B43136013689B07FCD503680B
:100E300080241C43046000240094009B7F2B05D871
:100E4000009B5B1C0093009B802BF9D303689025CB
:100E50001D4305600094009B7F2B05D8009B5B1C05
:100E60000093009B802BF9D30323DD4306682E40BB
:100E7000066015682E4E2E40166005682D4E2E40D9
:100E8000066005682C4E2E400660856A0F26B54325
:100E90008562C56A40F20316B543C5620D04C66A91
:100EA000AE43C662CD07C66AAE43C662056B8D43CC
:100EB0000563446014680C431460204D02241668D6
:100EC0006F1EAF4202D226403D46F8D01568AD07EE
:100ED00000D4FEE71A4D2E6826430527BE432E6038
:100EE0000568056005680560056805600568154EBC
:100EF0002E4006600568144E2E4306600D061668E7
:100F00002E4316601568AD01FCD502689A43026055
:100F10000268224302600C2203681340082BFBD1B5
:100F2000C806002101B0F0BC00F09ABD04100240D8
:100F3000FFFFF2FE0C00FF08FFFFC277FF04000076
:100F400000200240FFFFC2F700000408F0B585B0A2
:100F50002948007800283FD028480078029058B3EC
:100F600000260C200390274D01200090374603985F
:100F70007843234A115C101801904468284601B157
:100F80002046FFF7E9F8C0B240B304973346009912
:100F9000324603E0521CD3B2984205D9E75CEB5CC1
:100FA000BB42F7D03146F5E7C8B20128049F15D0FF
:100FB0007F1C02988742DAD100200F49087011483F
:100FC0008021FFF7B4F8104810A1332205B0F0BC1F
:100FD00008BC9E4601F09EB905B0F0BD019881683D
:100FE000084C20468847002003490870802120468D
:100FF000FFF79DF805B0F0BD940800206C000020BC
:101000000800002028090020AC2D0008434F4D4D5A
:10101000414E442C4552524F52000000B0B5584C3E
:101020001949204601F02FF990B1204601F0E6F869
:1010300016490A88164B98540888185C0A2804D167
:10104000144801220270002001E00888401C08803A
:101050001149204601F017F9A0B1104D2878411C24
:1010600029700F49095C204601F0CCF80D48007842
:101070002978814206D107212046B0BC04BC96469F
:1010800001F0EFB8B0BDC04605000507A809002073
:101090002809002094080020070007072A0A0020DA
:1010A000AA09002074000020F0B581B01A4800F0B1
:1010B0000BFE0920C50601242846214640F20022E5
:1010C00000F03AFB2846214640F2004200F034FB93
:1010D000022628463146224640F2002300F0E6FB75
:1010E000002728463946224640F2002300F0FFFB45
:1010F00028463146224640F2004300F0D7FB2846FE
:101100003946224640F2004301B0049CA646F0BC9A
:1011100001B000F0ECBBC04611050000B0B51748A7
:1011200000F0D2FD164C204601F072F80025204652
:10113000294601F0E1F82046294601F0C8F820468A
:10114000294601F0AFF8204642F2805101F02EF816
:101150000421204601F0B3F80821204601F0C4F82C
:101160000521204601F086F81B20294600F044FCAA
:101170002046B0BC02BC8E4601F066B80E060000E8
:1011800000380140014640780A7830B101234240DE
:101190005B1CD8B2085C0028F9D1654801F0BAB8E8
:1011A00010B5FFF7C7FD04460CA001F0B3F8A2B2DA
:1011B0000B4C0CA1204601F0BDF86078227830B1CC
:1011C00001214240491CC8B2205C0028F9D158488E
:1011D000034901F09FF8012010BDC046616463001F
:1011E000A60800204144433D25642C4F4B000000DD
:1011F000354901204870704780B5064800210A46ED
:1012000000F022FF044805A1672201F083F80120C5
:1012100080BDC04600040040AC2D00084F46462C5F
:101220004F4B000010B50A4800680A2141438CB2B8
:1012300008480021224600F007FF07A0214601F0E0
:1012400069F8084808A1292201F064F8012010BDBE
:10125000700000200004004070776D3D25640D0A89
:1012600000000000AC2D00084F4E2C4F4B0000003A
:1012700080B5054805A1682201F04CF8124800210C
:10128000C170012080BDC046AC2D00086D65617342
:101290007572652073746F702C4F4B0080B50448D5
:1012A00004A1102201F036F807490120C87080BD62
:1012B000AC2D00086D656173757265207374617281
:1012C000742C4F4B0000000078000020B0B5124C89
:1012D000002525603D21FEF735FF38B1401CFEF7A3
:1012E00042FF0546642800DB642525600B4C0CA1F9
:1012F00020462A4601F01EF86078227830B101219C
:101300004240491CC8B2205C0028F9D10848034972
:1013100001F000F80120B0BD70000020A6080020F8
:101320007365742070776D3D25642C4F4B00000071
:10133000AC2D000880B50D4801F098FC0C4801F078
:1013400095FC0CA001F092FC0FA001F08FFC13A003
:1013500001F08CFC16A001F089FC1BA001F086FCBA
:101360001FA001F083FC012080BDC046822D000833
:101370006B2D00086C61736572206F6EB4F2BFAAAA
:10138000BCA4B9E20D0000006C61736572206F6649
:1013900066B9D8B1D5BCA4B9E20D00006469737414
:1013A000616E6365BEE0C0EBB2E9D1AF0D00000035
:1013B0006D656173757265207374617274BFAAC6BE
:1013C000F4B3A4B2E20D00006D656173757265201F
:1013D00073746F70B9D8B1D5B3A4B2E20D00000038
:1013E0007365742070776D3DC9E8D6C3BCA4B9E2BB
:1013F00070776D0D000000007B48016808220A43E9
:10140000026001680907FCD4016804220A430260F3
:1014100001684907FCD4704702280ED0012818D172
:101420000F2000050B4A1368834313600905091850
:101430000140106808431060704703200005054A0A
:10144000D3688343D360090509180140D068084375
:10145000D06070472C240140411E8841C00262497F
:101460000A6840F600039A43101808607047C046A7
:101470005D480168C90703D1016801220A4302607F
:101480007047C04601220346134021B1564983B933
:10149000800714D4704754491BB112050B6893435D
:1014A0000B608007F6D5086848F200029043086098
:1014B000704712050B6813430B608007EAD5086874
:1014C00048F2000202430A607047C046012803D078
:1014D000022809D1064800E00448434A1368034043
:1014E00013601068084310607047C046FFFFF1FFAB
:1014F000FF8FFFFF06490A6882430A607047C046B3
:10150000034909680140481E814108467047C046AA
:1015100000240140B0B5214B05280AD805244443D6
:101520000846A0401F25A5409C6AAC4304439C622A
:101530001AE00B280BD8052444431E3C0846A04063
:101540001F25A5405C6AAC4304435C620CE0102894
:101550000AD2052444433C3C0846A0401F25A54030
:101560001C6AAC4304431C62092909D80320484380
:101570008240072181405868884310435860B0BDBD
:10158000122909D8032048431E3882400721814090
:101590001868884310431860B0BDC0460C24014051
:1015A0000148006880B270474C24014003210906BD
:1015B0002A4A13688B431360116801431160704716
:1015C000C107094902D1800707D47047012292055B
:1015D0000B6813430B608007F7D5012040050A68AC
:1015E00002430A607047C0460824014040F20012DE
:1015F0000346134031B119495BB942050ED4800747
:1016000013D470471549ABB942051AD48007F8D5F1
:101610001EE00B6813430B604205F0D540F2004218
:101620000B6813430B608007EBD548680222024326
:101630004A6070470A6840F200139A430A60420504
:10164000E4D50A6840F200439A430A608007D8D57F
:1016500048680222904348607047C0460424014015
:1016600038B1084964220A600B68002BFCD1401E87
:10167000F9D170470348016811B10168491E016042
:101680007047C046A008002070B5194B1C46083CA6
:101690002568854325601D1F2E6886432E601E68C1
:1016A00086431E605E6886435E6001290FD011B9D3
:1016B000216801432160022A0ED0C143012A0FD0C4
:1016C000A2B91A6802431A605A680A400DE02968F4
:1016D00001432960022AF0D119680143196002E030
:1016E0001A680A401A605A6802435A6070BDC046C0
:1016F00008040140054908607047C046034909686D
:101700000140481E814108467047C046140401400C
:1017100070B50446C1B2064D284600F073FD054E73
:101720002846314600F095FD0028F9D0204670BDCE
:101730000038014007070000F0B588B00F23DD43F3
:10174000036AD40701D02B400B430395F024E643F2
:101750000F0194070297054601D533403B432F4FB5
:1017600008025407069001D53B4003432C4F080361
:101770001407079501D53B4003430F04D406019697
:10178000009702D5274C23403B43274E0F05940674
:1017900001D533403B43254D0E065406049601D532
:1017A0002B4033430597224D0F07140601D52B40DC
:1017B000DB19079D6C6A2B62D30502D5039B1C4085
:1017C0000C43069B154D910503D501990C400299D8
:1017D0000C43134E510501D52C401C43124B144DA4
:1017E000110501D534400443D10403D50D4804400C
:1017F000009804430598910401D51C4004430498C3
:101800000A4B510401D51C400443110401D52C405E
:10181000E4190798446208B0F0BDC046FFF0FFFF2E
:10182000FF0FFFFFFFFFF0FFFFFF0FFFFFFFFFF0C6
:10183000FFFFFF0F12B118221150704728221150DC
:1018400070470000F0B581B0174C204600F03CFA1C
:10185000EF34204600F038FA0920C606012400259E
:101860001C27304621462A463B4600F01FF803223B
:10187000304629463B4600F03AF8B76228462146F2
:1018800000F042FA0226304629462A46FFF7FCFEBF
:101890003046FFF72FFF0520214601B0F0BC04BC05
:1018A000964600F0A9B8C04611050000F0B582B018
:1018B000019305680090C0680026374603E0B61C17
:1018C0007F1C102F0ED0019BFB40DB07F7D0134687
:1018D000B3400324B440A04318430B46B340A54390
:1018E0001D43ECE700990D60C86002B0F0BDF0B593
:1018F00081B0012902D14168194301E0416899434F
:1019000041600090816800240320264603E0A41C67
:10191000761C102E0AD01F46F740FF07F7D0174657
:10192000A7400546A540A9433943F0E700988160E8
:1019300001B0F0BD82B000F01FFA6420FFF790FE06
:10194000FFF780FFFFF7B0FBFFF70CFAFFF744F853
:10195000FFF7E4FB19A000F0DDFC244E244F2548DE
:1019600000243518B01D01900120009009E034706A
:10197000B470019840F60001FEF7D9FB0098FFF71C
:101980006FFEFFF7E3FA7078F1780143F9D0FFF7C3
:101990001DF93878FFF764F83878401C3870C0B209
:1019A0000528E4D3FFF76AF91248345074703C708C
:1019B0006C60AC60EC602C61D9E7C0463D3D3D3DBC
:1019C0003D3D3D3D3D3D20633337382054657374C4
:1019D0002053746172742066616E203D3D3D3D3D33
:1019E0003D3D3D3D3D0D0A0D0A20000078000020E0
:1019F0009A0800200808000070B540B2002817D4EB
:101A0000032302469A43144BD4588507ED0EFF2654
:101A1000AE40B4438901C9B2A9402143D1501F212E
:101A2000014001228A40400980000C49425070BDAB
:101A30008207D20EFF2494400F230340083B03206B
:101A4000834304481D58A5438901C9B291402943E5
:101A5000195070BD1CED00E000E400E000E100E082
:101A6000034A0A40024303480260BFF34F8F7047A6
:101A700080FFFF1F08ED00E010B531490A462C3AFF
:101A800013684CF20004A34313600B682D4C1C40F8
:101A90000C60092852D8830001A4E3189F46C04671
:101AA00000F012B800F015B800F01DB800F01EB834
:101AB00000F01FB800F021B800F023B800F025B8FE
:101AC00000F032B800F025B8012000040A68824313
:101AD00003E0012000040A6802430A60086840F23B
:101AE0000012904329E01068106022E01068106036
:101AF00014E0106844F2000319E0106844F2000397
:101B00000AE0106848F2000311E0106848F2000390
:101B100002E010684CF20003034313600120C00789
:101B20000A6802430A6004E010684CF200030343B1
:101B300013600A6840F200101043086010BDC046F0
:101B400030100240FFFEFE7FF0B581B00246544BDC
:101B500018680C21014053480829044618D1196817
:101B60008902090F0F2901D08C1C00E010241D6888
:101B70002D0101D511310C461968C90301D44A4918
:101B800005E0996A0F250D40691CB0FBF1F14C434B
:101B90001D6818681968052A1ED800902D062D0F9B
:101BA00042A77F5D2546FD408904490F434F7E5C77
:101BB0002946F140960001A08019874600F00AB836
:101BC00000F00CB800F00CB800F066B800F00FB8E8
:101BD00000F016B821465FE000215DE029465BE099
:101BE00000984005400F385CC540294654E0D86A4B
:101BF000C0051CD4D86AC0032ED5324801B0F0BD50
:101C0000D86A800748D0D86A0322104001282146AC
:101C100042D0D86A104048F2000102283CD0D86A6D
:101C2000104003281F4800D0002001B0F0BD1A6802
:101C3000D86A1204920F930001A4E3189F46C0468D
:101C400000F006B800F00BB800F00DB800F011B8C5
:101C5000002812D449081FE0194801B0F0BD00283F
:101C60000FD4890818E000280FD40620B1FBF0F14A
:101C700012E000280DD4C9080EE00320B5FBF0F1F6
:101C80000AE00520B5FBF0F106E00720B5FBF0F116
:101C900002E00920B5FBF0F1084601B0F0BDC046F6
:101CA0000410024000127A0000093D00000000000C
:101CB000000000000102030406070809142D0008B3
:101CC000809FD500003FAB011F21014001228A40C7
:101CD00080090C4943581343435070471F2101406A
:101CE00001228A4080090749435893434350704773
:101CF0001F21014001228A408009024943581343B1
:101D0000435070470010024010B58A08032A30D8AB
:101D10008907090F88400F238B40D943930001A402
:101D2000E3189F4600F006B800F00CB800F012B8B7
:101D300000F018B80F4A13680B4013601168014394
:101D4000116010BD0B4A53680B405360516801434A
:101D5000516010BD074A93680B409360916801433E
:101D6000916010BD034AD3680B40D360D168014332
:101D7000D16010BD0800014010B50D4800680D4944
:101D8000B0FBF1F0411E080E00D0FEE70A480B4AF6
:101D900051600B490B6803400324A4071B190B6017
:101DA00000239360072313600A6802400A6010BD95
:101DB00068000020A0860100FFFFFF0010E000E0A7
:101DC00020ED00E010B5032900D9FDE08B0001A44F
:101DD000E3189F4600F006B800F08EB800F045B852
:101DE00000F0CBB8036A01218B43036283690324AB
:101DF000A34383611388046A1C430462036A0224B8
:101E0000A34303629388046A1C430462DC4BC31837
:101E10000A24E341072B00D9D6E09940E123194277
:101E200000D1D1E0016A0423994301625188036A19
:101E30000B430362016A082399430162D188036A54
:101E40000B430362416840F20013994341601189DA
:101E500043680B434360416840F20023994341606B
:101E6000518942680A43426010BD016A40F2001382
:101E7000994301620321C943C3690B40C3611188BF
:101E80000902036A0B430362016A40F2002399438B
:101E9000016291880902036A0B43036251490B1FD7
:101EA000984200D090E0036A40F20044A3430362EA
:101EB00053881B02046A1C430462036A40F6000450
:101EC000A3430362D3881B02046A1C4304620868AC
:101ED00041F2000398430860108900010B68034336
:101EE0000B60086842F200039843086050890001C3
:101EF0000A6802430A6010BD016A10239943016217
:101F0000816940F200339943816111880901036AB4
:101F10000B430362016A20239943016291880901FE
:101F2000036A0B430362924988424ED08D4988422E
:101F30004AD1016A40239943016251880901036A29
:101F40000B430362016A802399430162D18809012E
:101F5000036A0B4303622348016840F2004399433C
:101F600001601189890003680B430360016840F632
:101F700000039943016051892EE0016A41F2000398
:101F800099430162C16940F200339943C1611188EC
:101F90000903036A0B430362016A42F20003994397
:101FA000016291880903036A0B4303620D490B1F09
:101FB000984209D1086844F20003984308601089E8
:101FC00080010A6802430A6010BD0748016840F2B8
:101FD0000043994301601189890002680A43026045
:101FE00010BDC046042C01400440014010B5032937
:101FF00029D88B0001A4E3189F46C04600F006B81C
:1020000000F00AB800F010B800F013B8816970232E
:1020100099438161183013E0816947F200039943C5
:102020008161120218300BE0C16970239943C161CC
:1020300005E0C16947F200039943C16112021C30F7
:1020400001681143016010BD032902D889000818F6
:102050004263704710B5184C184988420ADD184988
:10206000884212DC3F4988421DD04149884218D13C
:10207000641D18E03C4988420FD01249884211D0B3
:102080003E4988420DD1FD340DE03B49884206D0DF
:102090003849884205D1E41D05E0F63403E0A41D6B
:1020A00001E010BDF9342046FFF722FE204610BCA7
:1020B00002BC8E46FFF712BE0B030000FF2B01404F
:1020C000FF43014000100040016801220A43026002
:1020D0007047000010B50A888262224A904202D0FE
:1020E000214B98420BD103687024A34303604B88B3
:1020F00004681C4304608B8804681C4304608B687C
:10210000C3621A4B984208DC174B98420ED01B4B07
:1021100098420BD0904209D01EE0154A904205D05B
:10212000144A904202D0144A904215D1026840F2FB
:1021300000339A430260CA88036813430360104A5D
:1021400082180A23DA41072A06D801239340E122A4
:10215000134201D0097B0163416901220A434261B4
:1021600010BDC046002C014000040040FF3F01406C
:102170000040014000480140004401400020004070
:1021800000D4FEBF8162012A03D1416901220A43C2
:1021900042617047491E4A424A41D103426C48F2AB
:1021A00000039A435118416470470000B0B50D46D2
:1021B00004462248844204D02148844205D10220AA
:1021C00000E00520FFF7C0FC00E0002021680904C2
:1021D00006D469084018B0FBF5F080B2E060B0BDED
:1021E000690840004018B0FBF5F0034901400007C2
:1021F000400F4018E060B0BDF0FF0000416A0348A6
:1022000008407047014A0A4082627047FF0100009F
:1022100010B50A49884204D0094988420BD1094CBB
:1022200000E0054C2046FFF763FD204610BC02BCD1
:102230008E46FFF753BD10BD0E030000003801406D
:102240000044004011040000016801220A430260BA
:1022500070471F220A4089090958D14001200840CF
:1022600070471F220A400123934089090A589A4364
:102270000A5070471F220A400123934089090A58D7
:102280001A430A5070471F220A400B049B0D1B582B
:10229000D3408A0D1258C802C00EC2401A40012015
:1022A00010407047026801239A430260026840F2BE
:1022B00000639A43026002680A4302607047026842
:1022C00004239A43026002680A430260704702686E
:1022D00001239A430260426843F200039A4342603A
:1022E00042680A4342607047026808239A430260CA
:1022F00002680A4302607047026801239A43026041
:10230000026841F200039A43026002680A430260D5
:10231000704700000FB410B503A9044B044A02989B
:1023200000F002F910BC08BC04B0184711170008EF
:10233000000000200FB410B504A9074B02AA0398AF
:1023400000F0F2F8044602A9002000F089FC2046C3
:1023500010BC08BC04B01847612C00082021020CF6
:1023600001D010211046020A01D010460839020996
:1023700001D01046091F820801D01046891E42086C
:1023800001D0881E7047081A704700000048704747
:102390000400002002E008C8121F08C1002AFAD178
:1023A00070477047002001E001C1121F002AFBD1D5
:1023B00070470000F0B51FB486B00998089A030D65
:1023C0000021024314D05148514A181850430514B3
:1023D0001198012810981AD0281A401C00264D4F39
:1023E0004D49009601910490002812DA444211E010
:1023F0001198012449A3012801D11098C1430698DE
:10240000119A84600360C26041600BB0F0BD40422D
:10241000E4E70446210500203F4A001C5141039196
:10242000029012E0E00707D032463B46019900983F
:10243000FEF792F80191009032463B46104619464D
:10244000FEF78AF806460F466410002CEAD104987D
:10245000039B0028029A0999089806DAFEF77CF88F
:10246000019B009AFEF778F805E0FEF7DDF8019B86
:10247000009AFEF7D9F804460E460022284BFEF7D4
:102480006BF903D80020C043014607E00022254B2A
:1024900020463146FDF7AEFFFEF73EF9102409E075
:1024A000002C0ADB0A220023FDF7FAFE079B3032DC
:1024B0001A55641E02460A43F2D11122641C079B7E
:1024C000121B1C19119B012B03D0012308430ED1B1
:1024D0000AE0084304D0112010900020119077E703
:1024E0001098151A6D1E0BE01098824202DD002331
:1024F0006D1C03E0824201DA00236D1E002BEED03A
:10250000069811998260C16030C07EE701FCFFFF30
:10251000104D0000000014400000F03F30000000AB
:102520000000F0430000E03FFFB597B006460025ED
:1025300018E2252877D100242746FD49049400E0BD
:102540000443761C32780120203A90400842F7D1AB
:1025500030782A280ED002223078014630390929F5
:1025600016D804990A235943303940181443761C6D
:102570000490F1E7189802C804911890002904DA31
:102580000120400304434842049002200443761C87
:1025900030782E2814D1042004437078761C2A2821
:1025A00009D11898761C80C8189009E00A214F4379
:1025B000303FC719761C3078014630390929F5D9E2
:1025C00030786C2810D006DC4C281AD068280ED041
:1025D0006A2817D104E0742813D07A2812D110E0A9
:1025E0000120400504430CE00121090501E003211D
:1025F00009050C437178814203D10120000524189C
:10260000761C761C3078119066280BD013DC582885
:102610007DD009DC00287BD04528F6D04628F4D0B0
:1026200047281AD1A5E118E0632835D0642870D076
:10263000652812D19DE170286CD008DC6728F1D0A4
:1026400069287BD06E280DD06F2806D1BAE0732898
:102650002ED0752871D0782859D01A9A1999904798
:102660006D1C7EE16002400F022809D003280DD0C6
:102670000428189801680DD00D60001D189070E1B5
:102680001898EA1701680D604A60F6E71898016823
:102690000D80F2E70D70F0E718986A460178117224
:1026A000001D18900020507202A80090012005E043
:1026B000189802C8189000200091C04361070DD5FA
:1026C000002101E00199491C0191B94212DA8142CD
:1026D000F8DB009A515C0029F4D10BE0002101E005
:1026E0000199491C01918142FADB019A0099895CA8
:1026F0000029F5D1019904981A9B471A21463846BA
:10270000199A00F097FA0199401945180BE04FE02B
:102710002CE113E04EE0009800990078491C0091EC
:102720001A9A199990470198401E0190401CF2D1C5
:10273000214638461A9B199A10E137E00A200021F9
:10274000009001916002410F022907D0189A01CA36
:102750001892C2179446032908D00AE01898C01DA1
:10276000C108C90005C91891944607E000B2C21714
:102770009446042902D140B2C1178C46002261461A
:10278000944506DA0A460021404291418C462D21AB
:1027900002E0210504D52B216A461173012103E0D3
:1027A000E10701D02021F7E7029155E00A200AE075
:1027B000102008E010200090002104200443019123
:1027C000082703E008200021019100906002410FDA
:1027D000022907D0189A01CA1892002294460329A8
:1027E00008D008E01898C01DC108C90005C9189193
:1027F000944603E080B2042900D1C0B200210291C6
:10280000210729D51199702906D0009A1021019B22
:102810004A401A4305D00EE040216A461173012157
:1028200008E06146014306D030216A4611731199D0
:10283000517302210291009A0821019B4A401A43D8
:102840000AD16146014301D1610705D530216A46AD
:10285000117301217F1E02911199582904D035A1CD
:102860000E910DA90D910DE037A1F9E76146019B8D
:10287000009AFDF715FD0E9B8C469B5C0D9A521E2F
:102880000D92137061460143F0D10D9805A9081A05
:1028900020300190600703D501200004844300E04C
:1028A00001270198874201DD381A00E000200199D4
:1028B00000904118029809180498401A0490E00307
:1028C00006D421461A9B199A049800F0B3F94519C9
:1028D000002706E003A81A9AC05D199990476D1C5D
:1028E0007F1C02988742F5DBE0030CD521461A9B3A
:1028F000199A049800F09EF9451904E01A9A3020BC
:10290000199990476D1C0099481E00900029F5DC2C
:1029100008E00D980D990078491C0D911A9A1999A3
:1029200090476D1C0199481E01900029F1DC63E17C
:102930000928010030313233343536373839616295
:102940006364656600000000303132333435363759
:1029500038394142434445460000000000F05AF92E
:102960004519761C3078002800D0E2E528461BB0D7
:10297000F0BD600700D406271898C01DC108C90023
:1029800048680A680831C30FDB071891190001D0A5
:102990009CA108E0210501D59BA104E0E10701D03D
:1029A0009AA100E09AA1430011985B081091652854
:1029B0000CD006DC452809D046281DD0472841D137
:1029C00041E0662818D067283CD13CE00021112F57
:1029D00001DB112000E0781C0191009008A911A8EA
:1029E000FFF7E8FC139905910021119A15927F1CBD
:1029F00012980197009150E00120C0070390012038
:102A0000019008A9009711A8FFF7D4FC139A149914
:102A100005920022119B009212981593059A01923B
:102A2000002901D0104602E0791C40180190381AA4
:102A300001D5019804E04042401E0090781C0190AE
:102A4000C01B029043E0012F00DA01270021112F63
:102A500001DD112000E038460191009008A911A87D
:102A6000FFF7A8FC13990591119A0021129815926D
:102A70000091019721070CD40599B94201DB019916
:102A800000E00191012904DD159A491E515C3029AD
:102A900006D0B84201DA011D05DA0121029115E0E4
:102AA0000199491EEDE7002805DC009941180091C5
:102AB0000199091A03E0019A411C914200DD01913C
:102AC0000099401A401C02900120C0070390200783
:102AD00006D402990198814202DB0020C043029093
:102AE00000206946C87707AF012103980337C9075B
:102AF000884224D0022011902B20129003980028A5
:102B00000CDA404203902D20129007E00A2103982E
:102B1000FDF748FE30317F1E039039701199481E31
:102B200011900029F2DC03980028EFD1791E129849
:102B300008703078202108404530BF1E387006A844
:102B4000C01BC01D039010980078002800D0012001
:102B5000019941180298C017091803980918049898
:102B6000401A401E0490E00306D421461A9B199A8D
:102B7000049800F05FF8451910980078002803D0F9
:102B80001A9A199990476D1CE00324D521461A9B87
:102B9000199A049800F04EF845191CE00098002896
:102BA00007DB00990598884203DD1598405C199968
:102BB00001E0199930201A9A904700986D1C401C2A
:102BC00000900298401E0290002804D11A9A2E20EC
:102BD000199990476D1C0199481E01900029DDDC70
:102BE00005E038781A9A7F1C199990476D1C039953
:102BF000481E03900029F4DC21461A9B199A049878
:102C0000ACE600002D0000002B00000020000000BA
:102C100000000000F8B5044600251E46174688044B
:102C200004D405E039462020B0476D1C641EF9D558
:102C30002846F8BDFFB50446002581B01E46C803EE
:102C400001D5302700E02027880404D505E0384668
:102C50000399B0476D1C641EF9D5284605B0F0BD38
:102C60000A68531C0B6010707047000010B50446D2
:102C700001E0FEF74DFD2078641C03490028F8D1DF
:102C80000A20FEF745FD10BD000000200040404036
:102C9000404040404040414141414140404040402F
:102CA00040404040404040404040404040050202DB
:102CB000020202020202020202020202022020209A
:102CC00020202020202020020202020202029090F6
:102CD00090909090101010101010101010101010F4
:102CE0001010101010101010020202020202888848
:102CF0008888888808080808080808080808080854
:102D0000080808080808080802020202400000003B
:102D10008D2C000800000000010203044144433FE1
:102D20000D0A0064697374616E63650D0A006C615D
:102D3000736572206F66660D0A006C6173657220A0
:102D40006F6E0D0A0068656C700D0A006D65617329
:102D50007572652073746F700D0A006D656173750F
:102D600072652073746172740D0A00C3BFCCF5D60E
:102D7000B8C1EEC7EBD2D45C725C6EBDE1CEB221BD
:102D80000D00D2D4CFC2CAC7BFD8D6C6D6B8C1EEFE
:102D9000A3ACC7EBB8F9BEDDD0E8C7F3B7A2CBCD83
:102DA000210D007365742070776D3D002425737CC0
:102DB00025787E00D82D0008000000207800000053
:102DC00094230008502E000878000020B80D000061
:102DD000A423000800000000000000000000000024
:102DE00000000000452D0008351300080000000019
:102DF0001C2D0008A1110008000000003A2D000859
:102E000025120008000000002E2D0008F91100080E
:102E100000000000232D0008F11100080000000050
:102E20005B2D00089D120008000000004C2D0008DA
:102E30007112000801000000A32D0008CD12000847
:102E400000A24A0408000000020000008000000008
:04000005080000CD22
:00000001FF
