:020000040800F2
:10000000A00F0020C9000008412000081F1F0008A1
:1000100000000000000000000000000000000000E0
:100020000000000000000000000000004520000863
:1000300000000000000000004320000847200008E6
:10004000DB00000800000000DB000008DB00000807
:10005000DB000008690B0008DB000008DB0000087B
:1000600000000000DB000008DB000008DB000008E7
:10007000DB000008DB000008DB00000800000000D7
:10008000DB0000080000000000000000CD20000898
:1000900000000000DD200008DB000008DB00000895
:1000A00000000000DB000008000000006D270008D1
:1000B0000448854600F03EFB004800472133000815
:1000C000C046C046A00F00200448804704480047AF
:1000D000FEE7FEE7FEE7FEE7FEE7FEE7C9200008D1
:1000E000B100000830B50B46014600202022012453
:1000F00009E00D46D5409D4205D31D469540491B5C
:100100002546954040191546521E002DF1DC30BDA4
:10011000F0B51FB40646002082B005464024019188
:1001200000901BE0019922460F46304600F020F86F
:10013000049A059B801A994110D31046194622460D
:1001400000F0DEF8361A8F41019722460120002187
:10015000009F00F0D5F838184D4100902046641EED
:100160000028DFDC019B00982946324607B0F0BD2D
:1001700010B5202A04DB0846203AD040002110BDEB
:100180000B46D340D0402024A21A91400843194680
:1001900010BDD2B201E00270401C491EFBD2704774
:1001A0000022F6E710B513460A4604461946FFF743
:1001B000F0FF204610BD421C0178401C0029FBD1F5
:1001C000801A7047F8B502464A40D40F42004B00EF
:1001D00052085B089A4202D20246084611464A007B
:1001E00023D0C30D4A00DDB2120EAD1A202D35DA30
:1001F00049020126490AF6058A19002C00D052420C
:1002000020214F1B1146B9402A411018C20D9A42B5
:1002100021D0002C17D0012D08DCDA05801AD20F6E
:100220008019D207DBB200F083F8F8BDDA05801A36
:10023000012340001B06C01880185A428018CA0FBC
:100240001043490007E04908C2071143DA05801A44
:1002500080194008801800F063F8F8BD61000122A1
:10026000511A001BF7E70122D2075140AAE70122E9
:10027000D2075040A6E7420005D04200120E52427B
:100280008A4201DB00207047C9050818704710B585
:1002900000229623114600F04BF810BD41004002A9
:1002A0000122400AD205090E80187F2901DA0020B8
:1002B0007047962903DC9622511AC8407047963938
:1002C00088407047C20FD207400040080BD0C10DD4
:1002D0000723DB01C91840020905400A1143C2087F
:1002E0004007114370470020014670470122D207A2
:1002F000002800DB101A002900DB511A88427047E1
:1003000010B5202A04DB0146203A9140002010BDA0
:10031000914020239C1A0346E3401943904010BDAE
:10032000002904DA401C490001D140084000704710
:1003300070B40024050C05D11024000402D100295A
:1003400021D01124050E01D100020834050F01D17E
:100350000001241D850F01D18000A41C002801DBB1
:100360004000641C002908D020252E1B0D46F540B6
:10037000A14000D001212943084301061B1B000AAC
:10038000DB1D02D5002070BC7047DB0518188018F3
:100390000029F8DA401C4900F5D170BC4008400043
:1003A00070470000F0B507460846584087B0C00FB8
:1003B000049048000E46590040084908BC1A88417C
:1003C00005D2384631461E4617460B4602465800AF
:1003D000400810434DD0300D039040055900400DAA
:1003E000490D0590401A0290402873DA1803012144
:1003F000000B09050843019004980092002806D0DC
:100400001146019A494200209041009101900298C2
:1004100040210A1A01990098FFF772FF05460C4621
:100420006B4607CB00F098F9C0197141039A0E0D85
:100430000023D71756401A467A40164344D0049AF0
:10044000002A2DD0029A012A039A15DC1205C01A3F
:10045000914101263605001C7141D20F059ED2073D
:100460000093019202962A46234600F095F907B0C0
:10047000F0BD38463146FAE71605234A0F46B21852
:10048000C01AB74101210905001C4F4100187F41E6
:10049000114618187941E20F10436D19644113E0B9
:1004A000E2076D0815436408C2071443039A012646
:1004B0001205C01A91413605001C7141CE07400853
:1004C00030434908C01851412A46234600F057F9E5
:1004D000CDE7FFE7049801224000C117121A00235C
:1004E0008B4104983146C417381AA141EEE730B465
:1004F0000124E407634030BC54E730B40124E4072E
:10050000614030BC4EE700000000E0FFF0B51FB4D2
:1005100088B00B990998002448400999C00F4900F8
:1005200049080991C0070B990090490049080B91AF
:1005300009990898A64608431CD00B990A980843C5
:1005400018D0099801244000420D4800410D099837
:1005500024050003000B204309900B980003000BB7
:1005600020430B9050181C4940180022019014465B
:10057000104605E0002001460DB0F0BD032801DA69
:10058000034600E003239C46C11A0AAE0AE05F005E
:1005900008ADED5B4F00F75B7D430027AA187C4157
:1005A000491C5B1E6145F2DD410004AB5A52210437
:1005B000120C0A43240C401C0828DFDB019802902F
:1005C0000099704601910090059B049A079906983E
:1005D00000F0E2F8D0E700000DFCFFFFF0B50C469C
:1005E0005C4085B0E40FE40703944C0000266408E7
:1005F00059009446490802460296224321D0624699
:100600000A431ED06200570D4A000E032303550D06
:10061000012402462C492405781B1B0B360B40187D
:1006200023432643614600901C46501AB44103D32D
:100630000098401C009002E0921800985B4100284E
:1006400003DA0020014605B0F0BD002001210905B4
:100650000746864611E064461D46141BB54106D385
:100660006546521BB341744607430C43A646CD076B
:1006700040084908284392185B4105460D43EAD1DA
:100680001046184313D06046194650407140084345
:1006900006D06046101AB34106D20122002306E0BC
:1006A00000220123DB0702E00122D243531000980D
:1006B00074460105381C6141029C039D0019694183
:1006C00000F05DF8BFE70000FD0300004A000903E9
:1006D0000123090B1B0519430A4B10B5520D9A4211
:1006E00002DA0020014610BD064B34339A4203DC87
:1006F0009A1AFFF73DFD10BD034BD218FFF700FE1D
:1007000010BD0000FF030000CDFBFFFF10B5002966
:1007100004DB0124E40740428C412146002B04DB2A
:100720001C460123DB075242A341994200D190426B
:1007300010BD0000064C0125064E05E0E36807CC1D
:100740002B430C3C98471034B442F7D3FFF7B4FC6A
:10075000603400088034000810B5202A06DBCB176F
:100760000846203A1041C1170B4306E00B461341DF
:10077000D0402024A21A91400843194610BD10B55C
:10078000002B08DA0024401C614192185B411A4397
:1007900001D14008400010BDF0B51FB482B005463D
:1007A0000C0003D0084602F0DBF802E002F0D8F8B3
:1007B00020300246009021462846FFF7A1FD049B09
:1007C000059A04460F4618431143084314D01846AF
:1007D00010431BD0009840210A1A18460599FFF7CC
:1007E000C7FC05460E46009A05990498FFF788FD58
:1007F000084305D0012004E02046394607B0F0BD8B
:100800000020C11705430E432C43374300990E982F
:100810006305401A7905E40A00220C43FD0A0A30F8
:1008200002D500200146E9E70105101969410C9C39
:100830000D9D00196941FFF7A2FFDFE7F8B50446F7
:1008400000200090206881688907890F012905D15F
:100850000168C90731D1C16809042ED48168184ADA
:1008600010261140012500291AD181682943816091
:10087000154814490068FFF735FC00E0401E009061
:100880000028FBD100F0CCFC074611E000F0C8FCCA
:10089000C01B02280CD920680068C043C00707D0DD
:1008A000A06B3043A063E06B2843E0630120F8BDF8
:1008B00020680068C043C007E8D10020F8BD0000F0
:1008C0001700008040420F0064000020FEB506467D
:1008D0000C4621E000200125019016E0AF00B81978
:1008E000F15980380090C06FFFF700FD0CD2F0592D
:1008F000FFF7D4FC009980B2C96FF151FFF7C7FC34
:100900000099C867012001906D1CA542E6DB0198A3
:10091000002803D0641EE4B2002CDBD1FEBD000031
:10092000F8B51C4C0246218800208E466188920052
:100930008C46194911235218DB010646D51842008E
:100940005218D2887D231B019A4213D9282811D925
:10095000124B98420ED260450CD97346D71AFF232A
:10096000F5339F4206DB0E4FBA4203D3FFF78FFCED
:1009700028620AE0094A9532904200D32E62074A63
:10098000401C80B296329042D9D3064820806680BF
:10099000F8BD000054000020EC000020B603000069
:1009A00068100000FFFF0000F8B500242E4F264617
:1009B0002546E80744D0012D08D10920012208214D
:1009C000C00600F026FC2948012101700920002200
:1009D0001021C00600F01DFC02F082FC244980B208
:1009E000088024498C420BD220498A78002A07D0FB
:1009F0000A78002A04D062005118CA881018C880EA
:100A0000F007761CC00FB6B2002827D0282C14D9C6
:100A1000164861000818C0887D21090188420CD958
:100A2000144996398C4208D21349884205D2134999
:100A30000A88904201D208804C80641CA4B20DE068
:100A4000092001221021C00600F0E3FB042D05D18E
:100A5000092000220821C00600F0DBFB6D1CADB2AE
:100A6000BD42A6D3F8BD000030110000EC0000200C
:100A7000020000204C0400007C15000054000020FF
:100A800010B50A211648FFF721FF154C203C216BB9
:100A9000E06AFFF797FB616BFFF794FBA16BFFF731
:100AA00091FB0121C943FFF7E6FB0E49FFF7DBFB92
:100AB000FF21C905C8420BD20B49884208DAFFF76B
:100AC00001FC02460B4609A10D4801F035FF03E089
:100AD0000CA10B4801F030FF094801F04FFE10BD9A
:100AE0008C09002000004842000048444449535407
:100AF000414E43452C4F4B2C252E32660000000002
:100B00006C00002044495354414E43452C455252F9
:100B10004F522C3000000000F8B5FFF745FF0F4D95
:100B20002878FFF7FDFE28780026401CC0B20C4C48
:100B30000C4F28700F2808D3FFF7A2FF2E702670E5
:100B400066703946A01DFFF72BFB26703946A01DA5
:100B5000FFF726FB012000F065FAF8BD0000002039
:100B6000EC0000209808000010B509200221C00602
:100B700000F04AFB002805D10349012088700220BB
:100B800000F064FA10BD0000EC00002072B6FEE731
:100B9000F8B50025044620340095227D012A39D07D
:100BA0000122227503689E68760767D4384F4E6825
:100BB000BE424DD09E6A0F78BA4016439E62012312
:100BC000C26A1B079A421FD0012A1DD0022A1BD0DD
:100BD000032A19D0042A17D0052A15D0062A13D0C3
:100BE000072A11D002688B6856697607760FB342E0
:100BF0000AD05369DB08DB005361006842690B7A55
:100C00005B075B0F1A4342610A68102A04D0112A5D
:100C100002D038E00220F8BD1E488368102A07D0B1
:100C200001229205134383600868102803D02AE04C
:100C30000122D205F6E7194817490068FFF752FA72
:100C40000A21484300E0401E00900028FBD11AE032
:100C5000986A0E78B240904398620968102901D0D2
:100C6000112910D10B488268102904D0012189056F
:100C70008A43826007E00121C905F9E7816B2022E0
:100C8000114381630125002020752846F8BD00002E
:100C9000011000000027014040420F0064000020C6
:100CA0000068006C70470000F8B500260446002874
:100CB00005D0A06B25462035002802D007E0012092
:100CC000F8BD0020E0632875204600F0A9F8A06B6D
:100CD0001022C006002870DB2068816849076CD4A8
:100CE000A16B1301994302231943A163816889070A
:100CF000890F012905D10168C9070FD1C16809040D
:100D00000CD4C16818239943A3681943C1602068B3
:100D10000169636889008908194301612068C16815
:100D20003D4B1940C160207E617E8003C9030843AA
:100D3000A17E4B031843A36A012B02D001231B039E
:100D400000E000231843E36818432369022B09D00D
:100D5000002318432B79E57E5B0018430123012D06
:100D600002D00AE00423F4E7002927D0A16B202554
:100D70002943A163E16B1943E163E1690D46FF3D3E
:100D8000C23D02D0256A294308432168CD68054346
:100D9000CD600125E16A2D07A94213D0012911D0A8
:100DA00002290FD003290DD004290BD0052909D021
:100DB000062907D0072905D010E028E00121090401
:100DC0000843DAE721684D69ED08ED004D612168BF
:100DD0004D69A78D7F077F0F3D434D612168C9682D
:100DE0000E4D2940814207D10020E063A06B8008AE
:100DF0008000401CA06308E0A06B022188431043E0
:100E0000A063E06B1843E06301263046F8BDA06B99
:100E10001043A063F8E700001902FEFFE7FF3F83DD
:100E200010B586B0044614216846FFF7B9F9104999
:100E30002068884219D10F48826941150A438261AE
:100E400082690A400592426909020A434261406987
:100E5000084005900120009003200190002002909E
:100E600009206946C00600F0FDF806B010BD00007C
:100E70000024014000100240F8B5044640692546B0
:100E800020350E4608280BD02068C068C00709D05E
:100E9000A06B20210843A063002028750120F8BD25
:100EA000082700E00C2700F0BBF9009015E0701C4B
:100EB00013D0002E05D000F0B3F90099401AB042CB
:100EC0000BD920680068384207D1A06B0421084381
:100ED000A063002028750320F8BD20680068384210
:100EE000E5D0A06B012149020843A0632068C168D6
:100EF00009058A0F0C21002A1AD1A27E002A17D1D7
:100F00000268120714D5826853070122002B08DB00
:100F100043688B434360A06B130298431043A06364
:100F200006E0A06B20231843A063E06B1043E0634E
:100F3000207E002801D1206801600020F8BD00005B
:100F400070B50446216800208968490721D42546E8
:100F50002035297D01291CD001212975617E0129B7
:100F600004D02046FFF76AFC002811D1A16B0A4A81
:100F70001140FF2201321143A1630021E163297571
:100F800022681C21116021688A6804231A438A6040
:100F900070BD022070BD0000FEF1FFFF30B50146BC
:100FA00020314B780022022B04D0042383630A7083
:100FB000012030BD03681C680E25AC431C6003682B
:100FC0001C68640864001C600123056C1C46C06B2F
:100FD000AC4044604B700A70002030BD70B50024F6
:100FE000014620314A78022A03D00421816301247A
:100FF00016E0026813680E25AB431360026813689D
:101000005B085B0013600122056C1346AB40C56BA7
:101010006B604A7000220A70416B002900D088473B
:10102000204670BD70B5044600F0FAF80546601C15
:1010300002D004480078241800F0F2F8401BA042C7
:10104000FAD370BD580000207047000010B5044965
:101050004A69024202D04861FFF7F6FF10BD000066
:1010600000040140F8B5002303240125BAE02E4610
:101070009E40B44632407CD00E79B607B60F012EA2
:1010800001D0022E17D186682746B6465E00B740CB
:1010900000967646BE43B646CF68009EB740764679
:1010A0003743876046686746BE430F79FF06FF0FE8
:1010B0009F40374347600E79F643B6070ED0C668A7
:1010C0002746B4465E00B646B7406646BE43B446C1
:1010D0008F687646B74066463743C7600E79B607D5
:1010E000B60F022E14D1DE08B60036180096366A06
:1010F0005F07B446FE0E0F27B646B7406646BE43AE
:10110000B4460F697646B74066463743009E37625D
:1011100006682746B4465E00B646B7406646BE43FC
:101120000F79B446BF07BF0F7646B74066463743D0
:1011300007604E68B603B60F53D02D4FBE692E43DD
:10114000BE61BE699F08F607F60F2A4EBF00BE19A2
:101150000096B6680F27B4469E07360FB646B740CE
:101160006646BE430927FF06B446B84202D10027AF
:1011700010E036E0204FB84201D101270AE01F4FAE
:10118000B84201D1022705E01D4FB84201D1032723
:1011900000E005277646B74066463743009EB760B5
:1011A000184EB6684F689643FF0200D51643154F98
:1011B000BE60FE684F689643BF0200D51643114FCC
:1011C000FE607E684F689643BF0300D516430D4FFF
:1011D0007E603E684F689643FF0300D51643094A78
:1011E00016605B1C0A681646DE4000D03FE7F8BD7B
:1011F00000100240000001400004004800080048C0
:10120000000C0048000401400069084000D00120A3
:101210007047002A01D081617047816270470000E9
:10122000014880687047000058000020024881682B
:1012300002788918816070475800002010B5064870
:101240000168102211430160032000F007F800F04C
:1012500027F8002010BD00000020024070B50446B1
:101260000D4D7D202978C000FEF73CFF01460B485C
:101270000068FEF737FF00F02DFB002809D1042C91
:1012800007D200222146401E00F02AF800206C60A0
:1012900070BD012070BD00005800002064000020D7
:1012A00008B50848816901221143816181691140B3
:1012B0000091C26901040A43C261C06908400090FC
:1012C00008BD000000100240002805DBC106C90E61
:1012D00001208840014908607047000000E100E0FB
:1012E00010B501F06DFB10BDF8B505460068354C32
:1012F000C00352D5E0690026C00007D4E16920048C
:101300000143E161E1690140012600912E48016835
:10131000C90510D40168821511430160FFF780FFF1
:10132000074604E0FFF77CFFC01B642824D826484A
:101330000068C005F6D5206A03273F02384020D058
:101340006968394081421CD0206A226AB843012171
:1013500009040A432262226A8A4322622062C00789
:101360000FD0FFF75DFF009008E0FFF759FF0099ED
:10137000411A1648814201D90320F8BD206A80072E
:10138000F3D5206A6968B84308432062002E04D070
:10139000E169012000078143E1612878C00705D099
:1013A000206BA968800880000843206328788006A5
:1013B00005D5206B10218843E9680843206300208D
:1013C000F8BD0000001002400070004088130000CB
:1013D000F8B50F46060059D03A4D2868C007C00F2F
:1013E000B84209D22868400840003843286028687D
:1013F000C007C00FB84249D13068334C81070CD5C3
:10140000400704D5606807210902084360606068EE
:10141000F0218843B168084360603078C00726D067
:10142000706801280ED0216802280ED08907002993
:101430002CDA61688908890001436160FFF7F0FEDA
:1014400000900DE021688903F1E78901EFE7FFF7DC
:10145000E7FE0099411A1D48814201D90320F8BDD9
:1014600060680C210840716889008842EFD12868C3
:10147000C007C00FB8420BD9286840084000384365
:1014800028602868C007C00FB84201D00120F8BD0D
:101490003078400706D56068072109028843F16863
:1014A0000843606000F028F86168094A0906090FDE
:1014B000515CC840074908600320FFF7CFFE0020B9
:1014C000F8BD000000200240001002408813000018
:1014D000FA330008640000200448054900684968A0
:1014E000044A4905490F515CC84070476400002018
:1014F000001002400A34000810B5104A51680C2050
:101500000B4603400E48042B17D0082B15D18B0235
:101510000C4C1B0FE45CD26A0A4B1207120F1033FB
:101520009A5CC90305D500231946FEF7F1FD214653
:1015300001E02046044901F02AFA10BD00100240E3
:1015400000127A00DA33000800093D00FEB50400FD
:1015500070D02078DC4DC0074AD068680007800F43
:10156000012807D068680007800F022809D1686841
:10157000C00306D5286880033AD560680028E7D004
:1015800036E06168012914D001208004002901D0CF
:10159000052914D02A68012109048A432A60296890
:1015A000814329606068002816D0FFF739FE06469F
:1015B0000EE028680121090408432860F2E7296841
:1015C00001432960F5E7FFF72BFE801B64286ED8E6
:1015D00028688003F7D50BE0FFF722FE064604E0FB
:1015E000FFF71EFE801B6428F1D828688003F7D41B
:1015F00020780126800700283CDA68680007800F01
:1016000007D068680007800F022809D16868C00306
:1016100006D42868800716D5E06801280AD112E0B0
:10162000E0680028286816D030432860FFF7F8FDEE
:10163000074605E043E1FFF7F3FDC01B0228C6D8CB
:1016400028688007F7D52868F82188432169C900F0
:10165000084328600EE0400840002860FFF7E0FDE6
:10166000074604E0FFF7DCFDC01B0228AFD828685E
:101670008007F7D42078000722D5E0690028686A3F
:101680000ED030436862FFF7CBFD074604E0FFF75A
:10169000C7FDC01B02289AD8686A8007F7D50FE0FB
:1016A000400840006862FFF7BBFD074605E09DE08B
:1016B000FFF7B6FDC01B022889D8686A8007F7D4F7
:1016C000207804274007002860DA00200190E869AC
:1016D000C00008D4E969B8060143E961E96901403D
:1016E00001200091019079480168C90511D4016871
:1016F000821511430160FFF793FD009005E0FFF7AD
:101700008FFD0099401A642870D870480068C005A1
:10171000F5D5A06801280AD0002801D0052810D0EE
:10172000286A400840002862286AB84301E0286A15
:1017300030432862A068002812D0FFF771FD0090A6
:101740000AE0286A38432862F1E7FFF769FD00994B
:10175000411A5F48814249D8286A8007F5D50DE0D3
:10176000FFF75EFD009006E0FFF75AFD0099411A71
:10177000574881423AD8286A8007F5D40198002852
:1017800004D0E969012000078143E9612078C0069F
:1017900035D5606901280CD0401D686B23D03843D3
:1017A0006863686B400840006863FFF739FD0646D0
:1017B00022E0686B38436863686B30436863FFF707
:1017C0002FFD064604E0FFF72BFD801B02285BD8A7
:1017D000686B8007F7D5686BF8218843A169C90059
:1017E000084368630BE0B8436863F4E74CE0FFF735
:1017F00017FD801B022847D8686B8007F7D4206A42
:1018000000285ED069680907890F022942D00126A5
:1018100036060228286805D0B0432860FFF700FD8F
:10182000044633E0B0432860FFF7FAFC074604E0C3
:10183000FFF7F6FCC01B022826D828688001F7D4E1
:10184000E86AE16A000900010843E862616AA06A87
:10185000084369683D221204914308436860286880
:1018600030432860FFF7DCFC044604E0FFF7D8FCB7
:10187000001B022808D828688001F7D521E0FFF76F
:10188000CFFC001B022801D90320FEBD286880017F
:10189000F5D416E00128F8D06868E96A012212043C
:1018A000636A02409A420AD10907E26A090F91422B
:1018B00005D10F2189040840A16A884201D0012086
:1018C000FEBD0020FEBD0000001002400070004080
:1018D00088130000094910B5401E884201D9012033
:1018E00010BD074C60610321081F01F069F800205A
:1018F000A06107202061002010BD0000FFFFFF0055
:1019000000E000E0704770477047F8B50446006893
:10191000C66805690027A907002913DAB10711D5A0
:10192000F91E016101202077206880698007204628
:1019300002D0FFF7E9FF04E000F07BF8204600F05A
:1019400079F82777680716D5700714D50420216821
:10195000C043086102202077206880698005800FDD
:10196000204602D0FFF7D0FF04E000F062F82046E6
:1019700000F060F82777280715D5300713D5082021
:101980002168C0430861042020772068C06980076F
:10199000204602D0FFF7B8FF04E000F04AF82046E6
:1019A00000F048F82777E80616D5F00614D5102081
:1019B0002168C0430861082020772068C06980053D
:1019C000800F204602D0FFF79FFF04E000F031F8BF
:1019D000204600F02FF82777E80708D0F00706D058
:1019E00001202168C0430861204600F024F8280641
:1019F00008D5300606D580202168C04308612046FE
:101A0000FFF780FF680608D5700606D540202168DC
:101A1000C0430861204600F00FF8A80608D5B006BC
:101A200006D520202168C04308612046FFF76BFFE0
:101A3000F8BD7047704770477047704770470000A7
:101A4000F8B502680446D069116893689E4D064651
:101A50002E4025468035002E71D09C4FDE07F60FB4
:101A60000F4037437ED0C70706D0CF0504D50127E6
:101A700017626A683A436A60820708D5DA0706D0B7
:101A8000276802223A626A6804273A436A6042077A
:101A900008D5DA0706D0236804221A626A6802238E
:101AA0001A436A60020709D520220A40324305D052
:101AB000236808221A626B6813436B60020509D51C
:101AC0004A0107D501222368D2021A626B682022DC
:101AD00013436B606A68002A39D0800606D58806F1
:101AE00004D5A16E002901D0204688476868216886
:101AF0008968490602D4282108422DD0204600F0EA
:101B0000C7FB21688868400622D5EFF310800122C8
:101B100082F310888A6840239A438A6080F3108891
:101B2000606F002814D06A494163606FFFF756FA6E
:101B300000280CD0606F416B08E000E012E08306E3
:101B400010D58B060ED5A16EA3E020468847F8BDC0
:101B50002046FFF773FFF8BD2046FFF76FFF002018
:101B60006860F8BD236E012B7ED1C3067CD5CB0601
:101B70007AD51023136222689068264640064036C4
:101B8000002848DA616F086840680004000CE8D05B
:101B9000378B8742E5D970838869202834D0EFF3EA
:101BA0001080012181F3108811681F01B943116071
:101BB00080F31088EFF31080012181F310882168F1
:101BC0008A68520852008A6080F31088EFF3108010
:101BD000012181F3108821688A684027BA438A600E
:101BE00080F310882020286000202066EFF310800A
:101BF000012181F3108821680A689A430A6080F302
:101C00001088606FFFF7CAF902206066308B718B15
:101C1000401A81B234E0308B718B401A81B2708BE4
:101C200000289ED000299CD0EFF31080012686F377
:101C300010881668FF272137BE43166080F310888E
:101C4000EFF31080012282F31088226896687608EC
:101C50007600966080F3108820202860002020669F
:101C6000A066EFF3108000E00EE0012282F31088FE
:101C7000226815689D43156080F310880220606615
:101C80002046FFF7DAFEF8BD030606D50B0604D59D
:101C9000E16E002900D058E7F8BD4006FCD54806A3
:101CA000FAD52046EFF31081012383F310881468DE
:101CB00040239C43146081F310882021C1670021D8
:101CC000C16600F02BF9F8BD0F08000020010004E8
:101CD0007D22000810B5040003D0E06F002802D078
:101CE00007E0012010BD002178200155204600F0BA
:101CF00027F82420E067206801684908490001604E
:101D0000606A002802D0204600F0F0F9204600F07A
:101D1000BDFB0128E6D0206841680122D202914330
:101D200041602068816808229143816020680168D1
:101D3000012211430160204600F03EFA10BD000070
:101D400010B586B0044614216846FEF729FA1749F3
:101D50002068884227D116488269012189030A43F5
:101D6000826182690A4005924269C9000A43426160
:101D70004069084005900320400200900220019035
:101D8000002002900320039001200490092069465E
:101D9000C006FFF767F9002211461B20FFF7A0FAE3
:101DA0001B20FFF791FA06B010BD0000003801407B
:101DB0000010024070B580231B58202B01D0022058
:101DC00070BD00290BD0002A09D0012483682403A8
:101DD000A34206D10369002B03D1CB0701D0012018
:101DE00070BD00230366046863681B020BD5EFF324
:101DF0001083012585F3108825680126B606354332
:101E0000256083F3108800F0CFFB70BD10B511483A
:101E10008188FF2906D30021818080210E48FEF7AA
:101E2000BFF90FE00C4A83785354491C89B2818072
:101E300051182039CA7F0A2A04D1897F0D2901D17E
:101E400001210170034904480122891C8030FFF7F9
:101E5000B1FF10BD04000020980A0020FFB5044621
:101E6000C06F83B017460D46202802D0022007B06D
:101E7000F0BD002D0BD0002F09D00120A168000378
:101E8000814206D12069002803D1E80701D0012052
:101E9000EDE70021842001512120E067FFF7C0F920
:101EA000264640360190378277820120A1680003E0
:101EB000814202D12069002802D02F46002511E07E
:101EC00000270FE000228021204600F003FC0028BC
:101ED00015D1002F17D02168387808857F1C708AAB
:101EE000401E7082708A019B002806980090E9D1FC
:101EF00000224021204600F0EDFB00280AD02020DF
:101F0000E0670320B3E728882168C005C00D088575
:101F1000AD1CE4E72020E0670020A8E77047FEE75B
:101F20003EB500241649174800940194029412C04B
:101F3000046004224460C26001218160047444741E
:101F40008474C474FF22C232846142610246183232
:101F5000147101620838FEF7A7FE002801D0FEF7D1
:101F600015FE0120000301900004029000946946D0
:101F70000448FEF70DFE002801D0FEF707FE3EBD27
:101F800000240140C809002030B587B014216846FC
:101F9000FEF706F91B484269012189050A4342619F
:101FA00042690A400592426949110A434261406907
:101FB00009250840ED06059000225C212846FFF720
:101FC00028F9022000902120000400240190694695
:101FD00002942846FFF746F85C200090012001900B
:101FE00003200390029469462846FFF73BF800223D
:101FF00011460520FFF774F90520FFF765F907B0D2
:1020000030BD00000010024010B50C480A490160C4
:102010004B21C901416000218160C1600161816182
:10202000C1610C22016242614162FFF753FE002848
:1020300001D0FEF7ABFD10BD00380140180B0020A9
:10204000FEE77047704710B5FFF7F0F810BD70B5A8
:1020500094B030216846FEF7A3F8002401250F94C0
:1020600011200595109400900195102006900E9473
:1020700013940003099003200D9480040C9412948F
:1020800002260A90119408960B946846FFF75EFAB0
:10209000002801D072B6FEE707200C900E940121B3
:1020A0000D960F940CA8FFF793F9002801D072B693
:1020B000FEE710A810951294FFF716F9002801D03A
:1020C00072B6FEE714B070BD7047000010B502484C
:1020D000FFF71BFC10BD0000080A002010B50248E5
:1020E000FFF713FC10BD0000500A002010B5818CD2
:1020F000090707D501684A680123DB039A43436B4C
:102100001A434A60818CC90707D001684A680123D5
:102110005B049A43836A1A434A60818C890707D516
:1021200001684A6801231B049A43C36A1A434A6040
:10213000818C490707D501684A6801239B049A43AB
:10214000036B1A434A60818CC90607D502689168FF
:1021500001231B039943836B19439160818C89068A
:1021600007D501688A6801235B039A43C36B1A434E
:102170008A60818C490612D503685A6801210905D5
:10218000046C8A4322435A60026C8A4207D1026877
:10219000516803235B059943436C19435160818C5B
:1021A000090607D501684A680123DB04806C9A435D
:1021B00002434A6010BD0000FEB507460025803787
:1021C00004467D60FFF72CF80190206800682646E1
:1021D00000076036002819DA274800900121002204
:1021E00049052046019B00F075FA00280ED0EFF358
:1021F0001080012181F3108821680A6880239A43A6
:102200000A6080F310882020E06729E020680068D9
:10221000400728D518480090012100228905204652
:10222000019B00F057FA00281DD0EFF31080012128
:1022300081F3108821680A68FF2321339A430A60DA
:1022400080F31088EFF31080012181F3108821685A
:102250008A68520852008A6080F310882020386013
:1022600035760320FEBD2020E06738602566656670
:1022700035760020FEBD0000FFFFFF0110B5406A6B
:102280000022014640314A834A82FFF7D7FB10BD46
:1022900010B5EFF31081012282F3108802681368F1
:1022A000FF242134A343136081F31088EFF31081DE
:1022B000012282F31088026893685B085B009360D8
:1022C00081F31088016E01290BD1EFF310810122F7
:1022D00082F31088026813681024A343136081F30B
:1022E0001088202280210A5000210166816610BDDD
:1022F00070B501464031034680338C8B1D680268FF
:10230000222D04D0906908210843906170BD928C01
:10231000456D22402A80426D921C42654A8B521EB6
:102320004A834A8B002AF1D1EFF31082012484F30F
:10233000108804682568FF262136B543256082F39E
:102340001088EFF31082012484F310880468A568D4
:102350006D086D00A56082F3108820221A600023AA
:10236000836643660468626812020BD5EFF310823D
:10237000012585F3108825680126B606B54325603A
:1023800082F31088026E012A02D0FFF73FFD70BD74
:102390000366EFF31082012383F310880468256835
:1023A00010239D43256082F310880268D469E443BA
:1023B000E40600D41362098BFFF73FFB70BD70B5D4
:1023C00001464031034680338C8B1D680268222D04
:1023D00004D0906908210843906170BD928C22401E
:1023E000446D2270426D521C42654A8B521E4A83D4
:1023F0004A8B002AF1D1EFF31082012484F3108874
:1024000004682568FF262136B543256082F31088CD
:10241000EFF31082012484F310880468A5686D0826
:102420006D00A56082F3108820221A600023836665
:1024300043660468626812020BD5EFF3108201252F
:1024400085F3108825680126B606B543256082F31A
:102450001088026E012A02D0FFF7D8FC70BD036617
:10246000EFF31082012383F310880468256810239A
:102470009D43256082F310880268D469E443E40632
:1024800000D41362098BFFF7D8FA70BD70B504460B
:1024900080682169E26908436169002511430843A6
:1024A00021680A683C4B1A4002430A602168486868
:1024B000032212039043E26810434860A169206A36
:1024C000084321688A680B231B029A4302438A60EF
:1024D0003248006B8007800F16D0012818D00228E0
:1024E00018D0032812D010210122E369D2032C480E
:1024F0002C4E93422AD100290ED0022913D0042950
:102500000DD008293BD11FE00021EDE70221EBE7C8
:102510000421E9E70821E7E7FEF7DEFF01E0FEF727
:10252000EBFF002832D0616840004A088018FDF7B0
:10253000D9FD01461039B14221D81A49491C014040
:102540000007400F08431FE01046ECE7002906D0C3
:1025500002290BD0042905D0082910D111E0FEF77B
:10256000BBFF01E0FEF7C8FF00280FD061684A08F2
:102570001018FDF7B7FD01461039B14203D9012506
:1025800004E01046F2E780B22168C8600020A0662F
:10259000E066284670BD0000F369FFFF00100240AE
:1025A00000127A00EFFF000030B54165014640316E
:1025B0000A834A8300238366012285681203FF246D
:1025C000954204D10569002D2ED1204C2CE0002D20
:1025D00026D08B83014680314B6022230B60EFF3C2
:1025E0001081012383F3108803689C6801252C4324
:1025F0009C6081F310888168914202D101690029B1
:1026000014D0134981660169002911D0EFF31081BC
:10261000012282F3108800680268FF2321330FE053
:102620000569002D00D07F248C83D3E7094981669A
:10263000EFF31081012282F31088006802682023E2
:102640001A43026081F31088002030BDFF010000B2
:10265000BF230008F1220008F8B5184D287800289B
:102660001DD000242F46264608370CE020460C21BA
:1026700048433A5CC0194168114800F097FE0128B0
:102680000ED0641CE4B268788442EFD32E70AE8022
:1026900080210B48FDF784FD0AA000F06FF8F8BD1B
:1026A0000C204443E0198168054888472E70AE80AD
:1026B00080210348FDF774FDF8BD000004000020F0
:1026C000980A0020434F4D4D414E442C4552524FE5
:1026D00052000000FFB506468036054681B00F4621
:1026E0000446603534E00A98401C31D0FEF798FD6E
:1026F0000499411A0A98814218D8002816D02068F7
:102700000168490724D5802F22D0402F20D0C169ED
:10271000C94309070CD4082707622046FFF7B8FD14
:10272000776000202876012005B0F0BD0320FBE78C
:10273000C069C04300050BD401202168C0020862B3
:102740002046FFF7A5FD2020706000202876EDE7E9
:102750002068C1693846884305D00021039881422A
:10276000C1D00020E0E70121F8E7000010B50248E1
:10277000FFF766F910BD0000180B002010B501230B
:10278000027802E04A405B1CDBB2C15C0029F9D14F
:10279000014602A000F0C0F810BD00002425737CA3
:1027A00025787E000149012048707047EC00002028
:1027B00010B50BA000F0B0F812A000F0ADF817A013
:1027C00000F0AAF81AA000F0A7F81EA000F0A4F8E4
:1027D00021A000F0A1F826A000F09EF8012010BD75
:1027E000D2D4CFC2CAC7BFD8D6C6D6B8C1EEA3AC62
:1027F000C7EBB8F9BEDDD0E8C7F3B7A2CBCD210D4A
:102800000A000000C3BFCCF5D6B8C1EEC7EBD2D4E6
:102810005C725C6EBDE1CEB2210D0A006C61736525
:1028200072206F6EB4F2BFAABCA4B9E20D0A000018
:102830006C61736572206F6666B9D8B1D5BCA4B9F6
:10284000E20D0A0064697374616E6365BEE0C0EBFB
:10285000B2E9D1AF0D0A00006D6561737572652034
:102860007374617274BFAAC6F4B3A4B2E20D0A0015
:102870006D6561737572652073746F70B9D8B1D569
:10288000B3A4B2E20D0A000010B5092000224021D5
:10289000C006FEF7BEFC02A0FFF770FF012010BDCE
:1028A0004F46462C4F4B000010B509200122402115
:1028B000C006FEF7AEFC02A0FFF760FF012010BDCE
:1028C0004F4E2C4F4B00000010B504A0FFF756FFF1
:1028D00006490020C870012010BD00006D656173BD
:1028E0007572652073746F702C4F4B00EC000020E4
:1028F00010B503A0FFF742FF06490120C87010BDC4
:102900006D6561737572652073746172742C4F4BC1
:1029100000000000EC0000200FB410B503A9044B28
:10292000044A029800F038F910BC08BC04B01847FB
:1029300001330008680000200FB410B504A9074B4C
:1029400002AA039800F028F9044602A9002000F02A
:10295000C1FC204610BC08BC04B01847D5320008A2
:102960002021020C01D010211046020A01D010468D
:102970000839020901D01046091F820801D010460B
:10298000891E420801D0881E7047081A7047F8B5A2
:10299000040C8BB2264682B25E430D0C1046370CF7
:1029A0005843360480190021794116466E43370C8E
:1029B00036048019794126466E438919F8BD000016
:1029C0008307FF22DB0E9A408907090E99400028F1
:1029D00008DB830809489B001B18186890430843CC
:1029E000186070470007000F0838830804489B00F0
:1029F0001B18D86990430843D861704700E400E091
:102A000000ED00E002E008C8121F08C1002AFAD158
:102A100070477047002001E001C1121F002AFBD15E
:102A200070470000F0B51FB486B00998089A030DEE
:102A30000021024314D05148514A1818504305143C
:102A40001198012810981AD0281A401C00264D4FC2
:102A50004D49009601910490002812DA444211E099
:102A60001198012449A3012801D11098C143069867
:102A7000119A84600360C26041600BB0F0BD4042B7
:102A8000E4E70446210500203F4A001C5141039120
:102A9000029012E0E00707D032463B4601990098C9
:102AA000FDF734FD0191009032463B461046194631
:102AB000FDF72CFD06460F466410002CEAD1049861
:102AC000039B0028029A0999089806DAFDF71EFD73
:102AD000019B009AFDF71AFD05E0FDF77FFD019BC4
:102AE000009AFDF77BFD04460E460022284BFDF7B9
:102AF0000DFE03D80020C043014607E00022254B0D
:102B000020463146FDF74EFCFDF7E0FD102409E0BC
:102B1000002C0ADB0A220023FDF7FAFA079B303269
:102B20001A55641E02460A43F2D11122641C079B07
:102B3000121B1C19119B012B03D0012308430ED13A
:102B40000AE0084304D0112010900020119077E78C
:102B50001098151A6D1E0BE01098824202DD0023BA
:102B60006D1C03E0824201DA00236D1E002BEED0C3
:102B7000069811998260C16030C07EE701FCFFFFBA
:102B8000104D0000000014400000F03F3000000035
:102B90000000F0430000E03FFFB597B00646002577
:102BA0001BE2252876D100242746F749049400E04B
:102BB0000443761C32780120203A90400842F7D135
:102BC00030782A280ED0022230780146303909297F
:102BD00016D804990A235943303940181443761CF7
:102BE0000490F1E7189802C804911890002904DABB
:102BF0000120400304434842049002200443761C11
:102C000030782E2814D1042004437078761C2A28AA
:102C100009D11898761C80C8189009E00A214F4302
:102C2000303FC719761C3078014630390929F5D96B
:102C300030786C2810D006DC4C281AD068280ED0CA
:102C40006A2817D104E0742813D07A2812D110E032
:102C50000120400504430CE00121090501E00321A6
:102C600009050C437178814203D101200005241825
:102C7000761C761C307866280BD013DC58287DD063
:102C800009DC00287BD04528F6D04628F4D0472818
:102C90001AD1A9E118E0632835D0642870D06528DE
:102CA00012D1A1E170286CD008DC6728F1D0692826
:102CB0007DD06E280DD06F2806D1BCE073282ED0B1
:102CC000752873D0782859D01A9A199990476D1C95
:102CD00082E16002400F022809D003280DD00428A9
:102CE000189801680DD00D60001D189074E11898B7
:102CF000EA1701680D604A60F6E7189801680D80D0
:102D0000F2E70D70F0E718986A4601781172001D1D
:102D100018900020507202A80090012005E0189839
:102D200002C8189000200091C04361070ED5002111
:102D300001E00199491C0191B94213DA8142F8DBA3
:102D4000019A0099895C0029F3D10BE0002101E090
:102D50000199491C01918142FADB019A0099895C31
:102D60000029F5D1019904981A9B471A2146384643
:102D7000199A00F099FA4019019903E051E030E105
:102D800015E050E0451807E0009800990078491CCC
:102D900000911A9A199990470198401E0190401C81
:102DA000F2D1214638461A9B199A12E137E00A20DF
:102DB0000021009001916002410F022907D0189A6A
:102DC00001CA1892C2179446032908D00AE018983D
:102DD000C01DC108C90005C91891944607E000B29A
:102DE000C2179446042902D140B2C1178C46002272
:102DF0006146944506DA0A460021404291418C46DC
:102E00002D2102E0210504D52B216A4611730121F1
:102E100003E0E10701D02021F7E7029156E00A2004
:102E20000AE0102008E01020009000210420044354
:102E30000191082703E00820002101910090600221
:102E4000410F022907D0189A01CA1892002294460D
:102E5000032908D008E01898C01DC108C90005C999
:102E60001891944603E080B2042900D1C0B2002139
:102E7000029121072AD531780D91702906D0009A48
:102E80001021019B4A401A4305D00EE040216A46BA
:102E90001173012108E06146014306D030216A46E2
:102EA00011730D99517302210291009A0821019B1F
:102EB0004A401A430AD16146014301D1610705D551
:102EC00030216A46117301217F1E02913178582901
:102ED00004D02EA10E910DA90D910DE030A1F9E7BE
:102EE0006146019B009AFDF713F90E9B8C469B5C93
:102EF0000D9A521E0D92137061460143F0D10D9848
:102F000005A9081A20300190600703D501200004AC
:102F1000844300E001270198874201DD381A00E070
:102F20000020019900904118029809180498401A4D
:102F30000490E00306D421461A9B199A049800F0E5
:102F4000B3F94519002706E003A81A9AC05D19993C
:102F500090476D1C7F1C02988742F5DBE0030CD57F
:102F600021461A9B199A049800F09EF9451904E02D
:102F70001A9A3020199990476D1C0099481E0090AC
:102F80000029F5DC1FE00000092801003031323350
:102F90003435363738396162636465660000000095
:102FA000303132333435363738394142434445467F
:102FB000000000000D980D990078491C0D911A9A97
:102FC000199990476D1C0199481E01900029F1DC68
:102FD0004DE100F059F94519761C3078002800D0F1
:102FE000DFE528461BB0F0BD600700D4062718981F
:102FF000C01DC108C90048680A680831C30FDB0753
:103000001891190001D09CA108E0210501D59BA1D0
:1030100004E0E10701D09AA100E09AA143001091D9
:1030200030785B0865280CD006DC452809D0462896
:103030001DD0472841D141E0662818D067283CD1EF
:103040003CE00021112F01DB112000E0781C0191F0
:10305000009008A911A8FFF7E5FC1399059100213C
:10306000119A15927F1C12980197009150E001204F
:10307000C00703900120019008A9009711A8FFF74D
:10308000D1FC139A149905920022119B0092129878
:103090001593059A0192002901D0104602E0791C8F
:1030A00040180190381A01D5019804E04042401EB2
:1030B0000090781C0190C01B029043E0012F00DAC1
:1030C00001270021112F01DD112000E03846019178
:1030D000009008A911A8FFF7A5FC13990591119A72
:1030E0000021129815920091019721070CD405999F
:1030F000B94201DB019900E00191012904DD159A33
:10310000491E515C302906D0B84201DA011D05DAAA
:103110000121029115E00199491EEDE7002805DC27
:103120000099411800910199091A03E0019A411C84
:10313000914200DD01910099401A401C029001204B
:10314000C0070390200706D402990198814202DB50
:103150000020C043029000206946C87707AF0121D4
:1031600003980337C907884224D0022011902B20EE
:103170001290039800280CDA404203902D20129000
:1031800007E00A210398FCF7ADFF30317F1E039062
:1031900039701199481E11900029F2DC039800281B
:1031A000EFD1791E12980870307820210840453000
:1031B000BF1E387006A8C01BC01D03901098007871
:1031C000002800D00120019941180298C017091861
:1031D000039809180498401A401E0490E00306D48E
:1031E00021461A9B199A049800F05EF84519109828
:1031F0000078002803D01A9A199990476D1CE003B3
:1032000024D521461A9B199A049800F04DF84519C7
:103210001CE00098002807DB00990598884203DD30
:103220001598405C199901E0199930201A9A904735
:1032300000986D1C401C00900298401E02900028CF
:1032400004D11A9A2E20199990476D1C0199481E95
:1032500001900029DDDC05E038781A9A7F1C199965
:1032600090476D1C0399481E03900029F4DC214609
:103270001A9B199A0498ACE62D0000002B00000060
:103280002000000000000000F8B5044600251E469E
:103290001746880404D405E039462020B0476D1C49
:1032A000641EF9D52846F8BDFFB50446002581B057
:1032B0001E46C80301D5302700E02027880404D526
:1032C00005E038460399B0476D1C641EF9D52846C1
:1032D00005B0F0BD0A68531C0B6010707047000009
:1032E00010B50648FDF72CFE01210448FDF7C4FD8A
:1032F0000248FDF7D5FC80B210BD0000C8090020CF
:1033000013B5054C0122234669460448FEF7A6FD85
:103310000028F7D11CBD0000FFFF0000180B0020A3
:10332000FDF78CFFFEF793FEFEF72EFEFEF7F8FD8D
:10333000FEF76AFE6420FDF775FE01220C490D4878
:10334000FEF738FD0CA0FFF7E7FA09200122402123
:10335000C006FDF75EFF144CFFF77EF96078002889
:1033600002D1E0780028F7D0FDF7D6FBF4E70000A3
:1033700006000020180B00203D3D3D3D3D3D3D3DFC
:103380003D3D206333373820546573742053746196
:1033900072742066616E203D3D3D3D3D3D3D3D3DAD
:1033A0003D0D0A0D0A000000EC00002070B501245C
:1033B0000D460646002A00D00846FCF7FCFEC0B2C7
:1033C000002206E0B15CAB5C994200D00024521CA4
:1033D000D2B28242F6D360B270BD02030405060782
:1033E00008090A0B0C0D0E0F10100102030405064C
:1033F0000708090A0B0C0D0E0F100000000000005A
:103400000000010203040607080900000000010291
:103410000304000064697374616E63650D0A000043
:103420006C61736572206F66660D0A006C6173656E
:1034300072206F6E0D0A000068656C700D0A000046
:103440006D6561737572652073746F700D0A00008D
:103450006D6561737572652073746172740D0A0015
:1034600080340008000000206C000000042A0008DE
:10347000EC3400086C000020340F0000142A00080F
:103480000000000000060000000000000000000036
:1034900038340008B1270008000000002C34000870
:1034A000A92800080000000020340008892800082E
:1034B0000000000014340008A527000800000000E8
:1034C00050340008F12800080000000040340008D3
:1034D000C9280008FFFF00000100000004000000F0
:0C34E0000000000000127A000000000054
:04000005080000B13E
:00000001FF
