:020000040800F2
:1030000000170020E1300008DD3F0008BB3F00084A
:1030100000000000000000000000000000000000B0
:1030200000000000000000000000000093400008C5
:1030300000000000000000009140000895400008DA
:10304000F3300008F3300008F3300008F3300008D4
:10305000F3300008753E0008F3300008F330000834
:1030600000000000F3300008F3300008F3300008DF
:10307000F3300008F3300008F330000800000000CF
:10308000F3300008F330000800000000CD410008D4
:10309000F3300008F3300008F3300008F330000884
:1030A000F3300008F3300008F33000087D430008D7
:1030B000F3300008000000000000000000000000E5
:1030C000F330000800000000F33000080348854694
:1030D00000F07CFB004800472D530008001700203B
:1030E0000448804704480047FEE7FEE7FEE7FEE7A6
:1030F000FEE7FEE799400008CD30000803460B4389
:103100009B0703D009E008C9121F08C0042AFAD29D
:1031100003E00B780370401C491C521EF9D2704723
:10312000D2B201E00270401C491EFBD2704700225F
:10313000F6E710B513460A4604461946FFF7F0FFB6
:10314000204610BDCAB2401E4178401C8A4202D0BF
:103150000029F9D100207047421C0178401C002949
:10316000FBD1801A704770B5064602F003FF046871
:1031700005460A220021304600F0F2F82C6070BDAE
:10318000F0B51FB488B00B990998002448400999FC
:10319000C00F490049080991C0070B9900904900E8
:1031A00049080B9109990898A64608431CD00B9929
:1031B0000A98084318D0099801244000420D48009D
:1031C000410D099824050003000B204309900B983A
:1031D0000003000B20430B9050181C49401800229C
:1031E00001901446104605E0002001460DB0F0BDE8
:1031F000032801DA034600E003239C46C11A0AAE05
:103200000AE05F0008ADED5B4F00F75B7D430027F0
:10321000AA187C41491C5B1E6145F2DD410004ABEC
:103220005A522104120C0A43240C401C0828DFDBEC
:10323000019802900099704601910090059B049AB4
:103240000799069800F012F9D0E700000DFCFFFF87
:103250000122D207002800DB101A002900DB511AD6
:10326000814201D8012070470020704710B500222C
:103270009623114600F0B4F810BD00000EB5C21739
:10328000C10F5040CA0740180021054B029301921C
:1032900000910A460B4600F0E9F803B000BD0000BB
:1032A00033040000C20F410040020123400ADB0545
:1032B000D207090EC0187F2901DA0020704796292D
:1032C00003DC9623591AC84001E096398840002A49
:1032D000F4D040427047C20FD207400040080BD0E4
:1032E000C10D0723DB01C91840020905400A11433B
:1032F000C208400711437047002001467047F0B5EF
:103300001FB40646002082B005464024019100907B
:103310001BE0019922460F46304600F098FA049AC5
:10332000059B801A994110D310461946224600F099
:103330007EFA361A8F410197224601200021009F14
:1033400000F075FA38184D4100902046641E0028A0
:10335000DFDC019B00982946324607B0F0BD000033
:10336000F7B5009C0F4600262578641C002D05D07B
:1033700000F092FA0068405DC007F5D12B2D02D015
:103380002D2D18D0641E39462046029A00F088FA86
:10339000002F04D03968A14201D10099396071052C
:1033A000022400290BDA4042002803DD02F0E2FD8E
:1033B0000460A007FEBD012080020643E3E7002869
:1033C000F8DA02F0D7FD04600048FEBDFFFFFF7F82
:1033D000002904DA401C490001D140084000704730
:1033E00070B40024050C05D11024000402D100297A
:1033F00021D01124050E01D100020834050F01D19E
:103400000001241D850F01D18000A41C002801DBD0
:103410004000641C002908D020252E1B0D46F540D5
:10342000A14000D001212943084301061B1B000ACB
:10343000DB1D02D5002070BC7047DB051818801812
:103440000029F8DA401C4900F5D170BC4008400062
:10345000704710B5002B08DA0024401C6141921817
:103460005B411A4301D14008400010BDF0B51FB4C4
:1034700082B005460C0003D0084602F063FD02E06E
:1034800002F060FD2030024600902146284600F000
:10349000CEF9049B059A04460F461843114308438E
:1034A00014D0184610431BD0009840210A1A184621
:1034B000059900F0CCF905460E46009A0599049846
:1034C00000F0B5F9084305D0012004E02046394654
:1034D00007B0F0BD0020C11705430E432C4337430E
:1034E00000990E986305401A7905E40A00220C43FE
:1034F000FD0A0A3002D500200146E9E7010510194E
:1035000069410C9C0D9D00196941FFF7A2FFDFE79F
:10351000F0B507460846584087B0C00F04904800F1
:103520000E46590040084908BC1A884105D2384661
:1035300031461E4617460B460246580040081043C7
:103540004CD0300D039040055900400D490D0590B9
:10355000401A0290402872DA18030121000B090575
:103560000843019004980092002805D00199524226
:103570000020884100920190029840210A1A019986
:10358000009800F054F905460C466B4607CB00F056
:103590006FF9C0197141039A0E0D0023D7175640D9
:1035A0001A467A40164344D0049A002A2DD0029A33
:1035B000012A039A15DC1205C01A9141012636052D
:1035C000001C7141D20F059ED20700930192029612
:1035D0002A462346FFF74AFF07B0F0BD384631467A
:1035E000FAE71605224A0F46B218C01AB741012160
:1035F0000905001C4F4100187F41114618187941F8
:10360000E20F10436D19644113E0E2076D081543A2
:103610006408C2071443039A01261205C01A914197
:103620003605001C7141CE07400830434908C018D8
:1036300051412A462346FFF70CFFCDE7FFE70498E8
:1036400001224000C117121A00238B410498314611
:10365000C417381AA141EEE730B40124E4076340EF
:1036600030BC55E730B40124E407614030BC4FE77B
:103670000000E0FFF0B50C465C4085B0E40FE407C5
:1036800003944C00002664085900944649080246F9
:103690000296224321D062460A431ED06200570D93
:1036A0004A000E032303550D012402462C4924052C
:1036B000781B1B0B360B40182343264361460090B2
:1036C0001C46501AB44103D30098401C009002E0FD
:1036D000921800985B41002803DA0020014605B0EB
:1036E000F0BD0020012109050746864611E0644629
:1036F0001D46141BB54106D36546521BB3417446A3
:1037000007430C43A646CD074008490828439218B2
:103710005B4105460D43EAD11046184313D060467D
:10372000194650407140084306D06046101AB34114
:1037300006D20122002306E000220123DB0702E07B
:103740000122D2435310009874460105381C614190
:10375000029C039D00196941FFF77BFEBFE7000053
:10376000FD0300004A0009030123090B1B0519434F
:103770000A4B10B5520D9A4202DA0020014610BDE4
:10378000064B34339A4203DC9A1A00F060F810BDFD
:10379000034BD21800F04BF810BD0000FF030000EF
:1037A000CDFBFFFF10B5002904DB0124E4074042F4
:1037B0008C412146002B04DB1C460123DB075242CF
:1037C000A341994200D1904210BD0000064C012552
:1037D000064E05E0E36807CC2B430C3C98471034B9
:1037E000B442F7D3FFF776FC346B0008546B000843
:1037F00070B50446002903D000202022012310E0E8
:10380000002801D00020C043C046C0460DE0254638
:10381000D5408D4205D30D469540641B1D4695400D
:1038200040191546521E002DF1DC214670BD10B521
:10383000202A04DB0146203A9140002010BD91402F
:1038400020239C1A0346E3401943904010BD10B555
:10385000202A04DB0846203AD040002110BD0B4648
:10386000D340D0402024A21A91400843194610BDED
:1038700010B5202A06DBCB170846203A1041C117A5
:103880000B4306E00B461341D0402024A21A91407E
:103890000843194610BD000000487047F86800084A
:1038A000F7B582B0029C00272078641C154601976A
:1038B000302802D0002D15D015E020780127641C97
:1038C000782804D0582802D0002D09D00BE0002D14
:1038D00001D0102D07D1002710252078641C02E0AC
:1038E000082500E00A250026009610E0009901272F
:1038F00069430818020C294680B2714300908E1863
:103900003804864201D3012001902078641C2946A6
:1039100000F019F80028E9DA0398002805D0002FF4
:1039200001D0641E00E0029C04600198002806D0CB
:1039300002F020FB02210160C81E05B0F0BD009915
:1039400030040843F9E73A2800D2303820230246F1
:103950009A43412A01D310463738884201D30020C8
:10396000C043704770B58C180578401C6B075B0F1F
:1039700001D10378401C2A1106D10278401C03E0D3
:1039800006780E70401C491C5B1EF9D12B0705D42C
:103990000023521E0DD40B70491CFAE70378401C1B
:1039A000CB1A921C03E01D780D70491C5B1C521E43
:1039B000F9D5A142D8D3002070BD0000B0B588B0C1
:1039C000324801F09DFE40F2005440F2005001F0F8
:1039D00097FE1134204601F093FE062001F068FDA9
:1039E0000920C0060321002501242A46234601F0B0
:1039F00058FC284601F008FA01A90D838D76244869
:103A000001902448039040F20040049040F20010DE
:103A1000029042F2000006900594284601F00CFA4C
:103A2000284601F0E9F9284601F03EFA284601F05F
:103A3000DBF901F051F840F20010214601F02AF9BB
:103A400001F058F8284601F03BF8284601F002F949
:103A50002046214601F014F8284629462A4601F05E
:103A6000ADF807204104204601F07AF820462146AF
:103A700001F052F801F046F8204601F0A1F900F0FB
:103A8000EFFF204601F0F0F808B0B0BD09060000D5
:103A90004C24014048110020F0B595B08D480078C5
:103AA000022800D0D5E000228B480F9002268B4CD4
:103AB0008C480E92119206900792139208920592EA
:103AC00009921146129216E011980A994018119025
:103AD000A41C804800780C9081480B998142109872
:103AE0000F9014980E9010460896099337460D9E35
:103AF00012960C9E7BD00C90022E0F460AD17A486B
:103B00000078012806D1780074490818418977A007
:103B100002F0F4F9780071490A31085A7D1C6A00F4
:103B2000895A1490091A0422D343002299420B9512
:103B300001D80A9201E001200A900A211346655A31
:103B400052196018C825405B1B18891CD229F6D170
:103B500014980F998142064600D80E46D21A0E9943
:103B6000814200D308461490079B934210960BDACB
:103B7000139880B2312807D840F2F410824203DD56
:103B80000F97059707920BE0934201DC002100E0BC
:103B90000121581E83410B401398C01813900F97B2
:103BA0000126002112989042334600DB0B4640F27A
:103BB000F4108242374600DC0F46139880B2312859
:103BC00000D80E4637403B400F990E460C9800D166
:103BD000089E002B134600D1129B0D93904200DCEF
:103BE00009990B46904200DD6EE702466CE7022E13
:103BF000059C1E4611D13C48007801280DD1119832
:103C000080B2B1B20D9B0093019102920390A1B2D8
:103C1000BBB23848079A02F071F914981099401A0B
:103C200040F2F411C839884215DA2A4C207802286B
:103C300009D12D490978012905D131A01499109A8B
:103C400002F05CF920788000244908182A493B4A90
:103C5000425015B0F0BDB1B2B8B2884200D8274684
:103C6000A0B21191884200D32746B8B214901948E7
:103C700000788000194F38181F4940181090002410
:103C80000A201290139404E0BF1C641C1448844260
:103C9000DFD0129A13990846BB5AC018BB185B5B59
:103CA000C918921CD22AF7D1149A9442ECD2119AD4
:103CB0009442E9D9401AC11746184E400698B042BE
:103CC000E2DD0E480480A0B2FFF7D0FA1099086038
:103CD0000696D9E764110020FFFF0000F8000020DD
:103CE00006070000FFFFFF7F7212002025640D0A07
:103CF00000000000DB6A00080C1000006E110020BC
:103D00006164635F6D61783D256420206164635F59
:103D10006D696E3D2564205468652064696666653A
:103D200072656E6365206973206C657373207468B7
:103D3000616E203330300D0A00000000000080BFAB
:103D400070B51748174E3458002520462946FFF70E
:103D50007FFAD0B9F08870B12046FFF7A3FA18496E
:103D6000C8603081091D1748062200F0DBF816A054
:103D700002F070FDF5802046FFF7ADFA02460B46D3
:103D8000094815A102F0CAF804E0074807A111226A
:103D9000FFF7B4F9044870BC02BC8E4600F0A2BB29
:103DA00014100000F8000020701100204449535402
:103DB000414E43452C4552524F522C3000000000DA
:103DC0002411002000FC0008736574206F7269677D
:103DD000696E206F6B0D000044495354414E4345BA
:103DE0002C4F4B2C252E32660000000070B500F0E1
:103DF000EBF841F22000784C205CA0B31A4D2878F3
:103E000004281CD3FFF79CFF20460A3041F2000132
:103E1000FFF78DF915480026265020184660866069
:103E2000C6600661124806702E70207908B900F04D
:103E3000C5F80A2000F0C4FF667066800FE0FFF747
:103E40002BFE20460A3041F20001FFF770F90020F6
:103E5000E0702878401C2870052000F0B1FF41F286
:103E600020000021215470BD641100200C100000BE
:103E70007212002080B5022001F0B6F840B1564819
:103E8000C178022904D0054900220A800121C170AD
:103E9000022080BC02BC8E4601F0A2B86611002050
:103EA00080B572B60120C0064168054A1160054A16
:103EB0001160006880F3088810688047002080BD8A
:103EC0004C11002050110020B0B5044601F0D4F888
:103ED0003C25284601F092F8204601F09BF8284640
:103EE00001F08CF8B0BC01BC864601F08BB80968C3
:103EF00001600020704770B50C46054601F0BCF823
:103F0000204601F087F83C26304601F077F820463D
:103F1000294601F0C1F8304601F070F801F072F85E
:103F2000002070BDF0B581B014460D46064601F084
:103F3000A3F83C27384601F061F80C4801F06AF814
:103F4000384601F05BF85CB13C2702CD304601F009
:103F5000A3F8384601F052F8641E361D002CF4D147
:103F600001F050F8002001B0F0BDC04600FC000890
:103F700010B5012000F078FE0224204600F00AFE71
:103F80000028FAD0022000F0FFFD00F05DFE10BD19
:103F900010B510210020024600F010FE012000F0B4
:103FA00063FE0224204600F0F5FD0028FAD002202E
:103FB00000F0EAFD00F048FE10BDFEE731480021A8
:103FC0000A4601F015BEC046B24800780A224243B4
:103FD0002C48002101F00CBEF800002070470000C2
:103FE000F0B587B0254801F08BFB0920C6060221F9
:103FF00000244027304622463B4601F052F9032276
:10400000304621463B4601F06DF9012530462946F0
:104010003A4601F087F81A4801F072FB194E304613
:1040200001F0ECFD69460C731748029047200090A0
:104030000194304601F028FE304629462A4601F018
:104040008CFE304601F01BFE059406940F48049048
:1040500004AA3046214601F089FC3046214622461A
:1040600001F0C6FD60223046214601F093FD304646
:10407000294601F07AFE07B0F0BDC04611050000E8
:104080000107000000040040E703000001000100F8
:104090007047704700F09EBEF0B481B04348021FE5
:1040A000136801210B43136013689B07FCD5036859
:1040B00080241C43046000240094009B7F2B05D8BF
:1040C000009B5B1C0093009B802BF9D30368902519
:1040D0001D4305600094009B7F2B05D8009B5B1C53
:1040E0000093009B802BF9D30323DD4306682E4009
:1040F000066015682E4E2E40166005682D4E2E4027
:10410000066005682C4E2E400660856A0F26B54372
:104110008562C56A40F20316B543C5620D04C66ADE
:10412000AE43C662CD07C66AAE43C662056B8D4319
:104130000563446014680C431460204D0224166823
:104140006F1EAF4202D226403D46F8D01568AD073B
:1041500000D4FEE71A4D2E6826430527BE432E6085
:104160000568056005680560056805600568154E09
:104170002E4006600568144E2E4306600D06166834
:104180002E4316601568AD01FCD502689A430260A3
:104190000268224302600C2203681340082BFBD103
:1041A000C806002101B0F0BC01F076B9041002404D
:1041B000FFFFF2FE0C00FF08FFFFC277FF040000C4
:1041C00000200240FFFFC2F700000408F0B581B0F4
:1041D000E84D0121284601F0B6FD012857D1012400
:1041E0002846214601F0ACFDE14FB878397901430A
:1041F0004DD041F22000385C002848D1264E30884E
:104200000921CD0625490978B9B1022804D308212E
:104210000022284601F004F81021002628463246E4
:1042200000F0FEFF00F0C0FC1D4908801B4806702E
:10423000194E3088411C31800DE020B9082101223F
:10424000284600F0EDFF10212846224600F0E8FF46
:104250001248047031881348CA070DD1FA785AB150
:104260000288D30A08D10223FB70531C038052003A
:10427000BA180B4B1B88538189B20B4A914206D363
:1042800041F220017C54002101803180F97001B09D
:10429000F0BDC046F80000205E1100206011002033
:1042A000621100206C110020C4090000F0B585B037
:1042B0002948007800283FD028480078029058B359
:1042C00000260C200390274D0120009037460398CC
:1042D0007843234A115C101801904468284601B1C4
:1042E0002046FEF739FFC0B240B304973346009929
:1042F000324603E0521CD3B2984205D9E75CEB5C2E
:10430000BB42F7D03146F5E7C8B20128049F15D06B
:104310007F1C02988742DAD100200F4908701148AB
:104320008021FEF704FF104810A1332205B0F0BC35
:1043300008BC9E4601F0E2BD05B0F0BD0198816861
:10434000084C2046884700200349087080212046F9
:10435000FEF7EDFE05B0F0BD5C110020201100203D
:1043600008000020F0110020D36A0008434F4D4D93
:10437000414E442C4552524F52000000B0B5584CAB
:104380001949204601F073FD90B1204601F02AFD45
:1043900016490A88164B98540888185C0A2804D1D4
:1043A000144801220270002001E00888401C0880A7
:1043B0001149204601F05BFDA0B1104D2878411C49
:1043C00029700F49095C204601F010FD0D48007866
:1043D0002978814206D107212046B0BC04BC96460C
:1043E00001F033BDB0BDC0460500050770120020C6
:1043F000F01100205C11002007000707F8120020D0
:104400007812002040110020F0B581B01A4801F068
:1044100077F90920C50601242846214640F20022EA
:1044200000F080FE2846214640F2004200F07AFE6D
:10443000022628463146224640F2002300F031FF92
:10444000002728463946224640F2002300F04AFF62
:1044500028463146224640F2004300F022FF28461B
:104460003946224640F2004301B0049CA646F0BC07
:1044700001B000F037BFC04611050000B0B51748C5
:1044800001F03EF9164C204601F0B6FC002520460E
:10449000294601F025FD2046294601F00CFD204665
:1044A000294601F0F3FC204642F2805101F072FCF3
:1044B0000421204601F0F7FC0821204601F008FD08
:1044C0000521204601F0CAFC1B20294600F0B0FF60
:1044D0002046B0BC02BC8E4601F0AABC0E0600000D
:1044E00000380140014640780A7830B1012342404B
:1044F0005B1CD8B2085C0028F9D1D04801F0FEBCA2
:1045000010B5FFF735FD04460CA001F0F7FCA2B290
:104510000B4C0CA1204601F001FD6078227830B1EF
:1045200001214240491CC8B2205C0028F9D1C3488F
:10453000034901F0E3FC012010BDC0466164630043
:10454000701100204144433D25642C4F4B00000076
:1045500010B5E34C20780A224243C348002101F001
:1045600047FBD04801F08BFB0120A07010BDC04676
:10457000F80000200020004080B50449FFF7B7FC98
:1045800003A001F0BBFC012080BDC04608FC000870
:104590004F524947494E3D25640D0A0080B501F050
:1045A000CFF8024602A00B4601F0A8FC012080BD16
:1045B00025302E346C660000B0B5084D28780A22EC
:1045C00042430748002101F013FB0124AC70054869
:1045D000047005A002F03EF92046B0BDF8000020AE
:1045E00000040040541100206C6173657220696EF4
:1045F00069742073746172740D000000B0B5094CC9
:104600000025204629462A4601F0F2FA204629468E
:104610002A4601F0EDFA044804A1672201F06EFC7D
:104620000120B0BD00040040D36A00084F46462C6C
:104630004F4B000080B5074800780A2242430648E5
:10464000002101F0D5FA054805A1292201F056FC08
:10465000012080BDF800002000040040D36A00085B
:104660004F4E2C4F4B00000010B509480024214646
:10467000224601F0BDFA074801F0FCFA064807A1FE
:10468000682201F03BFCE6480471012010BDC046E1
:104690000004004000200040D36A00086D6561738B
:1046A0007572652073746F702C4F4B0010B5094CF8
:1046B00020780A2242430848002101F099FA07486D
:1046C00001F0DDFA064807A1102201F017FC0120D5
:1046D000207110BDF80000200004004000200040C0
:1046E000D36A00086D6561737572652073746172B9
:1046F000742C4F4B00000000B0B50C4C0021216021
:104700006821FEF71FFD0A4D38B1401CFEF72BFD56
:1047100020608000C1B2294300E02946FFF7E7FB93
:1047200004A001F0EBFB0120B0BDC04674120020D4
:1047300000FC0008666D633D2578000080B50449E3
:10474000FFF7D5FB03A001F0D9FB012080BDC046D7
:104750000CFC000870776D3D25640D0A0000000018
:10476000B0B50C4D00242C603D21FEF7EBFC30B1C0
:10477000401CFEF7F8FC04462860401E84410920D6
:10478000C0060421224600F04BFD03A002F062F8AF
:104790000120B0BD741200204F4B0D0010B5A04C8D
:1047A00020780A2242433048002101F021FA0120FA
:1047B000E080A07010BDC046B0B5174D00242C603D
:1047C0003D21FEF7BFFC38B1401CFEF7CCFC04468F
:1047D000642800DB64242C6010480470E0B21049A7
:1047E0000861091D0F480622FFF79CFB2A680E4C42
:1047F0000EA1204601F092FB6078227830B10121B1
:104800004240491CC8B2205C0028F9D10B48064937
:1048100001F074FB0120B0BD74120020F8000020EC
:104820002411002000FC0008701100207365742022
:1048300070776D3D25642C4F4B000000D36A000853
:10484000B0B5084801240470754D28780A22424307
:104850000548002101F0CCF9124801F010FAAC70C3
:104860002046B0BD721200200004004080B5FFF762
:104870008FFB81B202A001F041FB012080BDC04648
:1048800074656D70203D2025640D0A0080B50548D3
:1048900001F0F0F92048FFF717FBFFF701FB0120BB
:1048A00080BDC04600200040B0B51A4D00242C60E9
:1048B0003D21FEF747FC20B1401CFEF754FC0446A6
:1048C000286057480470E0B206490861091D124883
:1048D0000622FFF727FB114801F0BCFF0120B0BD05
:1048E000F800002024110020B0B50A4D00242C60EF
:1048F0003D21FEF727FC20B1401CFEF734FC0446A6
:10490000286005492046FFF7F6FA044801F0A2FFA7
:104910000120B0BD7412002000FC0008FE690008F0
:1049200010B51D4801F096FF1C4801F093FF1C488C
:1049300001F090FF1B4801F08DFF1B4801F08AFF3A
:104940001A4801F087FF1A4801F084FF194801F066
:1049500081FF194801F07EFF184801F07BFF1848DD
:1049600001F078FF17A001F075FF1BA001F072FFA6
:104970001EA001F06FFF24A001F06CFF284C2189DC
:1049800028A001F0BBFA21782BA001F0B7FA2FA0E4
:1049900001F060FF012010BDE7690008C66900084A
:1049A000AF6900086B6A00087D6A00082C6A00087D
:1049B000546A00083E6A0008176A0008026A000884
:1049C000906A00086765746F726967696EB6C1C8DE
:1049D000A1D4ADB5E30D000073686F7720776176E1
:1049E00065B6C1C8A1B2A8D0CE0D00006C617365D8
:1049F0007220696E6974BCA4B9E270776DD7D4B6C1
:104A0000AFB5F7BDDA0D000061707020757064619C
:104A10007461BDF8C8EBB9CCBCFEC9FDBCB60D00D5
:104A2000F8000020666C617368206F726967696EB8
:104A3000203D2025640D0A00666C61736820707744
:104A40006D203D2025640D0A00000000676574207C
:104A500074656D70BBF1C8A1CEC2B6C80D00000070
:104A60008B48016808220A43026001680907FCD4E8
:104A7000016804220A43026001684907FCD47047B8
:104A800002280ED0012818D10F2000050B4A136808
:104A9000834313600905091801401068084310603A
:104AA000704703200005054AD3688343D360090596
:104AB00009180140D0680843D06070472C24014099
:104AC000411E8841C00272490A6840F600039A43B9
:104AD000101808607047C04610B5054C204600F01D
:104AE00023FE204610BC02BC8E4600F013BEC0461A
:104AF000090300006648016840F200120A430260A0
:104B00007047C04662480168C90703D101680122A5
:104B10000A4302607047C04601220346134021B198
:104B20005B4983B9800714D4704759491BB11205FA
:104B30000B6893430B608007F6D5086848F20002C3
:104B400090430860704712050B6813430B608007A1
:104B5000EAD5086848F2000202430A607047C0467E
:104B6000012803D0022809D1064800E00448484A39
:104B70001368034013601068084310607047C04614
:104B8000FFFFF1FFFF8FFFFF06490A6882430A60BB
:104B90007047C046034909680140481E81410846E4
:104BA0007047C0460024014080B5012000F05CF849
:104BB0000148008880BDC04648110020B0B5214B97
:104BC00005280AD8052444430846A0401F25A540CF
:104BD0009C6AAC4304439C621AE00B280BD8052462
:104BE00044431E3C0846A0401F25A5405C6AAC43D8
:104BF00004435C620CE010280AD2052444433C3C88
:104C00000846A0401F25A5401C6AAC4304431C6213
:104C1000092909D803204843824007218140586868
:104C2000884310435860B0BD122909D80320484377
:104C30001E3882400721814018688843104318605D
:104C4000B0BDC0460C2401400148006880B27047E6
:104C50004C240140032109062A4A13688B43136040
:104C60001168014311607047C107094902D18007EB
:104C700007D47047012292050B6813430B6080072D
:104C8000F7D5012040050A6802430A607047C04614
:104C90000824014040F200120346134031B1194983
:104CA0005BB942050ED4800713D470471549ABB9E0
:104CB00042051AD48007F8D51EE00B6813430B6039
:104CC0004205F0D540F200420B6813430B608007A9
:104CD000EBD54868022202434A6070470A6840F2F6
:104CE00000139A430A604205E4D50A6840F2004383
:104CF0009A430A608007D8D54868022290434860EA
:104D00007047C04604240140F0B587B0002101205F
:104D10000490022503200290052001907F20C043CB
:104D20000090069103910846049F039C04E00691BD
:104D30000599481C072939D205908C4800F0E0FC01
:104D40008B4E3046394622462B4600F0AAFA3046B2
:104D50002146029A2B4600F0C5FA304629462246E3
:104D600000F05EFA384600F025F8304629463A460B
:104D700000F056FA384600F01DF87C4800F0C0FC00
:104D80003046214622462B4600F08BFA3046294613
:104D900000F082FA0646019800F00CF8069800062A
:104DA000410E012EC3D100980918C0E70698C0B281
:104DB00007B0F0BD0B49086008680028FCD17047B7
:104DC00038B1084964220A600B68002BFCD1401EF0
:104DD000F9D170470348016811B10168491E0160AB
:104DE0007047C046681100201421414333480A58D7
:104DF000012313430B507047142141432F480A5895
:104E0000202313430B50704710B514224243094925
:104E1000521853680124A3435360002353609360E6
:104E2000D360136180000F2282400868104308603D
:104E300010BDC04604000240B0B5142242431F48D2
:104E400013580124A343135013180C689C608C68FA
:104E5000DC600C8A5C60135843F60074A3434C6812
:104E60001C43CB6823434C691C4314500B7E5B1ED0
:104E70005C425C41A30114584025AC43E318135035
:104E80004B7E5B1E5C425C41E30114588025AC43C1
:104E9000E3181350897E4B1E9941090113581024C1
:104EA000A34359181150B0BD1421414303480A5877
:104EB00044F200039A430A507047C046080002407B
:104EC00070B52A4C204600F01BFCEE34204600F062
:104ED00017FC274C01210025022620462A4633468E
:104EE00000F0DFF90322204629463346039CA646FC
:104EF00070BC01B000F0F6B9F0B583B004461B48B1
:104F000000F0FEFB1A4D01210026022728460291DF
:104F100032463B4600F0C5F90322284631463B465F
:104F200000F0E0F90620009001963546029E1048F8
:104F30003946019A00F074F93846FFF73BFF2246E4
:104F400032400B48394600F06BF90098FFF732FF0A
:104F500007483946324600F063F9681CE1B24C0854
:104F6000072D0546E3D303B0F0BDC046120500008F
:104F70000004004870B5194B1C46083C2568854361
:104F800025601D1F2E6886432E601E6886431E60A6
:104F90005E6886435E6001290FD011B92168014324
:104FA0002160022A0ED0C143012A0FD0A2B91A688B
:104FB00002431A605A680A400DE0296801432960DB
:104FC000022AF0D119680143196002E01A680A4008
:104FD0001A605A6802435A6070BDC0460804014016
:104FE000054908607047C046034909680140481EEA
:104FF000814108467047C046140401403D4908609D
:105000007047C0460248016880220A430260704728
:1050100010200240B0B50146364A374C05202346E1
:105020001568ED0702D05B1CFAD3B0BD1068C0064E
:1050300013D41068400802231840F6D15068184372
:105040005060916050684021014351600520116813
:10505000C90704D0641CFAD309E00420B0BD10686D
:10506000C00603D410684008184000E004205168CE
:1050700099435160B0BDC0460448C168090603D5D4
:1050800003490160034901607047C04604200240A3
:1050900023016745AB89EFCD70B50246154B164C21
:1050A000052025461E68F60702D06D1CFAD370BD98
:1050B0001868C00610D41868400802263040F6D19F
:1050C0005868012528435860116005201968C907F0
:1050D00004D0641CFAD309E0042070BD1868C0062F
:1050E00003D418684008304000E004205968A94300
:1050F000596070BD0C2002400000F1FF70B50446FD
:10510000C1B2064D284600F071FE054E28463146D4
:1051100000F093FE0028F9D0204670BD0038014011
:1051200007070000F0B588B00F23DD43036AD407FA
:1051300001D02B400B430395F024E6430F01940765
:105140000297054601D533403B432F4F08025407D1
:10515000069001D53B4003432C4F080314070795E5
:1051600001D53B4003430F04D4060196009702D5B6
:10517000274C23403B43274E0F05940601D533406F
:105180003B43254D0E065406049601D52B40334370
:105190000597224D0F07140601D52B40DB19079DFB
:1051A0006C6A2B62D30502D5039B1C400C43069B03
:1051B000154D910503D501990C4002990C43134EEE
:1051C000510501D52C401C43124B144D110501D53E
:1051D00034400443D10403D50D48044000980443EF
:1051E0000598910401D51C40044304980A4B5104CE
:1051F00001D51C400443110401D52C40E419079843
:10520000446208B0F0BDC046FFF0FFFFFF0FFFFF94
:10521000FFFFF0FFFFFF0FFFFFFFFFF0FFFFFF0F9C
:1052200012B1182211507047282211507047000007
:10523000F0B581B0174C204600F062FAEF342046FA
:1052400000F05EFA0920C606012400251C2730461E
:1052500021462A463B4600F024F8032230462946E0
:105260003B4600F03FF8B7622846214600F0E6FAD8
:105270000226304629462A46FFF77CFE3046FFF7D5
:10528000AFFE0520214601B0F0BC04BC964600F0FC
:10529000CFB8C0461105000000690840411E884192
:1052A0007047F0B582B0019305680090C068002691
:1052B000374603E0B61C7F1C102F0ED0019BFB402D
:1052C000DB07F7D01346B3400324B440A043184390
:1052D0000B46B340A5431D43ECE700990D60C86041
:1052E00002B0F0BDF0B581B0012902D14168194387
:1052F00001E04168994341600090816800240320E7
:10530000264603E0A41C761C102E0AD01F46F74048
:10531000FF07F7D01746A7400546A540A9433943E4
:10532000F0E70098816001B0F0BD00000120C006E8
:1053300043F2000100F0B0F8002080F3108800F084
:10534000B5FA64242046FFF73BFDFFF771FFFFF736
:105350005BF8FEF733FB2046FFF732FDFEF740FE19
:1053600000F0CAFAFFF78AF8FFF7AAFD00F0E8F9A3
:105370002046FFF725FD1E4D291D1E4C2046FEF739
:10538000B6FD2068A168814211D120460C30294623
:105390000831FEF7ACFD204610300C352946FEF7EB
:1053A000A6FDE0682169144A1081117004E0211DF6
:1053B00006222846FEF7B6FD0920C0060421012278
:1053C000FFF72EFF0DA000F099FD184C0A4D04E0E8
:1053D000204600F054FCFEF709FDFEF767FFA878B1
:1053E00029790143F4D1204600F044FCF5E7C0469A
:1053F00000FC000824110020F80000203D3D3D3D48
:105400003D3D3D3D3D3D2063333738205465737449
:105410002053746172742066616E203D3D3D3D3DB8
:105420003D3D3D3D3D0D0A0D0A200000002000409D
:1054300070B540B2002817D4032302469A43144B98
:10544000D4588507ED0EFF26AE40B4438901C9B29A
:10545000A9402143D1501F21014001228A40400927
:1054600080000C49425070BD8207D20EFF24944048
:105470000F230340083B0320834304481D58A543E2
:105480008901C9B291402943195070BD1CED00E05B
:1054900000E400E000E100E0034A0A400243034860
:1054A0000260BFF34F8F704780FFFF1F08ED00E0E1
:1054B00010B531490A462C3A13684CF20004A34354
:1054C00013600B682D4C1C400C60092852D88300D7
:1054D00001A4E3189F46C04600F012B800F015B8CA
:1054E00000F01DB800F01EB800F01FB800F021B8A1
:1054F00000F023B800F025B800F032B800F025B86D
:10550000012000040A68824303E0012000040A68C5
:1055100002430A60086840F20012904329E01068D4
:10552000106022E01068106014E0106844F200037C
:1055300019E0106844F200030AE0106848F2000322
:1055400011E0106848F2000302E010684CF200031A
:10555000034313600120C0070A6802430A6004E0A5
:1055600010684CF20003034313600A6840F2001015
:105570001043086010BDC04630100240FFFEFE7FA1
:10558000F0B581B00246544B18680C2101405348D5
:105590000829044618D119688902090F0F2901D07A
:1055A0008C1C00E010241D682D0101D511310C4622
:1055B0001968C90301D44A4905E0996A0F250D40CD
:1055C000691CB0FBF1F14C431D6818681968052A85
:1055D0001ED800902D062D0F42A77F5D2546FD4069
:1055E0008904490F434F7E5C2946F140960001A093
:1055F0008019874600F00AB800F00CB800F00CB82B
:1056000000F066B800F00FB800F016B821465FE071
:1056100000215DE029465BE000984005400F385CC2
:10562000C540294654E0D86AC0051CD4D86AC003D6
:105630002ED5324801B0F0BDD86A800748D0D86A6C
:10564000032210400128214642D0D86A104048F277
:10565000000102283CD0D86A104003281F4800D01F
:10566000002001B0F0BD1A68D86A1204920F9300AE
:1056700001A4E3189F46C04600F006B800F00BB83E
:1056800000F00DB800F011B8002812D449081FE04E
:10569000194801B0F0BD00280FD4890818E000288F
:1056A0000FD40620B1FBF0F112E000280DD4C90898
:1056B0000EE00320B5FBF0F10AE00520B5FBF0F1A8
:1056C00006E00720B5FBF0F102E00920B5FBF0F1A0
:1056D000084601B0F0BDC0460410024000127A0036
:1056E00000093D000000000000000000010203046A
:1056F00006070809FC680008809FD500003FAB0141
:105700001F21014001228A4080090C49435813435C
:10571000435070471F21014001228A4080090749F8
:1057200043589343435070471F21014001228A4050
:105730008009024943581343435070470010024008
:10574000F0B583B03948FFF7DBFF394C012500265F
:10575000022720462946029532463B46FFF7A1FD27
:1057600003220192204631463B46FFF7BBFD20460F
:1057700039463246FFF754FD302420460094FFF7A7
:1057800019FB2B4839462A46FFF74AFD2046FFF70A
:1057900011FBCC242046FFF7AFFB4420FFF7ACFB06
:1057A0006420FFF70DFB2148FFF7AAFF204D284694
:1057B000029932463B46FFF774FD28463146019A6E
:1057C0003B46FFF78FFD2846394601963246FFF7E4
:1057D00027FD009E3046FFF7EDFA28463946029A2B
:1057E000FFF71EFD3046FFF7E5FA2046FFF784FB82
:1057F000BE20FFF781FBFFF787FA0546FFF784FA23
:10580000F826064000024019F82E01D1404280B22D
:10581000FDF734FD02460B46F82E01D0064900E0A4
:1058200004490198FDF7ACFC03B0F0BD120500007F
:10583000000400480000B0BF0000B03F10B58A0867
:10584000032A30D88907090F88400F238B40D9439A
:10585000930001A4E3189F4600F006B800F00CB8CE
:1058600000F012B800F018B80F4A13680B4013602C
:1058700011680143116010BD0B4A53680B4053601F
:1058800051680143516010BD074A93680B40936013
:1058900091680143916010BD034AD3680B40D36007
:1058A000D1680143D16010BD0800014010B50D481A
:1058B00000680D49B0FBF1F0411E080E00D0FEE774
:1058C0000A480B4A51600B490B6803400324A407A4
:1058D0001B190B6000239360072313600A680240C2
:1058E0000A6010BD1C110020A0860100FFFFFF0010
:1058F00010E000E020ED00E070B584B040F20870E8
:10590000FFF7FEFEDA4C204600F078F96E4630468E
:1059100000F036FA0025357363200290472000908E
:1059200001952046314600F0AFF901262046314668
:10593000324600F012FA2046314600F001FA1320F8
:105940002946FFF775FD2046314600F0F5F920465F
:1059500000F006F8204600F08DF904B070BDC04696
:10596000016880220A4302607047000010B50329D5
:1059700000D9FDE08B0001A4E3189F4600F006B8B3
:1059800000F08EB800F045B800F0CBB8036A0121F2
:105990008B43036283690324A34383611388046AEE
:1059A0001C430462036A0224A34303629388046ACB
:1059B0001C430462DF4BC3180A24E341072B00D9C0
:1059C000D6E09940E123194200D1D1E0016A0423D5
:1059D000994301625188036A0B430362016A0823F9
:1059E00099430162D188036A0B430362416840F224
:1059F000001399434160118943680B434360416838
:105A000040F2002399434160518942680A43426051
:105A100010BD016A40F20013994301620321C9439A
:105A2000C3690B40C36111880902036A0B43036217
:105A3000016A40F200239943016291880902036AD6
:105A40000B43036251490B1F984200D090E0036A58
:105A500040F20044A343036253881B02046A1C43C0
:105A60000462036A40F60004A3430362D3881B0266
:105A7000046A1C430462086841F20003984308600A
:105A8000108900010B6803430B60086842F20003B1
:105A900098430860508900010A6802430A6010BDFB
:105AA000016A102399430162816940F200339943EE
:105AB000816111880901036A0B430362016A202393
:105AC0009943016291880901036A0B430362954976
:105AD00088424ED0904988424AD1016A4023994376
:105AE000016251880901036A0B430362016A802342
:105AF00099430162D1880901036A0B430362234879
:105B0000016840F2004399430160118989000368EC
:105B10000B430360016840F600039943016051891B
:105B20002EE0016A41F2000399430162C16940F22B
:105B300000339943C16111880903036A0B4303626F
:105B4000016A42F200039943016291880903036AE2
:105B50000B4303620D490B1F984209D1086844F2B8
:105B6000000398430860108980010A6802430A60B4
:105B700010BD0748016840F2004399430160118954
:105B8000890002680A43026010BDC046042C01402F
:105B90000440014010B5032929D88B0001A4E31863
:105BA0009F46C04600F006B800F00AB800F010B8F2
:105BB00000F013B88169702399438161183013E0B4
:105BC000816947F2000399438161120218300BE0AA
:105BD000C16970239943C16105E0C16947F20003BF
:105BE0009943C16112021C3001681143016010BD6C
:105BF000032902D8890008184263704710B5184C71
:105C0000184988420ADD1849884212DC4249884214
:105C10001DD04449884218D1641D18E03F4988428C
:105C20000FD01249884211D0414988420DD1FD342C
:105C30000DE03E49884206D03B49884205D1E41D2B
:105C400005E0F63403E0A41D01E010BDF934204660
:105C5000FFF76AFD204610BC02BC8E46FFF75ABD16
:105C60000B030000FF2B0140FF43014000100040E8
:105C700000200040016801229143016070470168E3
:105C800001220A430260704710B50A888262224AE4
:105C9000904202D0214B98420BD103687024A34359
:105CA00003604B8804681C4304608B8804681C43B1
:105CB00004608B68C3621A4B984208DC174B984209
:105CC0000ED01B4B98420BD0904209D01EE0154AD3
:105CD000904205D0144A904202D0144A904215D105
:105CE000026840F200339A430260CA880368134393
:105CF0000360104A82180A23DA41072A06D80123D2
:105D00009340E122134201D0097B016341690122E2
:105D10000A43426110BDC046002C0140000400400F
:105D2000FF3F014000400140004801400044014065
:105D30000020004000D4FEBFC2680A43C260704722
:105D4000C94301617047C2680A40531E9A41006905
:105D50000840411E8841104070478162012A03D1EA
:105D6000416901220A4342617047491E4A424A4141
:105D7000D103426C48F200039A43511841647047C2
:105D80000349002202730260426081607047C0468E
:105D9000FFFF0000B0B50D4604462248844204D0FF
:105DA0002148844205D1022000E00520FFF7E8FBEE
:105DB00000E000202168090406D469084018B0FBFF
:105DC000F5F080B2E060B0BD690840004018B0FB5B
:105DD000F5F0034901400007400F4018E060B0BDF6
:105DE000F0FF0000416A034808407047014A0A403A
:105DF00082627047FF01000010B50A49884204D052
:105E0000094988420BD1094C00E0054C2046FFF7B8
:105E10008BFC204610BC02BC8E46FFF77BBC10BD3D
:105E20000E0300000038014000440040110400004F
:105E3000016801220A43026070471F220A40890953
:105E40000958D1400120084070471F220A40012311
:105E5000934089090A589A430A5070471F220A4002
:105E60000123934089090A581A430A5070471F2298
:105E70000A400B049B0D1B58D3408A0D1258C802D0
:105E8000C00EC2401A400120104070470268012332
:105E90009A430260026840F200639A43026002681B
:105EA0000A4302607047026804239A430260026852
:105EB0000A4302607047026801239A430260426805
:105EC00043F200039A43426042680A4342607047CB
:105ED000026808239A43026002680A43026070471E
:105EE000026801239A430260026841F200039A4368
:105EF000026002680A430260704700000FB410B5E8
:105F000003A9044B044A029800F002F910BC08BC33
:105F100004B01847FD500008000000200FB410B571
:105F200004A9074B02AA039800F0F2F8044602A95C
:105F3000002000F089FC204610BC08BC04B01847C3
:105F4000496800082021020C01D010211046020AE5
:105F500001D010460839020901D01046091F8208F5
:105F600001D01046891E420801D0881E7047081AC9
:105F700070470000004870470400002002E008C895
:105F8000121F08C1002AFAD170477047002001E0B3
:105F900001C1121F002AFBD170470000F0B51FB4E9
:105FA00086B00998089A030D0021024314D0514885
:105FB000514A1818504305141198012810981AD006
:105FC000281A401C00264D4F4D490096019104901F
:105FD000002812DA444211E01198012449A3012853
:105FE00001D11098C1430698119A84600360C26081
:105FF00041600BB0F0BD4042E4E7044621050020BB
:106000003F4A001C51410391029012E0E00707D083
:1060100032463B4601990098FDF7B2F80191009095
:1060200032463B4610461946FDF7AAF806460F468B
:106030006410002CEAD10498039B0028029A099965
:10604000089806DAFDF79CF8019B009AFDF798F88E
:1060500005E0FDF70FFB019B009AFDF70BFB0446E3
:106060000E460022284BFDF79DFB03D80020C043BD
:10607000014607E00022254B20463146FDF748FA4D
:10608000FDF770FB102409E0002C0ADB0A22002334
:10609000FDF735F9079B30321A55641E02460A4354
:1060A000F2D11122641C079B121B1C19119B012B9E
:1060B00003D0012308430ED10AE0084304D0112085
:1060C00010900020119077E71098151A6D1E0BE0C4
:1060D0001098824202DD00236D1C03E0824201DA47
:1060E00000236D1E002BEED0069811998260C160CE
:1060F00030C07EE701FCFFFF104D0000000014409F
:106100000000F03F300000000000F0430000E03FDE
:10611000FFB597B00646002518E2252877D1002460
:106120002746FD49049400E00443761C32780120A0
:10613000203A90400842F7D130782A280ED0022227
:10614000307801463039092916D804990A23594371
:10615000303940181443761C0490F1E7189802C8AF
:1061600004911890002904DA0120400304434842B6
:10617000049002200443761C30782E2814D1042089
:1061800004437078761C2A2809D11898761C80C898
:10619000189009E00A214F43303FC719761C307828
:1061A000014630390929F5D930786C2810D006DC41
:1061B0004C281AD068280ED06A2817D104E0742819
:1061C00013D07A2812D110E00120400504430CE0DE
:1061D0000121090501E0032109050C437178814281
:1061E00003D1012000052418761C761C307811900C
:1061F00066280BD013DC58287DD009DC00287BD022
:106200004528F6D04628F4D047281AD1A5E118E051
:10621000632835D0642870D0652812D19DE170289C
:106220006CD008DC6728F1D069287BD06E280DD0AF
:106230006F2806D1BAE073282ED0752871D078283F
:1062400059D01A9A199990476D1C7EE16002400F4F
:10625000022809D003280DD00428189801680DD011
:106260000D60001D189070E11898EA1701680D6024
:106270004A60F6E7189801680D80F2E70D70F0E7C4
:1062800018986A4601781172001D1890002050720B
:1062900002A80090012005E0189802C8189000207C
:1062A0000091C04361070DD5002101E00199491C0F
:1062B0000191B94212DA8142F8DB009A515C00295F
:1062C000F4D10BE0002101E00199491C01918142C8
:1062D000FADB019A0099895C0029F5D101990498AB
:1062E0001A9B471A21463846199A00F097FA0199E5
:1062F000401945180BE04FE02CE113E04EE0009808
:1063000000990078491C00911A9A199990470198B0
:10631000401E0190401CF2D1214638461A9B199A22
:1063200010E137E00A200021009001916002410F46
:10633000022907D0189A01CA1892C2179446032955
:1063400008D00AE01898C01DC108C90005C91891F5
:10635000944607E000B2C2179446042902D140B225
:10636000C1178C4600226146944506DA0A46002190
:10637000404291418C462D2102E0210504D52B217C
:106380006A461173012103E0E10701D02021F7E7FC
:10639000029155E00A200AE0102008E01020009049
:1063A0000021042004430191082703E00820002174
:1063B000019100906002410F022907D0189A01CA8A
:1063C000189200229446032908D008E01898C01DAE
:1063D000C108C90005C91891944603E080B2042998
:1063E00000D1C0B200210291210729D5119970294D
:1063F00006D0009A1021019B4A401A4305D00EE0B6
:1064000040216A461173012108E06146014306D02C
:1064100030216A4611731199517302210291009A39
:106420000821019B4A401A430AD16146014301D128
:10643000610705D530216A46117301217F1E029143
:106440001199582904D035A10E910DA90D910DE097
:1064500037A1F9E76146019B009AFCF750FF0E9BBC
:106460008C469B5C0D9A521E0D921370614601433F
:10647000F0D10D9805A9081A20300190600703D5C6
:1064800001200004844300E001270198874201DDD8
:10649000381A00E00020019900904118029809186C
:1064A0000498401A0490E00306D421461A9B199AD6
:1064B000049800F0B3F94519002706E003A81A9ADA
:1064C000C05D199990476D1C7F1C02988742F5DBCF
:1064D000E0030CD521461A9B199A049800F09EF906
:1064E000451904E01A9A3020199990476D1C0099BB
:1064F000481E00900029F5DC08E00D980D99007801
:10650000491C0D911A9A199990476D1C0199481EC2
:1065100001900029F1DC63E10928010030313233B8
:1065200034353637383961626364656600000000CF
:1065300030313233343536373839414243444546B9
:106540000000000000F05AF94519761C3078002848
:1065500000D0E2E528461BB0F0BD600700D4062756
:106560001898C01DC108C90048680A680831C30FDF
:10657000DB071891190001D09CA108E0210501D585
:106580009BA104E0E10701D09AA100E09AA1430099
:1065900011985B08109165280CD006DC452809D0BD
:1065A00046281DD0472841D141E0662818D06728E9
:1065B0003CD13CE00021112F01DB112000E0781CD0
:1065C0000191009008A911A8FFF7E8FC1399059123
:1065D0000021119A15927F1C12980197009150E0AA
:1065E0000120C00703900120019008A9009711A87D
:1065F000FFF7D4FC139A149905920022119B009284
:1066000012981593059A0192002901D0104602E0D4
:10661000791C40180190381A01D5019804E04042D5
:10662000401E0090781C0190C01B029043E0012F97
:1066300000DA01270021112F01DD112000E038468A
:106640000191009008A911A8FFF7A8FC13990591E2
:10665000119A0021129815920091019721070CD4EC
:106660000599B94201DB019900E00191012904DD9E
:10667000159A491E515C302906D0B84201DA011D35
:1066800005DA0121029115E00199491EEDE7002884
:1066900005DC0099411800910199091A03E0019A5B
:1066A000411C914200DD01910099401A401C02906A
:1066B0000120C0070390200706D402990198814267
:1066C00002DB0020C043029000206946C87707AF74
:1066D000012103980337C907884224D00220119072
:1066E0002B201290039800280CDA404203902D20B2
:1066F000129007E00A210398FDF77AF830317F1EE7
:10670000039039701199481E11900029F2DC03980A
:106710000028EFD1791E12980870307820210840A7
:106720004530BF1E387006A8C01BC01D03901098CE
:106730000078002800D00120019941180298C01764
:106740000918039809180498401A401E0490E003A1
:1067500006D421461A9B199A049800F05FF845194F
:1067600010980078002803D01A9A199990476D1C48
:10677000E00324D521461A9B199A049800F04EF89C
:1067800045191CE00098002807DB0099059888420D
:1067900003DD1598405C199901E0199930201A9A87
:1067A000904700986D1C401C00900298401E02907B
:1067B000002804D11A9A2E20199990476D1C01992E
:1067C000481E01900029DDDC05E038781A9A7F1C0C
:1067D000199990476D1C0399481E03900029F4DC19
:1067E00021461A9B199A0498ACE600002D0000007F
:1067F0002B0000002000000000000000F8B5044657
:1068000000251E461746880404D405E0394620209A
:10681000B0476D1C641EF9D52846F8BDFFB5044687
:10682000002581B01E46C80301D5302700E020278F
:10683000880404D505E038460399B0476D1C641EF2
:10684000F9D5284605B0F0BD0A68531C0B601070DE
:106850007047000010B5044601E0FEF74FFC2078B9
:10686000641C03490028F8D10A20FEF747FC10BD3C
:106870000000002000404040404040404040414136
:106880004141414040404040404040404040404005
:10689000404040404005020202020202020202029F
:1068A000020202020220202020202020202020029C
:1068B000020202020202909090909090101010102C
:1068C00010101010101010101010101010101010C8
:1068D000020202020202888888888888080808085C
:1068E0000808080808080808080808080808080828
:1068F000020202024000000075680008000000006B
:10690000010203044144433F0D0A0074656D703F6A
:106910000D0A00617070207570646174610D0A0069
:1069200064697374616E63650D0A0073686F772024
:10693000776176650D0A006C61736572206F66661B
:106940000D0A00726561642070776D0D0A0067653D
:10695000746F726967696E0D0A007365746F72698E
:1069600067696E0D0A006C61736572206F6E0D0AA7
:106970000068656C700D0A006765742074656D7041
:106980000D0A006D6561737572652073746F700D0B
:106990000A006C6173657220696E69740D0A006D7E
:1069A0006561737572652073746172740D0A00C33A
:1069B000BFCCF5D6B8C1EEC7EBD2D45C725C6EBD6D
:1069C000E1CEB2210D00D2D4CFC2CAC7BFD8D6C63D
:1069D000D6B8C1EEA3ACC7EBB8F9BEDDD0E8C7F3BB
:1069E000B7A2CBCD210D00766973696F6E3A434D26
:1069F0004F535F47445F54445F5635300D006F6B13
:106A00000D00726561642070776DB6C1C8A1BCA429
:106A1000B9E270776D0D007365742070776D3DC9B4
:106A2000E8D6C3BCA4B9E270776D0D0064697374D5
:106A3000616E6365BEE0C0EBB2E9D1AF0D006D657C
:106A400061737572652073746F70B9D8B1D5B3A4D2
:106A5000B2E20D006D6561737572652073746172C9
:106A600074BFAAC6F4B3A4B2E20D006C6173657280
:106A7000206F6EB4F2BFAABCA4B9E20D006C6173C2
:106A80006572206F6666B9D8B1D5BCA4B9E20D00B5
:106A90007365746F726967696EC9E8D6C3D4ADB5A2
:106AA000E30D0045503D00777269746520666C61A6
:106AB00073683D0077726974652070776D3D00736F
:106AC00065742070776D3D007265616420666C614D
:106AD0007368002425737C25787E0073756D5F6D67
:106AE00061785F696E6465783D25642A2A25642093
:106AF000202073756D5F6D61785F696E6465785F86
:106B0000323D25642A2A256420202073756D5F6D2F
:106B1000696E5F696E6465783D25642A2A25642064
:106B20002020206E6F5F7065616B3D2564200D0A2B
:106B300000000000586B0008000000204811000011
:106B400064390008106C000848110020B8050000E6
:106B50008C5F000800000000C1137169140821490E
:106B600042081A040C4B01450C1A660C4B35460CB6
:106B70001A370C5AFD181A200C5A510C1A9F0C5A2D
:106B8000AD241A830C1A690C320113BF6A4C08B980
:106B9000470C1AC80C5AF9181AA70C4BE948301AB6
:106BA0005A301A9D24411A4E0C5A79541A2B0C5AF9
:106BB00041241A430C5A3D481AB43C5AA9181A9257
:106BC000185AB9301A130C5A8D181A0B0C1A6D0C6E
:106BD00029301AA3305A61602A786C193002FF1EDE
:106BE00001FF01FF01FF01FF01FF01FF01FF01FFA5
:106BF00001FF01FF01FF01FF01FF01FF01FF013460
:106C000075A24A04146734123412BC0AB21E728090
:04000005080030CDF2
:00000001FF
