:020000040800F2
:1000000098090020E100000865030008930100083A
:1000100000000000000000000000000000000000E0
:10002000000000000000000000000000BD04000807
:10003000000000000000000067030008E907000856
:10004000F3000008F3000008F3000008F3000008C4
:10005000F30000084F010008F3000008F300000857
:1000600000000000F3000008F3000008F30000089F
:10007000F3000008F3000008F3000008000000008F
:10008000F3000008F300000800000000F30000087F
:10009000F3000008F3000008F3000008F300000874
:1000A000F3000008F3000008F3000008AD080008A2
:1000B000F300000800000000000000000000000045
:1000C000F300000800000000F30000080348854624
:1000D00000F014F800480047650E00089809002059
:1000E0000448804704480047FEE7FEE7FEE7FEE7D6
:1000F000FEE7FEE7F1070008CD000008064C0125E9
:10010000064E05E0E36807CC2B430C3C98471034BF
:10011000B442F7D3FFF7DEFFCC170008EC17000856
:10012000B0B501290ADB044645180020217880B2C9
:1001300000F0D2FB641CAC42F8D300E000200024A5
:10014000214600F0C9FB214600F0C6FBB0BD10B54A
:100150000224204600F034FD204600F02DFD10BDA5
:1001600080B582B0019101A800F040FA0028FAD0D1
:10017000002002B080BD80B582B001A800210170CE
:1001800001A800F033FA0028FAD001A8007802B0E4
:1001900080BDFEE7F0B583B00190114A00230A2527
:1001A00000951E4607E026461B180098B2FBF0F2A9
:1001B000C91B6D1E11D00296B1FBF2F738463030E4
:1001C000019CA055FCB21C43661E2046B04157431B
:1001D000002CE8D0029C661CE6E703B0F0BDC046E8
:1001E00000CA9A3B2D4C204600F024FA2C4800F01F
:1001F00021FA2C4D284600F01DFA2B4800F01AFA7F
:10020000284600F017FA294800F014FA204600F0BA
:1002100011FA27A000F00EFA2AA73A4D3A4E3CA454
:10022000254800F007FA254800F004FA244800F0B9
:1002300001FA384600F0FEF928680028304600D060
:10024000324800F0F7F9204600F0F4F9FFF793FF89
:100250003138032813D8810001A251188F46C046B7
:1002600000F00AB800F00FB800F011B800F000B8C4
:10027000374800F0DFF9D3E700F022F9D0E738483B
:1002800000F0D8F9CCE7354800F0D4F9C8E7314898
:1002900000F0D0F9304800F0D3FDC1E78117000825
:1002A000EF1600085D16000838170008A6160008AB
:1002B0000D0A0D0A00000000F1140008F9130008EF
:1002C00037140008202045786563757465207468CC
:1002D00065206C6F61646564206170706C69636136
:1002E00074696F6E202D2D2D2D2D2D2D2D2D2D2D45
:1002F0002D2D2D2D2D2D2D2D2D2D2D2D20330D0A78
:100300000A00000020000020B31400087514000843
:100310003D3D3D3D3D3D3D3D3D3D3D3D3D3D3D3D0D
:100320003D3D3D3D3D3D3D3D3D3D3D3D3D3D3D3DFD
:100330003D3D3D3D3D3D3D3D3D3D3D3D3D3D3D3DED
:100340003D3D3D3D3D3D3D3D3D3D0D0A0A0000002A
:1003500031150008D813000800300008691500089E
:10036000C115000870477047F0B583B004460026F9
:100370000660AE4802A901254E4B2A46FFF7F0FE63
:100380000346002876D102A80278511E172901944D
:100390003BD8009300248A0002A39A182646A3485B
:1003A000444B974600F02EB800F03CB800F035B84A
:1003B00000F04DB800F031B800F02FB800F02DB8C3
:1003C00000F02BB800F029B800F027B800F025B8ED
:1003D00000F023B800F021B800F01FB800F01DB8FD
:1003E00000F01BB800F019B800F017B800F015B80D
:1003F00000F013B800F011B800F00FB800F00DB81D
:1004000000F014B88026012421E0412A8748294BB6
:1004100001D0612A01D1022100E0012100910024D4
:10042000264614E040F20046012410E002AE3146B8
:100430002A46FFF795FE317818224A40024350427F
:10044000504102B10095460000247848194B1A4AE1
:100450000299117064B1174604253543EAB2B91CFC
:10046000FFF77EFE03460020019C3BB1064601E0FB
:10047000019C009B2660184603B0F0BDF978FF226E
:100480004A40B978914212D105203043385C795DF9
:1004900009020D18381D31461F46FFF741FE3B4645
:1004A000854200D001238542E4D00026E2E7012303
:1004B0000646DFE788130000800000207047000038
:1004C00010B584B001A800218172018102910191CF
:1004D00000911DA000F0AEF8684600F077FA0528FC
:1004E00028D8014627A08A0001A39A189746C0463B
:1004F00000F00AB800F01EB800F01EB800F01AB8FC
:1005000000F01CB800F01BB8304800F093F83048F9
:1005100000F090F8009901AC2046FFF73BFE2D4813
:1005200000F088F8204600F085F82BA000F082F853
:100530002C4804E02C4802E0224800E0224800F069
:1005400079F804B010BDC04657616974696E6720C0
:10055000666F72207468652066696C6520746F2010
:1005600062652073656E74202E2E2E2028707265B1
:1005700073732027612720746F2061626F72742962
:100580000A0D00000A0A0D54686520696D616765EF
:100590002073697A652069732068696768657220CD
:1005A0007468616E2074686520616C6C6F77656437
:1005B000207370616365206D656D6F7279210A0D1E
:1005C00000000000AB1500087115000800160008B7
:1005D00024000020531600082042797465730D0A28
:1005E00000000000541500088B150008B0B5044643
:1005F000F54D0649284600F018FE28B1284600F0BF
:10060000EBFD20700120B0BD0020B0BD050700004B
:10061000B0B50146EC4C204600F0E2FD044D20460A
:10062000294600F002FE0028F9D0B0BD0038014094
:100630000707000080B5014601A000F045FE80BD1F
:1006400025730000F0B584B003910178302932D1D0
:10065000417820220A43782A2DD15621CE43022305
:10066000002235462035009006E0E11912018A1873
:100670005B1C0B2B00D199E0C75C002F00D196E0EA
:100680003C46413C394630390A290BD32846354689
:100690003E46613E062E2E460546009802D3052CA6
:1006A00000D984E0062C2C4600D334460A29DCD23B
:1006B00034462734D9E70025012102910A2101910E
:1006C0002E462F46C25D13464B3B222B4DD8990038
:1006D00001A461188F46C04600F044B800F054B839
:1006E00000F049B800F050B800F04EB800F04CB837
:1006F00000F04AB800F048B800F046B800F044B83E
:1007000000F042B800F040B800F03EB800F03CB84D
:1007100000F03AB800F038B800F036B800F034B85D
:1007200000F032B800F030B800F02EB800F02CB86D
:1007300000F02AB800F028B800F026B800F024B87D
:1007400000F022B800F020B800F01EB800F01CB88D
:1007500000F01AB800F018B800F004B800F014B8AF
:1007600000F009B81FB1B60207E032B10CE0202159
:1007700011436D2908D13FB1360503990E602B4610
:10078000029A092F0CD919E01146303909290BD8E2
:1007900001994E43B618303E00220123092F0DD88F
:1007A0007F1C002B8ED109E02A4607E00B23C05C9A
:1007B00008B1002202E0039802600122104604B052
:1007C000F0BD000010B5401E010E01D0012010BD8B
:1007D000044C6060032000F0C9F90020A0600721EC
:1007E000216010BD10E000E080B500F0DBF980BDB5
:1007F000B0B582B02948011F0A6801252A430A6062
:100800000A689207FCD50268802313430360002422
:100810000194019A7F2A05D8019A521C0192019AEB
:10082000802AF9D302689023134303600194019A4C
:100830007F2A05D8019A521C0192019A802AF9D385
:100840000322D2430368134003600A68144B134029
:100850000B600168134A0A4002600168124A0A40AC
:100860000260816A0F2291438162C16A40F20312E1
:100870009143C1622904C26A8A43C262E907C26A1B
:100880008A43C262016BA9430163446000F066FCC5
:10089000E806214600F0F6FA02B0B0BD04100240AE
:1008A000FFFFF2FE0C00FF08FFFFC27710B5464CB9
:1008B0000649204600F0C1FC30B1204600F08CFC17
:1008C00003490988034A505410BDC0460500050776
:1008D0009005002090040020B0B540F200128A1864
:1008E00048F20001084B04E0204654000A42224628
:1008F00007D144001506ED0F2C190842F4D05C40D6
:10090000F2E780B2B0BDC04621100000F0B581B062
:10091000184800F0BDFB0920C506012428462146E1
:1009200040F2002200F0E2F92846214640F200425F
:1009300000F0DCF9022628463146224640F2002328
:1009400000F003FA002728463946224640F20023E9
:1009500000F01CFA28463146224640F2004300F0DF
:10096000F4F928463946224640F2004300F00EFAD8
:1009700001B0F0BD11050000B0B5124800F088FBD1
:10098000D84C204600F032FC00252046294600F0D5
:100990008DFC2046294600F074FC2046294600F0D4
:1009A0005BFC204642F2805100F0EEFB0421204621
:1009B00000F05FFC0821204600F070FC204600F0AB
:1009C0002FFCB0BD0E06000000380140F0B58BB022
:1009D0000090624862490160002501242F46049579
:1009E000019505E0019802900298384300D0B1E0EB
:1009F000002FF7D10198039002900AA8FFF7B4FCEA
:100A000002280AD090B90A9D25B3022D28D10620CC
:100A1000FFF7FEFD0227002516E018263046FFF7F7
:100A2000F7FD3046FFF7F4FD02270DE0049800B112
:100A30006D1C062D05D318263046FFF7E9FD30461C
:100A400000E04320FFF7E4FD20460028CCD0002F33
:100A5000D3D0C9E70620FFF7DBFD00200546F4E709
:100A6000039AD0B23F49897881420FD19AB13B4E67
:100A700030683C490A1DA90889B200F0C0F9F0B1FC
:100A800018263046FFF7C4FD042759E01520FFF76C
:100A9000BFFD0025D8E7334D2879A8B12A79002178
:100AA000DAB100233048C254581C3E2B04D8EA184F
:100AB0005279002A0346F5D12A18121D0FE030683A
:100AC0004019306006263BE00620FFF7A1FD01201B
:100AD0000290002005460390B7E72A1D0846224BE6
:100AE0001954507820280B460AD0921C002505ABDB
:100AF00058556B1C0E2D03D8505D20281D46F6D18D
:100B000005A8C15409A9FFF79DFD4CF60000401C43
:100B100000990968814207D918263046FFF778FD09
:100B20003046FFF775FD05270D484CF6000100F033
:100B300050F90998009908600620FFF769FD4326DF
:100B4000039D3046FFF764FD6D1C03950120049062
:100B5000002579E7F8B20BB0F0BDC0468C04002048
:100B6000003000088000002024000020FF2109063A
:100B7000034A13688B438007181810607047C046FB
:100B800020ED00E00B49086008680028FCD17047A0
:100B9000B0B530B1044664252846FFF7F3FF641E64
:100BA000FAD1B0BD0348016811B10168491E016066
:100BB0007047C04688040020054908607047C04659
:100BC000034909680140481E814108467047C046F4
:100BD00014040140234908607047C0463848016842
:100BE00080220A4302607047F0B581B005460F20AD
:100BF0000404204600F016F808B101B0F0BD304EF4
:100C00003068022738433060756030684021014306
:100C10003160204600F006F83168B943316001B018
:100C2000F0BDC04670B5441E0025641E2E466E41C0
:100C300000F008F8012801D1002EF6D1012800D1DA
:100C4000052070BD07480168C90707D10168C906BA
:100C500006D4006841080220084070470120704710
:100C6000042070470C2002400448C168090603D5DF
:100C700003490160034901607047C04604200240F7
:100C800023016745AB89EFCDF0B581B00C46054631
:100C90000F2006043046FFF7C5FF08B101B0F0BDD4
:100CA000074908680127384308602C603046FFF781
:100CB000B9FF034A1168B943116001B0F0BDC046E5
:100CC0001020024070B50446C1B2064D284600F01F
:100CD00087FA054E2846314600F0A7FA0028F9D0D9
:100CE000204670BD0038014007070000F0B582B013
:100CF0000191016A0090446A00252E4603E02D1DF3
:100D0000761C082E0AD01746F740FF07F7D0019F40
:100D1000AF400F23AB4099433943F0E70825002645
:100D200003E0361D6D1C102D0AD01346EB40DB0787
:100D3000F7D0019BB3400F27B740BC431C43F0E7FB
:100D400000980162446202B0F0BDF0B582B0019338
:100D500005680090C0680026374603E0B61C7F1C7B
:100D6000102F0ED0019BFB40DB07F7D01346B3409A
:100D70000324B440A04318430B46B340A5431D438E
:100D8000ECE700990D60C86002B0F0BDF0B581B02D
:100D9000012902D14168194301E04168994341604A
:100DA0000090816800240320264603E0A41C761CE2
:100DB000102E0AD01F46F740FF07F7D01746A7406E
:100DC0000546A540A9433943F0E70098816001B08A
:100DD000F0BD70B504463C20FFF7FCFEFFF744FF72
:100DE000002634252046FFF7FFFE2846FFF7F2FED7
:100DF000701C322E0646F5D3FFF7F0FE70BDF0B53D
:100E000081B014460D460646FFF72EFF3C273846B4
:100E1000FFF7E0FE3846FFF7DDFE5DB13C2702CC70
:100E20003046FFF731FF3846FFF7D4FE6D1E361D02
:100E3000002DF4D1FFF7D2FE002001B0F0BD00007C
:100E400010B50168064A0A40012149078A4206D1C5
:100E50004468006880F3088800F0E2F8A04710BDFD
:100E60000000FE2F00F07EF964242046FFF790FE7C
:100E7000FFF74CFDFFF780FD2046FFF789FEFFF7E7
:100E8000B1F9FEE7034A0A40024303480260BFF398
:100E90004F8F704780FFFF1F08ED00E0F0B581B075
:100EA0000246544B18680C21014053480829044657
:100EB00018D119688902090F0F2901D08C1C00E094
:100EC00010241D682D0101D511310C461968C90384
:100ED00001D44A4905E0996A0F250D40691CB0FB11
:100EE000F1F14C431D6818681968052A1ED8009056
:100EF0002D062D0F42A77F5D2546FD408904490F31
:100F000043A77E5C2946F140960001A080198746E0
:100F100000F00AB800F00CB800F00CB800F066B8A9
:100F200000F00FB800F016B821465FE000215DE048
:100F300029465BE000984005400F385CC5402946D3
:100F400054E0D86AC0051CD4D86AC0032ED53348F3
:100F500001B0F0BDD86A800748D0D86A032210409B
:100F60000128214642D0D86A104048F200010228E8
:100F70003CD0D86A104003281F4800D0002001B0A0
:100F8000F0BD1A68D86A1204920F930001A4E31806
:100F90009F46C04600F006B800F00BB800F00DB850
:100FA00000F011B8002812D449081FE01A4801B017
:100FB000F0BD00280FD4890818E000280FD40620BF
:100FC000B1FBF0F112E000280DD4C9080EE00320B7
:100FD000B5FBF0F10AE00520B5FBF0F106E00720D3
:100FE000B5FBF0F102E00920B5FBF0F1084601B0D5
:100FF000F0BDC0460410024000127A0000093D0016
:1010000000000000000000000102030406070809B8
:101010000000000001020304809FD500003FAB01E7
:1010200010B54948021F136801210B431360136870
:101030009B07FCD50323DB4304681C400460136852
:10104000104C1C40146002680F4B13400360026890
:101050000E4B13400360826A0F239A438262C26A76
:1010600040F203139A43C2620A04C36A9343C36201
:10107000CA07C36A9343C362026B8A4302630021B7
:10108000416010BDFFFFF2FE0C00FF08FFFFC277BA
:101090001F21014001228A4080090C494358134313
:1010A000435070471F21014001228A4080090749AF
:1010B00043589343435070471F21014001228A4007
:1010C00080090249435813434350704700100240BF
:1010D00070B51D48021F11680123194311601B4C94
:1010E00002211568661EA64202D20D403446F8D091
:1010F0001468A40700D4FEE7154C25680D430526A7
:10110000B5432560046804600468046004680460F2
:101110000468104D2540056004680F4D25430560A7
:101120001B0614681C43146013689B01FCD50268FD
:1011300003239A43026002680A4302600C2102689A
:101140000A40082AFBD170BD04100240FF040000D1
:1011500000200240FFFFC2F70000040880B5FFF73F
:10116000B7FF80BD80B5064800680649B0FBF1F0C6
:10117000FFF728FB00B1FEE70020FFF7F7FC80BD7A
:1011800004000020A0860100B0B50D4604462148A9
:10119000844204D02048844205D1022000E005208A
:1011A000FFF77CFE00E000202168090406D46908EE
:1011B0004018B0FBF5F080B2E060B0BD69084000B7
:1011C0004018B0FBF5F0034901400007400F4018FC
:1011D000E060B0BDF0FF0000416A0348084070477E
:1011E000014A0A4082627047FF01000010B50949B8
:1011F000884204D00849884208D1084C00E0044CD9
:101200002046FFF759FF2046FFF74CFF10BDC046B0
:101210000E030000003801400044004011040000AB
:10122000016801220A43026070471F220A408909AF
:101230000958D1400120084070471F220A400B0482
:101240009B0D1B58D3408A0D1258C802C00EC240D5
:101250001A40012010407047026801239A4302603F
:10126000026840F200639A43026002680A43026027
:101270007047026804239A43026002680A430260CE
:101280007047026801239A430260426843F20003F8
:101290009A43426042680A434260704702680823EA
:1012A0009A43026002680A430260704702680123A1
:1012B0009A430260026841F200039A4302600268A6
:1012C0000A430260704700000FB410B503A9044B35
:1012D000044A029800F017F810BC08BC04B0184784
:1012E000C50C00080000002002E008C8121F08C159
:1012F000002AFAD170477047002001E001C1121F97
:10130000002AFBD17047FFB581B00546002706E0F3
:1013100025280AD0049A039990476D1C7F1C2878D1
:101320000028F5D1384605B0F0BD002269786D1C63
:1013300010462E2913D1697804226D1C2A2909D15F
:1013400002996D1C01C9029109E00A235843303803
:1013500008186D1C29780B46303B092BF5D92B78E2
:10136000002BDFD0632B07D0732B10D0049A1846C4
:10137000039990477F1C2DE002996C460B782370EF
:10138000091D0291002161706E46012104E002995D
:1013900040C902910021C94352070AD5002400E048
:1013A000641C84420DDA8C42FADB325D002AF7D1EC
:1013B00007E0002400E0641C8C42FCDB305D002868
:1013C000F9D13F1904E03078049A761C03999047CC
:1013D000641EF8D26D1CA2E753746172742070729F
:1013E0006F6772616D20657865637574696F6E2EC5
:1013F0002E2E2E2E2E0D0A0A002020446F776E6CA2
:101400006F616420696D61676520746F2074686521
:1014100020696E7465726E616C20466C6173682021
:101420002D2D2D2D2D2D2D2D2D2D2D2D2D2D2D2DEC
:101430002D20310D0A0A00202055706C6F61642048
:10144000696D6167652066726F6D207468652069DB
:101450006E7465726E616C20466C617368202D2D10
:101460002D2D2D2D2D2D2D2D2D2D2D2D2D2D2D20B9
:10147000320D0A0A00202044697361626C65207491
:1014800068652077726974652070726F7465637423
:10149000696F6E202D2D2D2D2D2D2D2D2D2D2D2DCA
:1014A0002D2D2D2D2D2D2D2D2D2D2D2D2D20340D92
:1014B0000A0A002020456E61626C65207468652010
:1014C00077726974652070726F74656374696F6E8A
:1014D000202D2D2D2D2D2D2D2D2D2D2D2D2D2D2D49
:1014E0002D2D2D2D2D2D2D2D2D2D2D20340D0A0A98
:1014F000000D0A3D3D3D3D3D3D3D3D3D3D3D3D3DBC
:101500003D3D3D3D3D3D204D61696E204D656E7513
:10151000203D3D3D3D3D3D3D3D3D3D3D3D3D3D3D18
:101520003D3D3D3D3D3D3D3D3D3D3D3D3D0D0A0A81
:1015300000466C6173682077726974652070726F01
:1015400074656374696F6E206661696C65642E2EC4
:101550002E0D0A002D2D2D2D2D2D2D2D2D2D2D2D2A
:101560002D2D2D2D2D2D2D0A0055706C6F61640AC7
:10157000000A0A0D566572696669636174696F6E67
:10158000206661696C6564210A0D000A0D46616977
:101590006C656420746F207265636569766520747C
:1015A00068652066696C65210A0D000D0A0A4162B2
:1015B0006F7274656420627920757365722E0A0DEE
:1015C00000496E76616C6964204E756D62657220AB
:1015D00021203D3D3E20546865206E756D62657228
:1015E0002073686F756C6420626520656974686536
:1015F0007220312C20322C2033206F7220340D00C9
:101600000A0A0D2050726F6772616D6D696E6720F6
:10161000436F6D706C6574656420537563636573A7
:101620007366756C6C79210A0D2D2D2D2D2D2D2DA8
:101630002D2D2D2D2D2D2D2D2D2D2D2D2D2D2D2DDA
:101640002D2D2D2D2D2D2D2D2D0D0A204E616D654D
:101650003A20000A0D2053697A653A20000D0A3DB0
:10166000202020202020202020202020202020207A
:10167000202020202020202020202020202020206A
:10168000202020202020202020202020202020205A
:10169000202020202020202020202020202020204A
:1016A000202020203D000D0A3D2020202020202049
:1016B000202020202020202020202020202020202A
:1016C0004279204D4344204170706C6963617469B4
:1016D0006F6E205465616D20202020202020202066
:1016E000202020202020202020202020203D000D10
:1016F0000A3D2020202020202020202020202020E3
:1017000028432920434F50595249474854203230EA
:1017100031362053544D6963726F656C6563747222
:101720006F6E69637320202020202020202020203D
:101730002020202020203D000D0A3D2020202020B8
:10174000202020202053544D3332463478782049CD
:101750006E2D4170706C69636174696F6E20507298
:101760006F6772616D6D696E67204170706C69633F
:101770006174696F6E202020202020202020203DD1
:10178000000D0A3D3D3D3D3D3D3D3D3D3D3D3D3D29
:101790003D3D3D3D3D3D3D3D3D3D3D3D3D3D3D3D79
:1017A0003D3D3D3D3D3D3D3D3D3D3D3D3D3D3D3D69
:1017B0003D3D3D3D3D3D3D3D3D3D3D3D3D3D3D3D59
:1017C0003D3D3D3D3D3D3D3D3D00000000180008D4
:1017D0000000002020000000E81200082018000887
:1017E0002000002078090000F81200080000000026
:1017F00000000000000000000000000000000000E9
:101800000000000000A24A040000000000000000E8
:1018100000000000000000000000000000000000C8
:04000005080000CD22
:00000001FF
