:020000040800F2
:1000000038120020E10000085D0300080702000824
:1000100000000000000000000000000000000000E0
:10002000000000000000000000000000970400082D
:1000300000000000000000005F030008FD0700084A
:10004000F3000008F3000008F3000008F3000008C4
:10005000F300000845010008F3000008F300000861
:1000600000000000F3000008F3000008F30000089F
:10007000F3000008F3000008F3000008000000008F
:10008000F3000008F300000800000000F30000087F
:10009000F3000008F3000008F3000008F300000874
:1000A000F3000008F3000008F3000008C10800088E
:1000B000F300000800000000000000000000000045
:1000C000F300000800000000F30000080348854624
:1000D00000F026F800480047410E000838120020C2
:1000E0000448804704480047FEE7FEE7FEE7FEE7D6
:1000F000FEE7FEE705080008CD00000803460B43B5
:100100009B0703D009E008C9121F08C0042AFAD2CD
:1001100003E00B780370401C491C521EF9D2704753
:10012000064C0125064E05E0E36807CC2B430C3C4A
:1001300098471034B442F7D3FFF7CCFFC813000838
:10014000E813000810B50224204600F063FD2046A5
:1001500000F05CFD10BD000080B572B60648416835
:10016000064A1160064A1160006880F3088810682A
:100170008047002080BDC046003000081C000020E1
:100180002000002010B5044600F098FD204600F045
:1001900055FD3C2000F048FD00F04AFD002010BD58
:1001A00081B0009000988105800A01B1401C01B027
:1001B000704770B50C46054600F080FD284600F0FB
:1001C0003DFD3C26304600F02FFD2846214600F03C
:1001D00085FD304600F028FD00F02AFD002070BDAE
:1001E0000088411A48424841704780B582B001A852
:1001F0000021017001A800F0F1F90028FAD001A84F
:10020000007802B080BDFEE7F0B583B00190114ADE
:1002100000230A2500951E4607E026461B18009875
:10022000B2FBF0F2C91B6D1E11D00296B1FBF2F7C2
:1002300038463030019CA055FCB21C43661E204657
:10024000B0415743002CE8D0029C661CE6E703B09F
:10025000F0BDC04600CA9A3B0120C007184908609B
:100260001F20C006174909680818000B16490860C6
:1002700016A421A52BA6384F01E000F011F9204665
:1002800000F0CCF9284600F0C9F9304600F0C6F974
:10029000FFF7ABFF3428F2D0332805D03128ECD05B
:1002A000384600F0BBF9EAE7294800F0B7F9C94839
:1002B0002849FFF795FF0028E1D0FFF74DFFDEE763
:1002C0002C00002000000020100000202020446F9F
:1002D000776E6C6F616420496D61676520546F2093
:1002E00074686520466C61736820456E7465722081
:1002F00020310D0A000000002020457865637574E8
:100300006520546865204E65772050726F67726172
:100310006D20456E746572202020202020330D0A48
:100320000000000020203D3D3D3D3D3D3D3D3D3D2B
:100330003D3D3D3D3D3D3D3D3D3D3D3D3D3D3D3DED
:100340003D3D3D3D3D3D3D3D3D3D0D0A0000000034
:10035000E912000834120000AC1200087047704720
:10036000F0B581B005464F1C0026F4437F1E05D032
:10037000284600F033F90128F8D13446204601B070
:10038000F0BD0000F0B587B00C46059000270F6067
:1003900001252E0506A83146FFF7E2FFF94310B10B
:1003A000084607B0F0BD0394049106A801784A1EE0
:1003B000172A56D88024900001A31B1838469F4660
:1003C00000F030B800F02CB800F062B800F047B888
:1003D00000F05EB800F05CB800F05AB800F058B811
:1003E00000F056B800F054B800F052B800F050B821
:1003F00000F04EB800F04CB800F04AB800F048B831
:1004000000F046B800F044B800F042B800F040B840
:1004100000F03EB800F03CB800F03AB800F029B85F
:1004200040F200440297059A117005270194274372
:100430002C4650193146FFF793FF48BB641CA5B208
:10044000AF42059AF5D89078FF2141405078884214
:1004500004980399029A019B01D10B60104607B0E2
:10046000F0BD412902D061290498F8D1012007B0DC
:10047000F0BD06AD28463146FFF772FF40B9287837
:1004800018280498EBD103990860384607B0F0BDEE
:10049000049807B0F0BD704780B500F0B1F880BD9A
:1004A000B0B584B001A82049018120480290019094
:1004B0001FA000F0B3F82D4800F078FA044640F28F
:1004C000F41000F08FFB012C1CDB384800F0A6F87C
:1004D000374800F0A3F801AD28462146FFF794FE07
:1004E000344800F09BF8284600F098F8324800F0B5
:1004F00095F832A000F092F836483749FFF759FED8
:1005000004B0B0BDE01C05D0A01C05D0601C05D116
:10051000244804E016A002E01BA000E0224800F0FE
:100520007DF804B0B0BDC04620200000202020206F
:1005300057616974696E6720666F72207468652000
:1005400066696C6520746F2062652073656E742027
:100550002E2E2E2028707265737320276127207439
:100560006F2061626F7274290A0D00003606002048
:100570000D0A0A41626F7274656420627920757396
:1005800065722E0A0D0000000A0A0D566572696632
:1005900069636174696F6E206661696C6564210AC4
:1005A0000D0000002C1300080C130008691300084C
:1005B00034000020BC130008031300082D2D2D2D3E
:1005C0002D2D2D2D2D2D2D2D2D2D2D2D2D2D2D0D7B
:1005D0000A00000000FC000834123412B0B50446D2
:1005E000F14D0649284600F004FE28B1284600F0E7
:1005F000D7FD20700120B0BD0020B0BD0507000070
:10060000B0B50146E84C204600F0CEFD114D204625
:10061000294600F0EEFD0028F9D0B0BD10B50178F4
:1006200041B1441CC8B2FFF7EBFF601C21780029E0
:100630000446F7D110BD0000B0B50146DA4C2046A3
:1006400000F0B2FD034D2046294600F0D2FD0028FF
:10065000F9D0B0BD07070000F0B584B00391017870
:10066000302932D1417820220A43782A2DD15621CF
:10067000CE430223002235462035009006E0E119E2
:1006800012018A185B1C0B2B00D199E0C75C002F6C
:1006900000D196E03C46413C394630390A290BD31B
:1006A000284635463E46613E062E2E4605460098B3
:1006B00002D3052C00D984E0062C2C4600D3344606
:1006C0000A29DCD234462734D9E7002501210291DA
:1006D0000A2101912E462F46C25D13464B3B222B29
:1006E0004DD8990001A461188F46C04600F044B867
:1006F00000F054B800F049B800F050B800F04EB81F
:1007000000F04CB800F04AB800F048B800F046B825
:1007100000F044B800F042B800F040B800F03EB835
:1007200000F03CB800F03AB800F038B800F036B845
:1007300000F034B800F032B800F030B800F02EB855
:1007400000F02CB800F02AB800F028B800F026B865
:1007500000F024B800F022B800F020B800F01EB875
:1007600000F01CB800F01AB800F018B800F004B897
:1007700000F014B800F009B81FB1B60207E032B1BA
:100780000CE0202111436D2908D13FB136050399B2
:100790000E602B46029A092F0CD919E01146303908
:1007A00009290BD801994E43B618303E0022012387
:1007B000092F0DD87F1C002B8ED109E02A4607E0B7
:1007C0000B23C05C08B1002202E003980260012202
:1007D000104604B0F0BD000010B5401E010E01D05F
:1007E000012010BD044C6060032000F0E9F90020F6
:1007F000A0600721216010BD10E000E080B500F08E
:10080000FBF980BDB0B582B02948011F0A680125F7
:100810002A430A600A689207FCD5026880231343C2
:10082000036000240194019A7F2A05D8019A521C82
:100830000192019A802AF9D302689023134303603E
:100840000194019A7F2A05D8019A521C0192019ABB
:10085000802AF9D30322D2430368134003600A6855
:10086000144B13400B600168134A0A400260016890
:10087000124A0A400260816A0F2291438162C16A72
:1008800040F203129143C1622904C26A8A43C262E0
:10089000E907C26A8A43C262016BA94301634460EB
:1008A00000F040FCE806214600F008FB02B0B0BDB5
:1008B00004100240FFFFF2FE0C00FF08FFFFC277AA
:1008C00010B5394C0649204600F09BFC30B120465B
:1008D00000F066FC03490988034A505410BDC04625
:1008E000050005073406002034050020F0B581B06E
:1008F000184800F0B1FB0920C5060124284621460E
:1009000040F2002200F008FA2846214640F2004258
:1009100000F002FA022628463146224640F2002321
:1009200000F029FA002728463946224640F20023E3
:1009300000F042FA28463146224640F2004300F0D9
:100940001AFA28463946224640F2004300F034FAAB
:1009500001B0F0BD11050000B0B5124800F07CFBFD
:10096000114C204600F026FC00252046294600F0C8
:1009700081FC2046294600F068FC2046294600F00C
:100980004FFC204642F2805100F0E2FB0421204659
:1009900000F053FC0821204600F064FC204600F0E3
:1009A00023FCB0BD0E06000000380140F0B5FFB0DA
:1009B000FFB08FB00190794979480860002505950E
:1009C0000BA8C01C0290012004902E462C462F46F6
:1009D000039504E0002E039C264600D0BEE00BA841
:1009E00006A9FFF7CFFC60B1012800D1A3E0002DDC
:1009F00000DD7F1C062F00DBA7E04320FFF74CFD46
:100A00008DE0069F4FB3781C00D1A9E0E0B20BA99E
:100A10004978814229D164B30198029D29463A461A
:100A2000FFF76CFB5F4829463A46FFF767FB5E48D5
:100A30005C4A0260F817800F3818800881B2574D61
:100A4000286800F0DCF9002800D08EE02868C01982
:100A500028600620FFF7F0FD5EE00620FFF71CFD92
:100A6000002007460028BAD1B4E71520FFF714FD8F
:100A700054E00BA8C078002856D00BA8C2780021FB
:100A8000029D0846494F6AB10023FA540BAA581C2C
:100A9000FE2B04D8D2181279002A0346F5D10BAAEE
:100AA0001218D51C3954687820280B46404F0AD0BC
:100AB000AA1C002507AB58556B1C0E2D03D8505DA2
:100AC00020281D46F6D107A8C15405A9FFF7C4FD8B
:100AD0000598010C54D1FFF763FB38600021354ABB
:100AE00011602E4D90B13448007878B933480088B1
:100AF000484329684018FFF745FB2F4908702D4AE5
:100B00001168491C11603A689142EED30620FFF744
:100B1000C3FC4320FFF7C0FC641C01250027049898
:100B2000002800D05BE755E70620FFF7B5FC002062
:100B30000126044695E718242046FFF7ADFC204621
:100B4000FFF7AAFC0220C04324E018242046FFF748
:100B5000A3FC2046FFF7A0FC00201BE0059819E04D
:100B60000620FFF799FC002014E018242046FFF728
:100B700063FD2046FFF760FD0220C043401C09E0F2
:100B800018242046FFF788FC2046FFF785FC02204A
:100B9000C043801C7FB07FB00FB0F0BD00000020CC
:100BA000003000083401002028000020340000201C
:100BB0002400002014000020180000200400002061
:100BC000FF210906034A13688B4380071818106039
:100BD0007047C04620ED00E00B4908600868002817
:100BE000FCD17047B0B530B1044664252846FFF704
:100BF000F3FF641EFAD1B0BD0348016811B101686A
:100C0000491E01607047C046300000200549086059
:100C10007047C046034909680140481E81410846A3
:100C20007047C04614040140234908607047C0461D
:100C30003848016880220A4302607047F0B581B0ED
:100C400005460F200404204600F016F808B101B054
:100C5000F0BD304E30680227384330607560306830
:100C6000402101433160204600F006F83168B94365
:100C7000316001B0F0BDC04670B5441E0025641E51
:100C80002E466E4100F008F8012801D1002EF6D161
:100C9000012800D1052070BD07480168C90707D1A8
:100CA0000168C90606D40068410802200840704760
:100CB00001207047042070470C2002400448C1689E
:100CC000090603D503490160034901607047C04626
:100CD0000420024023016745AB89EFCDF0B581B018
:100CE0000C4605460F2006043046FFF7C5FF08B145
:100CF00001B0F0BD074908680127384308602C603F
:100D00003046FFF7B9FF034A1168B943116001B0DB
:100D1000F0BDC04610200240F0B582B00191016ADA
:100D20000090446A00252E4603E02D1D761C082EF7
:100D30000AD01746F740FF07F7D0019FAF400F23B7
:100D4000AB4099433943F0E70825002603E0361D00
:100D50006D1C102D0AD01346EB40DB07F7D0019B2A
:100D6000B3400F27B740BC431C43F0E70098016233
:100D7000446202B0F0BDF0B582B001930568009006
:100D8000C0680026374603E0B61C7F1C102F0ED02B
:100D9000019BFB40DB07F7D01346B3400324B4406C
:100DA000A04318430B46B340A5431D43ECE700990D
:100DB0000D60C86002B0F0BDF0B581B0012902D16C
:100DC0004168194301E0416899434160009081689E
:100DD00000240320264603E0A41C761C102E0AD013
:100DE0001F46F740FF07F7D01746A7400546A54026
:100DF000A9433943F0E70098816001B0F0BDF0B538
:100E000081B014460D460646FFF758FF3C2738468A
:100E1000FFF70AFF3846FFF707FF5DB13C2702CC1A
:100E20003046FFF75BFF3846FFF7FEFE6D1E361DAE
:100E3000002DF4D1FFF7FCFE002001B0F0BD000052
:100E40000120C0060024214600F038F884F3108801
:100E500000F06CF964242046FFF7C4FEFFF746FD5E
:100E6000FFF77AFD2046FFF7BDFE08480849FFF767
:100E7000B7F910B1FFF770F906E0FFF71FFF05A003
:100E8000FFF7CCFBFFF7E8F9FEE7C04600FC0008DF
:100E9000341200000D0A2055706772616465207479
:100EA00068652070726F6772616D20776974682061
:100EB000596D6F64656D200D0A000000034A0A40F9
:100EC000024303480260BFF34F8F704780FFFF1F4C
:100ED00008ED00E0F0B581B00246544B18680C21D3
:100EE000014053480829044618D119688902090F9E
:100EF0000F2901D08C1C00E010241D682D0101D5A4
:100F000011310C461968C90301D44A4905E0996AB0
:100F10000F250D40691CB0FBF1F14C431D681868AA
:100F20001968052A1ED800902D062D0F42A77F5D57
:100F30002546FD408904490F43A77E5C2946F140C0
:100F4000960001A08019874600F00AB800F00CB89E
:100F500000F00CB800F066B800F00FB800F016B85A
:100F600021465FE000215DE029465BE000984005F6
:100F7000400F385CC540294654E0D86AC0051CD4EF
:100F8000D86AC0032ED5334801B0F0BDD86A8007B7
:100F900048D0D86A032210400128214642D0D86A9E
:100FA000104048F2000102283CD0D86A10400328C3
:100FB0001F4800D0002001B0F0BD1A68D86A1204A2
:100FC000920F930001A4E3189F46C04600F006B8B4
:100FD00000F00BB800F00DB800F011B8002812D4E2
:100FE00049081FE01A4801B0F0BD00280FD4890855
:100FF00018E000280FD40620B1FBF0F112E0002821
:101000000DD4C9080EE00320B5FBF0F10AE005207D
:10101000B5FBF0F106E00720B5FBF0F102E0092096
:10102000B5FBF0F1084601B0F0BDC0460410024027
:1010300000127A0000093D000000000000000000DE
:10104000010203040607080900000000010203046E
:10105000809FD500003FAB011F21014001228A4043
:1010600080090C4943581343435070471F210140E6
:1010700001228A40800907494358934343507047EF
:101080001F21014001228A4080090249435813432D
:10109000435070470010024070B51D48021F116890
:1010A0000123194311601B4C02211568661EA642DC
:1010B00002D20D403446F8D01468A40700D4FEE7ED
:1010C000154C25680D430526B5432560046804606A
:1010D00004680460046804600468104D25400560DD
:1010E00004680F4D254305601B0614681C431460FB
:1010F00013689B01FCD5026803239A4302600268CF
:101100000A4302600C2102680A40082AFBD170BD24
:1011100004100240FF04000000200240FFFFC2F75D
:101120000000040880B5FFF7B7FF80BD80B5064812
:1011300000680649B0FBF1F0FFF74EFB00B1FEE797
:101140000020FFF73DFD80BD08000020A0860100C3
:10115000B0B50D4604462148844204D0204884425C
:1011600005D1022000E00520FFF7B4FE00E00020DA
:101170002168090406D469084018B0FBF5F080B274
:10118000E060B0BD690840004018B0FBF5F00349CD
:1011900001400007400F4018E060B0BDF0FF0000C4
:1011A000416A034808407047014A0A40826270471A
:1011B000FF01000010B50949884204D0084988425F
:1011C00008D1084C00E0044C2046FFF759FF2046A8
:1011D000FFF74CFF10BDC0460E0300000038014071
:1011E0000044004011040000016801220A4302602B
:1011F00070471F220A4089090958D1400120084040
:1012000070471F220A400B049B0D1B58D3408A0DC8
:101210001258C802C00EC2401A4001201040704748
:10122000026801239A430260026840F200639A4315
:10123000026002680A4302607047026804239A430E
:10124000026002680A4302607047026801239A4301
:101250000260426843F200039A43426042680A43D4
:1012600042607047026808239A43026002680A439A
:1012700002607047026801239A430260026841F2EB
:1012800000039A43026002680A430260704702E06A
:1012900008C8121F08C1002AFAD170477047002001
:1012A00001E001C1121F002AFBD17047496E76612F
:1012B0006C6964204E756D6265722021203D3D3E53
:1012C00020546865206E756D6265722073686F7555
:1012D0006C642062652065697468657220312C2019
:1012E00033206F7220340D0A000D0A2045786563A3
:1012F00075746520757365722050726F6772616DC9
:101300000D0A002042797465730D0A000A0D4661CA
:10131000696C656420746F20726563656976652009
:101320007468652066696C65210A0D000A0A0D540F
:10133000686520696D6167652073697A65206973E6
:1013400020686967686572207468616E20746865DA
:1013500020616C6C6F776564207370616365206DCC
:10136000656D6F7279210A0D000A0A0D2050726FA7
:101370006772616D6D696E6720436F6D706C657427
:101380006564205375636365737366756C6C79214E
:101390000A0D2D2D2D2D2D2D2D2D2D2D2D2D2D2DC0
:1013A0002D2D2D2D2D2D2D2D2D2D2D2D2D2D2D2D6D
:1013B0002D2D0D0A204E616D653A20000A0D205337
:1013C000697A653A20000000E81300080000002058
:1013D000100000008E120008F81300081000002012
:1013E000281200009E1200080030000800040000CF
:0813F00000A24A040000000005
:04000005080000CD22
:00000001FF
